:100000000C94BD010C94EE010C94EE010C94EE01E5
:100010000C94EE010C94EE010C94EE010C94EE01A4
:100020000C94EE010C94EE010C94EE010C94EE0194
:100030000C94EE010C94EE010C94EE010C94EE0184
:100040000C94EE010C94EE010C94EE010C94EE0174
:100050000C94EE010C94EE010C94EE010C945310F0
:100060000C94EE010C94EE010C94EE010C94EE0154
:100070000C94EE010C94EE010C94EE010C94EE0144
:100080000C94EE010C94EE010C94EE010C94EE0134
:100090000C946A0E0C94400E0C94EE010C94EE013C
:1000A0000C94EE010C94EE010C94EE010C94EE0114
:1000B0000C94EE010C94EE010C94EE010C94EE0104
:1000C0000C94EE010C94EE010C94EE010C94EE01F4
:1000D0000C94EE010C94EE010C94EE010C94EE01E4
:1000E0000C94EE01CF0ED20EC10EC50EC90E090F33
:1000F000D60EDA0EE00EE40EE80EEE0EF20EF60E5E
:10010000090FFC0E000F040F820F870F8C0F960F44
:10011000A00F1910AA0FB20FBA0FC40FCE0FD80F2D
:10012000E70FF10F1910FB0F05100F100C945D066F
:100130000C94C50E0C94D20E0C94F0010C946B052B
:100140000C94E70F0C9450020C94EE0E0C943103B7
:100150000C94E40E0C94000F0C942E030C94DA0E05
:100160000C94D60E0C942E020C94C10E0C94BD0D62
:100170000C94E6030C94FC0E0C9491070C94400430
:100180000C9429030C94CE020C9422050C940D07B8
:100190000C9495080C94AA0F0C94F2030C94E00EA6
:1001A0000C940F100C94CF0E0C94F60C0C948C0F36
:1001B0000C9433060C9442020C94BA0F0C949708DA
:1001C0000C94CE0F0C9487020C943D040C944304C1
:1001D0000C94950D0C94FB030C94090F0C943803AC
:1001E0000C94D80F0C94E9030C943D070C94870FE2
:1001F0000C94A00F0C94E80E0C94F8030C94820F4E
:100200000C94960F0C94F5030C941F020C94F10FB0
:100210000C9405100C94F20E0C9434030C94FB0F08
:100220000C94AB090C94040F0C9479060C942505DE
:100230000C941F050C9419100C94EC030C94EF0310
:100240000C94E3030C9441130C94C40F0C94B20F60
:100250000C94F60E0C94C90E00002000230026001A
:1002600029002C002F0032000001000003010601CC
:10027000090100002100240027002A002D00300081
:10028000330001010000040107010A0100002200FF
:10029000250028002B002E00310034000201000050
:1002A000050108010B0105050505070508080808F3
:1002B000020202020A0A08080404040401010101FE
:1002C00001010101030303030303030304070707F9
:1002D0000C0C0C0C0C0C0C0C02020202060606069E
:1002E000060606060B0B0B0B0B0B0B0B010210206B
:1002F000200808102040102040800201020108045C
:1003000002010102040810204080804020100804EF
:100310000201800402018040201008040201080448
:10032000020101020408102040800102040810208C
:10033000408000000A0B02090C0D0E08070304019F
:1003400000000000000000000000000000000000AD
:10035000000000000000000000000000000012117A
:10036000100000000000000000000000000000007D
:100370000000000000000000411311241FBECFEF59
:10038000D1E2DEBFCDBF00E00CBF14E0A0E0B2E0E0
:10039000EAE6F2E300E00BBF02C007900D92AA303C
:1003A000B107D9F729E0AAE0B4E001C01D92AF3847
:1003B000B207E1F711E0CDEBD1E000E006C02197F4
:1003C0000109802FFE010E949B14CC3BD10780E0E5
:1003D0000807A9F70E94E2100C9433190C9400004E
:1003E000CF92DF92EF92FF920F931F93CF93DF9301
:1003F0006C017A018B01C0E0D0E0CE15DF0589F0F9
:10040000D8016D918D01D601ED91FC910190F081A3
:10041000E02DC6011995892B11F47E0102C02196A9
:10042000ECCFC701DF91CF911F910F91FF90EF901B
:10043000DF90CF900895089580E090E00895FC014A
:10044000538D448D252F30E0842F90E0821B930B39
:10045000541710F0CF96089501970895FC01918DDF
:10046000828D981761F0828DDF01A80FB11D5D9616
:100470008C91928D9F5F9F73928F90E008958FEF84
:100480009FEF0895FC01918D828D981731F0828D38
:10049000E80FF11D858D90E008958FEF9FEF08958F
:1004A000FC01918D228D892F90E0805C9F4F821BF3
:1004B00091098F739927089584E194E00E94500276
:1004C00021E0892B09F420E0822F0895FC01848D1E
:1004D000DF01A80FB11DA35ABF4F2C91848D90E06E
:1004E00001968F739927848FA689B7892C93A08949
:1004F000B1898C9180648C93938D848D981306C000
:100500000288F389E02D80818F7D80830895EF92AA
:10051000FF920F931F93CF93DF93EC0181E0888FBD
:100520009B8D8C8D981305C0E889F989808185FDA4
:1005300024C0F62E0B8D10E00F5F1F4F0F73112795
:10054000E02E8C8DE8120CC00FB607FCFACFE889BC
:10055000F989808185FFF5CFCE010E946602F1CF37
:100560008B8DFE01E80FF11DE35AFF4FF0820B8FD8
:10057000EA89FB898081806207C0EE89FF896083F8
:10058000E889F98980818064808381E090E0DF914F
:10059000CF911F910F91FF90EF900895CF93DF932C
:1005A000EC01888D8823C9F0EA89FB89808185FD6B
:1005B00005C0A889B9898C9186FD0FC00FB607FCCC
:1005C000F5CF808185FFF2CFA889B9898C9185FF0D
:1005D000EDCFCE010E946602E7CFDF91CF91089563
:1005E00080E090E0892B41F080E090E0892B21F0C1
:1005F0000E940000811121C080E090E0892B21F051
:100600000E945C0281111CC080E090E0892B41F0C7
:1006100080E090E0892B21F00E940000811113C03E
:1006200080E090E0892BA1F080E090E0892B81F0C0
:100630000E94000081110AC008950E940000DCCFD2
:100640000E940000E1CF0E940000EACF0C9400005D
:100650000895FC01EE57FB4F808108958EE992E0EA
:1006600008958FEB92E00895FC0186A197A108956B
:100670008F929F92AF92BF92CF92DF92EF92FF92B2
:100680000F931F93CF93DF9300D01F921F92CDB78C
:10069000DEB78C016B0164E6C616D1043CF0FC01A8
:1006A000EE57FB4F8081882309F478C0DA01ED9181
:1006B000FC910190F081E02DB801655E7D4FCA018B
:1006C00019959C017801BCEEEB1ABDEFFB0A4FEFC8
:1006D000F70140834EEF3196408331968083319607
:1006E00090833196890F809580833196C082D8019E
:1006F000A65EBD4FDC9265E070E040E050E0C901CD
:1007000007966817790730F4A1914A0F511D6F5F62
:100710007F4FF7CF6901F8E0CF0ED11C800F911FFA
:10072000FC01EC5EFD4F4095408341E0C41642E081
:10073000D406C1F056014701D80112968D919C91C3
:100740001397F40161914F01DC01ED91FC9101904F
:10075000F081E02D1995C4018E199F098C159D0516
:100760005CF31EC08EE392E09A83898383E08B83DF
:1007700083ED92E09D838C83D801ED91FC910190F3
:10078000F081E02DAE014F5F5F4F67E070E0C80180
:100790001995AA24AA94BB24BA9402C0A12CB12C06
:1007A000C5010F900F900F900F900F90DF91CF9198
:1007B0001F910F91FF90EF90DF90CF90BF90AF907F
:1007C0009F908F9008958EE992E008958FEB92E0CC
:1007D00008958CE093E008958DE293E0089583E41A
:1007E00093E0089586E092E0089584E693E008950A
:1007F00085E893E00895AF92BF92CF92DF92EF9297
:10080000FF920F931F93CF93DF935C01EB018881DD
:10081000F501828389819A81AB81BC81FB01359688
:100820006C017D0125E0C20ED11CE11CF11C8F0181
:10083000061B170B20E030E00C151D052E053F05AB
:1008400038F441919F0122503109E9014883EFCFEB
:10085000FB01E80FF91F14826C5F7F4FF501748371
:1008600063830596DF91CF911F910F91FF90EF90D9
:10087000DF90CF90BF90AF90089588E993E00895FE
:1008800089EB93E008956F927F928F929F92AF923F
:10089000BF92CF92DF92EF92FF920F931F93CF936D
:1008A000DF93DC01FB01808190E013969C938E9393
:1008B00012972181922B13969C938E93129702810B
:1008C0001381248135815B0186E0A80EB11C68018B
:1008D0007901C6E0CC0ED11CE11CF11CA5014E1B18
:1008E0005F0B60E070E04C155D056E057F0540F420
:1008F000E50149915E01CE010297EC014883EECFFC
:10090000EF01C00FD11F1D82CF01059615969C9354
:100910008E931497EF01C00FD11F4E815F816885C0
:100920007985065F1F4F3F01600E711E6801012E21
:10093000000CEE08FF08C40ED51EE61EF71E43018C
:100940008E1A9F0AA12CB12C8C149D04AE04BF04F6
:1009500040F4E30129913E01CE010297EC01288386
:10096000EECF400F511F9F01240F351FC901019782
:10097000EC011882C80101978E0F9F1F17969C9358
:100980008E931697E90188809980AA80BB804C5F7E
:100990005F4F3F01640E751E8A01052E000C220B6D
:1009A000330B080D191D2A1D3B1D6301CE1ADF0AEA
:1009B000E12CF12CC016D106E206F30640F4E30167
:1009C00069913E01CE010297EC016883EECFCA0126
:1009D000880D991D8F01080F191F980121503109A9
:1009E000E9011882BA0161507109E60FF71F1996E3
:1009F000FC93EE931897F8012181428150E060E06A
:100A000070E0BA0155274427522B2081422B2381C5
:100A1000722B1A964D935D936D937C931D9704965C
:100A2000DF91CF911F910F91FF90EF90DF90CF90CA
:100A3000BF90AF909F908F907F906F90089582EDC0
:100A400093E0089583EF93E00895FC01DB014C915E
:100A500050E060E070E042835383648375831196B5
:100A60008C911197582B428353836483758312961C
:100A70008C911297682B42835383648375831396FA
:100A80008C911397782B42835383648375831496D8
:100A90004C91149750E060E070E046835783608784
:100AA000718715968C911597582B468357836087CD
:100AB000718716968C911697682B468357836087AB
:100AC000718717968C91782B46835783608771873F
:100AD00088E090E00895DC01FB0112968C9112975A
:100AE000808313968C911397818314968C9114971D
:100AF000828315968C911597838316968C91169701
:100B0000848317968C911797858318968C911897E4
:100B1000868319968C91878388E090E008958F9260
:100B20009F92AF92BF92CF92DF92EF92FF920F937C
:100B30001F93FC01DB01C380C294C69427E0C2224C
:100B40008C2C912CA12CB12C8D929D92AD92BC92AB
:100B50001397C480D12CE12CF12C33E0CC0CDD1C9C
:100B6000EE1CFF1C3A95D1F7C828D928EA28FB28A3
:100B7000CD92DD92ED92FC921397058110E020E07A
:100B800030E04BE0000F111F221F331F4A95D1F7B1
:100B9000C02AD12AE22AF32ACD92DD92ED92FC926C
:100BA000139706810F7010E020E030E053E1000F52
:100BB000111F221F331F5A95D1F70C291D292E29E9
:100BC0003F290D931D932D933C9313978681829516
:100BD0008F7047814F7750E060E070E094E0440F01
:100BE000551F661F771F9A95D1F7482B4115510560
:100BF00061057105A1F0405853406109710997E101
:100C0000440F551F661F771F9A95D1F7402B512B24
:100C1000622B732B4D935D936D937C931397478158
:100C2000407850E060E070E0742F66275527442735
:100C30000D911D912D913C911397402B512B622BBF
:100C4000732B4D935D936D937C93139788E090E0A5
:100C50001F910F91FF90EF90DF90CF90BF90AF90DA
:100C60009F908F900895EF92FF920F931F93CF93D1
:100C7000DF938C017B01BC016E5F7F4FC7010E9437
:100C80008F05EC01B8016A5F7F4FC7018C0F9D1F74
:100C90000E948F05C80FD91FB801665F7F4FC7013B
:100CA0008C0F9D1F0E948F058C0F9D1FDF91CF9190
:100CB0001F910F91FF90EF900895EF92FF920F9385
:100CC0001F93CF93DF937C01EB0102960E943306C2
:100CD0008C01BE01680F791FC70140960E94330640
:100CE000800F911FDF91CF911F910F91FF90EF9097
:100CF00008950F931F93CF93DF938C01EC012696F9
:100D0000CE010E945D06D8019496ED91FC919597D5
:100D1000CE01DF91CF911F910F9119948F929F92E5
:100D2000AF92BF92CF92DF92EF92FF920F931F93F9
:100D3000CF93DF93EC01CB01BA018B019C0147E11A
:100D400035952795179507954A95D1F711272227AD
:100D50003327011511052105310521F000581C4FDD
:100D60002F4F3F4F188219821A826B017C0145E098
:100D7000CC0CDD1CEE1CFF1C4A95D1F7CB826B011D
:100D80007C0153E0F594E794D794C7945A95D1F732
:100D9000CC826B017C01EBE0F594E794D794C79487
:100DA000EA95D1F7CD8268017901F4E0CC0CDD1C25
:100DB000EE1CFF1CFA95D1F74B015C01A3E1B59441
:100DC000A79497948794AA95D1F7482D4F70C42A79
:100DD000CE8268017901B4E0F594E794D794C79482
:100DE000BA95D1F720E030E0A9010E943E1587FDB9
:100DF00002C0CF8203C00C2D00680F8388E090E012
:100E0000DF91CF911F910F91FF90EF90DF90CF90E6
:100E1000BF90AF909F908F900895EF92FF920F93A5
:100E20001F93CF93DF937C018B01FC01428153819F
:100E300064817581C8010E948E06EC01F70146812C
:100E4000578160857185C8018C0F9D1F0E948E0699
:100E5000C80FD91FF7014285538564857585C80180
:100E60008C0F9D1F0E948E068C0F9D1FDF91CF91CE
:100E70001F910F91FF90EF900895EF92FF920F93C3
:100E80001F93CF93DF937C01EB0102960E940D0725
:100E90008C01BE01680F791FC70140960E940D07A3
:100EA000800F911FDF91CF911F910F91FF90EF90D5
:100EB00008950F931F93CF93DF93CDB7DEB72A9793
:100EC0000FB6F894DEBF0FBECDBF8C0182E392E077
:100ED0009A8389831B821C821D821E821F82188630
:100EE00019861A86D801ED91FC910190F081E02DD0
:100EF000AE014F5F5F4F6AE070E0C80119950E9434
:100F00004710F80160877187828793872A960FB60A
:100F1000F894DEBF0FBECDBFDF91CF911F910F912F
:100F200008954F925F926F927F928F929F92AF92AD
:100F3000BF92CF92DF92EF92FF92CF93DF93EC01BB
:100F40000E9447106093D9047093DA048093DB0405
:100F50009093DC0481E090E090930F0480930E0462
:100F60004C805D806E807F802CE53FE842E45DE34D
:100F70006A8D7B8D8C8D9D8D0E94A2166B017C01EC
:100F800061E088E10E94A00E61E089E10E94A00E6C
:100F9000A7019601C301B2010E94D1144B015C016B
:100FA000A3019201C701B6010E94D2146B017C011A
:100FB00020E030E0A901C501B4010E949D16181679
:100FC00024F0C501B401905802C0C501B4012AE063
:100FD00037ED43E25EE30E949D161816C4F52AE041
:100FE00037ED43E25EE3C701B6010E94A2166B0132
:100FF0007C0120E030E0A901C501B4010E949D16EA
:10100000A501940118160CF05058C701B6010E94B2
:1010100043156B017C012AE037ED43E25EE3C50135
:10102000B4010E94A2162B013C0120E030E0A9018E
:10103000C501B4010E949D16A501940118160CF07B
:101040005058C301B2010E9443154B015C0120E0DE
:1010500030E0A901C701B6010E949D16181624F0C0
:10106000C701B601905802C0C701B6012AE037EDAA
:1010700043E25EE30E949D161816C4F52AE037EDA0
:1010800043E25EE3C501B4010E94A2164B015C017C
:1010900020E030E0A901C701B6010E949D16A7011A
:1010A000960118160CF05058C501B4010E94431562
:1010B0004B015C012AE037ED43E25EE3C701B60174
:1010C0000E94A2162B013C0120E030E0A901C701DB
:1010D000B6010E949D16A701960118160CF05058F3
:1010E000C301B2010E9443156B017C0180920A0486
:1010F00090920B04A0920C04B0920D04C0921004C4
:10110000D0921104E0921204F0921304DF91CF9177
:10111000FF90EF90DF90CF90BF90AF909F908F9017
:101120007F906F905F904F9008950E94F8174F92B4
:101130005F926F927F928F929F92AF92BF92CF9267
:10114000DF92EF92FF920F931F93CF93DF93EC0107
:101150007B01DB011C918A81811750F4B4E01B9F55
:10116000B00111248F8198850E940F1798878F8373
:101170001A83F701379680E024E030E06E0193E0B7
:10118000C90ED11C9A8189010C5F1F4F891790F5F8
:10119000408150E060E070E0742F662755274427B7
:1011A0009F0123503109D9019C91492B2F5F3F4F5B
:1011B000D9019C91592B2F5F3F4FD9019C91692BED
:1011C0004B835C836D837E8398014F815885B4E0A7
:1011D0008B9F400D511D1124D6018D909D90AD9097
:1011E000BC90DA018D929D92AD92BC9213978F5F65
:1011F0003496C8CFF701E20FF31FB08089858B15B5
:1012000050F4B4E0BB9EB00111248E859F850E94EE
:101210000F179F878E87B98640E0BE01665F7F4FBC
:101220008985F701E00FF11F0C5F1F4F481720F56C
:101230005181828190E0A0E0B0E0DC01992788270D
:10124000952B5081852B2381B22B8A879B87AC8776
:10125000BD87AE85BF85E4E04E9FA00DB11D112472
:10126000FB0180809180A280B3808D929D92AD928F
:10127000BC9213974F5FD4CFB08088898B1550F400
:101280006B2D70E0660F771F8B899C890E940F176A
:101290009C8B8B8BB88A90E06E01F1E1CF0ED11C54
:1012A0008889981708F045C0F701E00FF11F4081C9
:1012B00051816281738198012C5F3F4FF701E20FEA
:1012C000F31F4901032E000CAA08BB08840E951ECB
:1012D000A61EB71E8F010E191F092801612C712C43
:1012E000481459046A047B0438F481918F01025038
:1012F0001109D8018C93EECF420F531FF701E40F71
:10130000F51F31971082215031092E0D3F1D3A8B68
:10131000298B8A012B898C89E22FF82FE90FF11D87
:10132000E90FF11DD6012D913C91318320839F5F00
:10133000B7CFC801DF91CF911F910F91FF90EF9030
:10134000DF90CF90BF90AF909F908F907F906F90E5
:101350005F904F9008952F923F924F925F926F92BD
:101360007F928F929F92AF92BF92CF92DF92EF9235
:10137000FF920F931F93CF93DF93CDB7DEB7A8975C
:101380000FB6F894DEBF0FBECDBF8C010E94471090
:101390002B013C01980129573B4F3C8B2B8BF901CA
:1013A00080819181A281B381A3019201281B390B15
:1013B0004A0B5B0BDA01C901893F9A42A105B105CD
:1013C00010F035971082780148E8E41A4BEFF40AE0
:1013D000D7018D919C91892B79F0F801E557FB4F4E
:1013E00080819181A281B38184159505A605B705F9
:1013F00018F4F70111821082980120583B4F388B66
:101400002F87A80144585B4F5A8B498BC8014496DB
:101410009E8B8D8BD801AE57BB4FBA8FA98FF80129
:10142000E057FB4FF8A3EF8F215F3F4F3AA329A36B
:10143000180136E8231A3BEF330A4E5F5F4F588F8F
:101440004F8B89589B4F9CA38BA3A30192012C5EC9
:101450003F4F4F4F5F4F2DA33EA34FA358A7D80137
:1014600012968D919C911397DC01ED91FC91028471
:10147000F385E02D19959C0197FD77C2EF85F889DA
:1014800080819181820F931F91838083D7014D9139
:101490005C9147305105C9F4EF89F88D80819181C5
:1014A000AC014F5F5F4F51834083F801E80FF91F94
:1014B000248BD1018D919C91119701978D939C93D1
:1014C000892B69F688E090E033C04115510541F55C
:1014D0002F3F310589F481E090E0D7018D939C93F3
:1014E0002DA13EA14FA158A5ABA1BCA12D933D9329
:1014F0004D935C931397B3CF0E944710DC01CB014F
:1015000084199509A609B7090697A105B10508F43C
:10151000A6CFF801EE57FB4F10828EEF9FEF4DC222
:1015200041305105A9F42E3F310531F482E090E0BD
:10153000F7019183808393CFD7011D921C92E98D8F
:10154000FA8D808181118BCFC8010E94590787CF06
:101550004230510589F4D1012D933C93EF89F88DE8
:101560001182108283E090E0D7018D939C93EF85E8
:10157000F8893183208373CF4330510569F4322FCA
:101580002227D1018D919C911197280F391F2D93FE
:101590003C9384E090E0CCCF4430510589F460E086
:1015A00071E00E9446148F3F910531F485E090E090
:1015B000D7018D939C9353CFF701118210824FCFA7
:1015C0004530510571F4A989BA892D933C9386E081
:1015D00090E0F70191838083AF85B8892D933C9388
:1015E0003ECF4630510599F4322F2227E989FA89F6
:1015F00080819181280F391F3183208387E090E01B
:10160000D7018D939C93F1018081918159CF48300E
:10161000510509F024CFD7011D921C9260E071E0C2
:101620000E9446148F3F910509F019CFE989FA8984
:1016300080819181009709F0C7C0C8010E945907B5
:1016400086E292E09A8389831C821B828BE093E07E
:101650009E838D8398878F839A8789871B861C86B4
:101660001D861E865801FCEEAF1AFBEFBF0A68010B
:101670002AEBC21A2BEFD20AD501ED91FC913097DB
:10168000D9F1848195819C838B83808191819E8314
:101690008D8382819381DC01ED91FC910480F58141
:1016A000E02D199598878F83D501ED91FC9182816A
:1016B0009381DC01ED91FC910680F781E02D199575
:1016C0009A87898720E032E040E050E02B873C8712
:1016D0004D875E87D8018D919C91F501A081B181E4
:1016E00018966D917C911997DC01ED91FC91AE01FA
:1016F0004F5F5F4FC8011995B2E0AB0EB11CAC143F
:10170000BD0409F0B9CF812C92E0992EA12CB12C07
:10171000F601A081B1811097E1F112968D919C9113
:1017200013979C838B8314968D919C9115979E8320
:101730008D83ED91FC9111970480F581E02DCD0111
:10174000199598878F83D6018D919C91DC01ED913D
:10175000FC910680F781E02D19959A8789878B8601
:101760009C86AD86BE86D801ED91FC9120803180AB
:10177000F60180819181DC01ED91FC910280F38181
:10178000E02D1995AE014F5F5F4FBC01C801F1011B
:101790001995F2E0CF0ED11CCE14DF0409F0B8CFBA
:1017A000F801EE57FB4F81E08083319640825182F1
:1017B00062827382AB89BC894D925D926D927C92FC
:1017C00013978FEF9FEFF9C08A30910509F0A2C0FF
:1017D00082E392E09A8389831B821C821D821E828F
:1017E0001F82188619861A860E944710F801808485
:1017F0009184A284B3849B01AC01281939094A0958
:101800005B0949015A016D897E89CE0101960E94CA
:101810002505C501B40128EE33E040E050E00E9408
:101820005A148B809C80AD80BE80820E931EA41EB5
:10183000B51E8B829C82AD82BE829B01AC0160E4AE
:1018400072E48FE090E00E9436148F809884A9841F
:10185000BA84DC01CB01880D991DAA1DBB1D8F83A5
:101860009887A987BA870E9447108F809884A98497
:10187000BA8436E3931A35E6A30A34ECB30A28EEA9
:1018800033E040E050E00E945A142B8F3C8F4D8F84
:101890005E8F9B01AC0160E472E48FE090E00E94F7
:1018A0003614A5019401261B370B480B590BCA01AE
:1018B000B9018B809C80AD80BE8031E0831A910895
:1018C000A108B1082B8D3C8D4D8D5E8D821A930A37
:1018D000A40AB50A20E03AEC4AE95BE30E945A14F4
:1018E000820E931EA41EB51ED8011C968D929D9249
:1018F000AD92BC921F97F801608B718B828B938B9A
:101900000E944710AB89BC896D937D938D939C9306
:101910001397A5CD8630910559F46D897E898F8DF9
:1019200098A10E94970881E0E9A1FAA1808397CD50
:101930008B30910521F4A98DBA8D1C9290CDFC01BC
:10194000E154FE4FEE0FFF1FE00FF11F80819181E8
:10195000009709F484CDDC01ED91FC910190F081B8
:10196000E02D6D897E8919957ACDF801EE57FB4FF0
:101970008081882301F17801BDE7EB1ABBEFFB0AF8
:10198000F70180819181A281B381A3019201281B7B
:10199000390B4A0B5B0BDA01C901853C9940A10563
:1019A000B10548F0C8010E945907D7014D925D92D8
:1019B0006D927C92139780E090E0A8960FB6F89411
:1019C000DEBF0FBECDBFDF91CF911F910F91FF9072
:1019D000EF90DF90CF90BF90AF909F908F907F90CF
:1019E0006F905F904F903F902F900895BF92CF924D
:1019F000DF92EF92FF920F931F93CF93DF93EC014F
:101A00008B018A81FB018083118212821382DB01A8
:101A1000179680E0E4E0F0E09A819F012C5F3F4F51
:101A20008917B8F4EF81F88594E0899FE00DF11DE6
:101A300011247081518142819381FD01339770831C
:101A400031965083319640839C93F9018F5F1496B1
:101A5000E3CF8985E00FF11F808311821282138208
:101A600080E09985F801E20FF31F2C5F3F4F891743
:101A7000B0F4AE85BF8594E0899FA00DB11D1124FF
:101A80006C9111965C91119712964C911297139646
:101A90009C9160835183428393838F5FE2CF8889D7
:101AA000808311821282C9011382B12C2889B21657
:101AB00090F5EB2DF0E0EE0FFF1FAB89BC89AE0F68
:101AC000BF1F2D913C91D9010D900020E9F711978E
:101AD0006D01C21AD30AD801A80FB91FA60160E090
:101AE00070E04D935D936D937C9313977C0124E09C
:101AF000E20EF11C8B899C89E80FF91F60817181CE
:101B0000A601C8018E0D9F1D0E94FD17C6018E0DF6
:101B10009F1DB394CBCFDF91CF911F910F91FF9079
:101B2000EF90DF90CF90BF900895CF93DF93DC01CB
:101B3000FB0112968C911297808313968D919C9144
:101B40001497EC0109900020E9F72197C81BD90BE5
:101B5000AE0160E070E04183528363837483139627
:101B60006D917C911497AE01CF0105960E94FD17EF
:101B7000CE010596DF91CF910895CF92DF92EF923B
:101B8000FF920F931F93CF93DF937C01EB01FC0136
:101B90008281888383818983A481B581FD0101903D
:101BA0000020E9F731976F01CA1ADB0AC601A0E0ED
:101BB000B0E08A839B83AC83BD83F7016481758128
:101BC000A601CE0106960E94FD17F701A681B781F6
:101BD000FD0101900020E9F731978F010A1B1B0BD3
:101BE000FE01EC0DFD1DC801A0E0B0E086839783E7
:101BF000A087B187FAE0CF0ED11CF701668177810B
:101C0000A801CE018C0D9D1D0E94FD170C0D1D1D00
:101C1000F701A085B185FD0101900020E9F731971A
:101C20006F01CA1ADB0AFE01E00FF11FC601A0E036
:101C3000B0E080839183A283B3830C5F1F4FF701D1
:101C400060857185A601CE01800F911F0E94FD174E
:101C50000C0D1D1DF7014285238594858585C00FD8
:101C6000D11F488329839A838B83C8010496DF910F
:101C7000CF911F910F91FF90EF90DF90CF9008953B
:101C80001F920F920FB60F9211240BB60F922F9343
:101C90003F934F935F936F937F938F939F93AF93F4
:101CA000BF93EF93FF9384E194E00E946602FF915B
:101CB000EF91BF91AF919F918F917F916F915F91C4
:101CC0004F913F912F910F900BBE0F900FBE0F9031
:101CD0001F9018951F920F920FB60F9211240BB6FA
:101CE0000F922F938F939F93EF93FF93E091240490
:101CF000F09125048081E0912A04F0912B0482FD6B
:101D000012C0908180912D048F5F8F7320912E04DB
:101D1000821751F0E0912D04F0E0EC5EFB4F958FBF
:101D200080932D0401C08081FF91EF919F918F914D
:101D30002F910F900BBE0F900FBE0F901F90189514
:101D4000362F90E0FC01EE5CFC4F4491FC01E45125
:101D5000FD4F2491FC01EA55FD4F9491992309F41C
:101D60006BC0442309F455C050E0FA013197E231C9
:101D7000F10508F04EC08827EE58FF4F8F4F0C94A6
:101D80009B14809180008F7707C0809180008F7DA9
:101D900003C080918000877F809380003AC084B523
:101DA0008F7702C084B58F7D84BD33C08091B00031
:101DB0008F7703C08091B0008F7D8093B00029C0E1
:101DC000809190008F7707C0809190008F7D03C035
:101DD00080919000877F809390001BC08091A0002D
:101DE0008F7707C08091A0008F7D03C08091A000F5
:101DF000877F8093A0000DC0809120018F7707C05E
:101E0000809120018F7D03C080912001877F809386
:101E10002001E92FF0E0EE0FFF1FE457FD4FA591E1
:101E2000B4918FB7F894EC91311103C020952E2313
:101E300001C02E2B2C938FBF0895CF93DF9390E09A
:101E4000FC01E451FD4F2491FC01EA55FD4F8491C2
:101E5000882361F190E0880F991FFC01EE58FD4F37
:101E6000C591D491FC01E457FD4FA591B491611146
:101E700009C09FB7F8948881209582238883EC91CC
:101E80002E230BC0623061F49FB7F8943881822F03
:101E9000809583238883EC912E2B2C939FBF06C0C3
:101EA0008FB7F894E8812E2B28838FBFDF91CF91D5
:101EB00008951F93CF93DF93182FEB0161E00E94E9
:101EC0001D0F209711F460E004C0CF3FD10539F415
:101ED00061E0812FDF91CF911F910C94A00EE12F33
:101EE000F0E0EE5CFC4FE4914E2F50E0FA013197A8
:101EF000E231F10508F09DC08827EC57FF4F8F4F66
:101F00000C949B1484B5806884BDC7BD97C084B50C
:101F1000806284BDC8BD92C080918000806880933B
:101F20008000D0938900C093880088C08091800091
:101F3000806280938000D0938B00C0938A007EC023
:101F400080918000886080938000D0938D00C09342
:101F50008C0074C08091B00080688093B000C09302
:101F6000B3006CC08091B00080628093B000C093D9
:101F7000B40064C080919000806880939000D093FA
:101F80009900C09398005AC080919000806280931D
:101F90009000D0939B00C0939A0050C08091900015
:101FA000886080939000D0939D00C0939C0046C0B1
:101FB0008091A00080688093A0008091A0008F7B1A
:101FC0008093A000D093A900C093A80037C080914F
:101FD000A00080628093A000D093AB00C093AA00C1
:101FE0002DC08091A00088608093A000D093AD00A8
:101FF000C093AC0023C080912001806880932001B1
:10200000D0932901C093280119C0809120018062DA
:1020100080932001D0932B01C0932A010FC080919F
:102020002001886080932001D0932D01C0932C0162
:1020300005C0C038D1050CF04BCF45CFDF91CF9113
:102040001F9108953FB7F89480918709909188096E
:10205000A0918909B0918A0926B5A89B05C02F3F98
:1020600019F00196A11DB11D3FBFBA2FA92F982FBE
:102070008827820F911DA11DB11DBC01CD0142E039
:10208000660F771F881F991F4A95D1F708952FB7BC
:10209000F8946091830970918409809185099091E9
:1020A00086092FBF08951F920F920FB60F92112429
:1020B0002F933F938F939F93AF93BF938091830907
:1020C00090918409A0918509B09186093091820987
:1020D00023E0230F2D3720F40196A11DB11D05C06B
:1020E00026E8230F0296A11DB11D2093820980933B
:1020F000830990938409A0938509B0938609809100
:10210000870990918809A0918909B0918A0901965F
:10211000A11DB11D8093870990938809A093890917
:10212000B0938A09BF91AF919F918F913F912F9169
:102130000F900FBE0F901F901895CF92DF92EF92E5
:10214000FF920F931F93E82FF92F05C0015011093B
:102150002109310961F1908196239417B9F305C0E3
:10216000015011092109310911F19081962394132D
:10217000F7CFC12CD12CE12CF12C0AC08FEFC81A5B
:10218000D80AE80AF80A0C151D052E053F0579F056
:1021900080818623841791F36C2D7D2D8E2D9F2DAC
:1021A0001F910F91FF90EF90DF90CF90089560E026
:1021B00070E080E090E01F910F91FF90EF90DF9032
:1021C000CF900895789484B5826084BD84B5816091
:1021D00084BD85B5826085BD85B5816085BD8091F2
:1021E0006E00816080936E0010928100809181006A
:1021F0008260809381008091810081608093810062
:10220000809180008160809380008091B100846023
:102210008093B1008091B00081608093B000809184
:102220009100826080939100809191008160809301
:102230009100809190008160809390008091A10036
:1022400082608093A1008091A10081608093A100B1
:102250008091A00081608093A00080912101826024
:1022600080932101809121018160809321018091DF
:10227000200181608093200180917A0084608093A6
:102280007A0080917A00826080937A0080917A004F
:10229000816080937A0080917A00806880937A00D0
:1022A0001092C10061E087E00E941D0F61E088E1AB
:1022B0000E941D0F61E086E00E941D0F61E083E037
:1022C0000E941D0F61E089E10E941D0F61E082E024
:1022D0000E941D0F61E087E10E941D0F60E086E112
:1022E0000E941D0F61E08DE00E941D0FC090E1046F
:1022F000D090E204E090E304F090E404C091DF04A5
:10230000D091E00460E079E08DE390E0A7019601D0
:102310000E945A14DA01C9010197A109B109B695C1
:10232000A795979587959C01E889F98982E0808334
:10233000C11481EED806E104F10421F02115E0E199
:102340003E07A8F0E889F989108260E874E88EE118
:1023500090E0A70196010E945A14DA01C901019781
:10236000A109B109B695A795979587959C01EC852C
:10237000FD853083EE85FF852083188EEC89FD89ED
:1023800086E08083EA89FB89808180618083EA8995
:10239000FB89808188608083EA89FB8980818068ED
:1023A0008083EA89FB8980818F7D80831092560922
:1023B00010925509109258091092570910925C0911
:1023C00010925B0910925A0910925909E3E2F9E060
:1023D00080E090E021913191232B81F4FC01EE0FFC
:1023E000FF1FED5DF64F21EB34E0318320838C59E4
:1023F0009F4F9093B4048093B30404C00196893135
:10240000910541F710920F0410920E0423E0222E42
:10241000312CC3E2D0E08DED94E00E94AB090E9424
:1024200047102091D9043091DA04621B730B653F89
:10243000714024F010920F0410920E0460E087E1C6
:102440000E94A00EC1010197F1F761E087E10E94AF
:10245000A00ECE010197F1F760E087E10E94A00E87
:10246000E2E0F3E06491ECEBF2E08491E82FF0E03D
:10247000EE0FFF1FE85AFD4F8591949100E412E49E
:102480002FE030E0462F0E949D10611571058105F7
:10249000910549F0DC01CB010196A11DB11DBC01E4
:1024A000CD019F7003C060E070E0CB012AE330E013
:1024B00040E050E00E947C14CA01B9010E94ED1571
:1024C0006B017C0120E030E040E751E40E943E15C2
:1024D00087FD24C020E030E040EF51E4C701B601A1
:1024E0000E943E1587FF0FC061E08DE00E94A00EA4
:1024F00020E030E040EF51E4C701B6010E944315EF
:102500006B017C010EC060E08DE00E94A00EC12C2A
:10251000D12C80E8E82E8FE3F82E03C0C12CD12CFB
:10252000760160910E0470910F04072E000C880B49
:10253000990B0E94ED152B013C0120911004309164
:1025400011044091120450911304C701B6010E9476
:10255000A216A30192010E94A2164B015C012091D8
:102560000A0430910B0440910C0450910D04C701F2
:10257000B6010E94A216A30192010E94A2166B014D
:102580007C0120E030E0A9010E949D1687FD16C065
:1025900020E030E04FE753E4C701B6010E94A216E5
:1025A0002AE037ED43E25EE30E9443150E94B51531
:1025B00086E00E94590F60E070E015C060E070E0B6
:1025C00086E00E94590F20E030E04FE753ECC7014E
:1025D000B6010E94A2162AE037ED43E25EE30E94B4
:1025E00043150E94B51587E00E94590F20E030E0A6
:1025F000A901C501B4010E949D1687FD16C020E007
:1026000030E04FE753E4C501B4010E94A2162AE06E
:1026100037ED43E25EE30E9443150E94B51582E068
:102620000E94590F60E070E015C060E070E082E049
:102630000E94590F20E030E04FE753ECC501B40190
:102640000E94A2162AE037ED43E25EE30E944315A2
:102650000E94B51583E00E94590F0E9422106B0161
:102660007C010E942210DC01CB018C199D09AE096E
:10267000BF09883E9340A105B10598F30E94F0027E
:10268000CACE109217041092160488EE93E0A0E0D0
:10269000B0E08093180490931904A0931A04B093A7
:1026A0001B048AE492E090931504809314048DEC4B
:1026B00090E090932104809320048CEC90E0909320
:1026C00023048093220488EC90E090932504809367
:1026D000240489EC90E090932704809326048AECEC
:1026E00090E090932904809328048EEC90E09093DE
:1026F0002B0480932A0410922D0410922E04109221
:102700002F04109230048CE892E09093DE048093C2
:10271000DD0484E194E09093E0048093DF0480E0A2
:1027200091EEA0E0B0E08093E1049093E204A093E6
:10273000E304B093E40410925F0984E792E090937D
:102740006E0980936D0910926F09109275091092AD
:1027500074091092760910927C0910927B091092EC
:102760007D091092810910928009E1EFF8E0119241
:10277000119289E0E332F807D1F7E3E2F9E0119230
:10278000119289E0E535F807D1F7E1EFF4E0119215
:1027900086E0E13FF807D9F7E1EFF6E0119288E033
:1027A000E13FF807D9F70E9447106093D90470936E
:1027B000DA048093DB049093DC0486E992E0909342
:1027C000B2048093B10488E692E09093B8048093B9
:1027D000B7048CE592E09093BA048093B904109208
:1027E000BB041092BC041092BD041092BE0410925F
:1027F000BF041092C0041092C1041092C20410923F
:10280000C3041092C4041092C5041092C60490939D
:10281000C8048093C7041092C9041092CA0410928D
:10282000CB041092CC041092CD041092CE041092DE
:10283000CF041092D0041092D1041092D2041092BE
:10284000D3041092D40481E997E09093D604809346
:10285000D50481E090E09093D8048093D70481E080
:1028600094E09093B6048093B5040895DB018F93B0
:102870009F930E94A314BF91AF91A29F800D911DC1
:10288000A39F900DB29F900D1124089597FB072EE2
:1028900016F4009407D077FD09D00E94AE1407FC0F
:1028A00005D03EF4909581959F4F08957095619560
:1028B0007F4F0895A1E21A2EAA1BBB1BFD010DC07C
:1028C000AA1FBB1FEE1FFF1FA217B307E407F507E0
:1028D00020F0A21BB30BE40BF50B661F771F881FBC
:1028E000991F1A9469F760957095809590959B0152
:1028F000AC01BD01CF010895052E97FB1EF4009495
:102900000E94931457FD07D00E945A1407FC03D06D
:102910004EF40C94931450954095309521953F4F6B
:102920004F4F5F4F089590958095709561957F4FBB
:102930008F4F9F4F0895EE0FFF1F881F8BBF07908B
:10294000F691E02D19940E94C214A59F900DB49F9A
:10295000900DA49F800D911D11240895AA1BBB1BEF
:1029600051E107C0AA1FBB1FA617B70710F0A61B8F
:10297000B70B881F991F5A95A9F780959095BC01B0
:10298000CD010895A29FB001B39FC001A39F700D18
:10299000811D1124911DB29F700D811D1124911D67
:1029A00008955058BB27AA270E94E9140C94631677
:1029B0000E94551638F00E945C1620F039F49F3FB3
:1029C00019F426F40C9452160EF4E095E7FB0C94DF
:1029D0004C16E92F0E94741658F3BA176207730752
:1029E0008407950720F079F4A6F50C9496160EF45A
:1029F000E0950B2EBA2FA02D0B01B90190010C010F
:102A0000CA01A0011124FF27591B99F0593F50F426
:102A1000503E68F11A16F040A22F232F342F44277E
:102A2000585FF3CF469537952795A795F040539576
:102A3000C9F77EF41F16BA0B620B730B840BBAF046
:102A40009150A1F0FF0FBB1F661F771F881FC2F7B1
:102A50000EC0BA0F621F731F841F48F487957795C5
:102A60006795B795F7959E3F08F0B0CF9395880F7F
:102A700008F09927EE0F9795879508950E942816DC
:102A800008F481E008950E9457150C9463160E9483
:102A90005C1658F00E94551640F029F45F3F29F06B
:102AA0000C944C1651110C9497160C9452160E94CB
:102AB000741668F39923B1F3552391F3951B550BC5
:102AC000BB27AA2762177307840738F09F5F5F4F01
:102AD000220F331F441FAA1FA9F335D00E2E3AF040
:102AE000E0E832D091505040E695001CCAF72BD058
:102AF000FE2F29D0660F771F881FBB1F26173707A9
:102B00004807AB07B0E809F0BB0B802DBF01FF27DA
:102B100093585F4F3AF09E3F510578F00C944C1655
:102B20000C9497165F3FE4F3983ED4F3869577951F
:102B30006795B795F7959F5FC9F7880F911D969593
:102B4000879597F90895E1E0660F771F881FBB1FEF
:102B5000621773078407BA0720F0621B730B840B9C
:102B6000BA0BEE1F88F7E09508950E94BC15689493
:102B7000B1110C94971608950E947C1688F09F5707
:102B800098F0B92F9927B751B0F0E1F0660F771F91
:102B9000881F991F1AF0BA95C9F714C0B13091F087
:102BA0000E949616B1E008950C949616672F782F20
:102BB0008827B85F39F0B93FCCF38695779567954C
:102BC000B395D9F73EF490958095709561957F4FB8
:102BD0008F4F9F4F0895E89409C097FB3EF490955E
:102BE0008095709561957F4F8F4F9F4F9923A9F0E6
:102BF000F92F96E9BB279395F69587957795679575
:102C0000B795F111F8CFFAF4BB0F11F460FF1BC0B8
:102C10006F5F7F4F8F4F9F4F16C0882311F096E94B
:102C200011C0772321F09EE8872F762F05C06623F9
:102C300071F096E8862F70E060E02AF09A95660FB2
:102C4000771F881FDAF7880F9695879597F908956B
:102C5000990F0008550FAA0BE0E8FEEF16161706AD
:102C6000E807F907C0F012161306E407F50798F015
:102C7000621B730B840B950B39F40A2661F0232B2E
:102C8000242B252B21F408950A2609F4A140A695AA
:102C90008FEF811D811D089597F99F6780E870E08F
:102CA00060E008959FEF80EC089500240A941616C2
:102CB000170618060906089500240A94121613062A
:102CC000140605060895092E0394000C11F48823B8
:102CD00052F0BB0F40F4BF2B11F460FF04C06F5FD4
:102CE0007F4F8F4F9F4F089557FD9058440F551FAA
:102CF00059F05F3F71F04795880F97FB991F61F07E
:102D00009F3F79F087950895121613061406551FF4
:102D1000F2CF4695F1DF08C0161617061806991F60
:102D2000F1CF86957105610508940895E894BB2755
:102D300066277727CB0197F908950E94281608F493
:102D40008FEF08950E94B5160C9463160E945516D5
:102D500038F00E945C1620F0952311F00C944C166C
:102D60000C94521611240C9497160E94741670F34A
:102D7000959FC1F3950F50E0551F629FF001729F20
:102D8000BB27F00DB11D639FAA27F00DB11DAA1F2F
:102D9000649F6627B00DA11D661F829F2227B00D7C
:102DA000A11D621F739FB00DA11D621F839FA00D07
:102DB000611D221F749F3327A00D611D231F849F57
:102DC000600D211D822F762F6A2F11249F575040AE
:102DD0009AF0F1F088234AF0EE0FFF1FBB1F661F29
:102DE000771F881F91505040A9F79E3F510580F0F2
:102DF0000C944C160C9497165F3FE4F3983ED4F372
:102E0000869577956795B795F795E7959F5FC1F795
:102E1000FE2B880F911D9695879597F908956F92CF
:102E20007F928F929F92AF92BF92CF92DF92EF925A
:102E3000FF920F931F93CF93DF93EC01009789F4D8
:102E4000CB01DF91CF911F910F91FF90EF90DF9019
:102E5000CF90BF90AF909F908F907F906F900C9489
:102E60000618FC01E60FF71F9C0122503109E217FA
:102E7000F30708F4ACC0D9010D911C911197061706
:102E80001707B0F00530110508F49FC0C80104977A
:102E90008617970708F499C002501109061B170BF3
:102EA000019311936D937C93CF010E949B188DC069
:102EB0005B01A01AB10A4C01800E911EA0918D09F0
:102EC000B0918E0940E050E0E12CF12C109709F40C
:102ED0004AC0A815B905D1F56D907C901197630192
:102EE00082E0C80ED11CCA14DB0480F1A3014A1988
:102EF0005B096A0182E0C80ED11C1296BC90129741
:102F00001396AC91B5E0CB16D10440F0B282A38306
:102F100051834083D9016D937C930AC00E5F1F4F8C
:102F2000C301800F911FF90191838083EB2DFA2F4C
:102F3000E114F10431F0D7011396FC93EE9312974C
:102F400044C0F0938E09E0938D093FC08D919C9110
:102F500011974817590708F4AC017D0112960D909E
:102F6000BC91A02DB3CF80918B0990918C098815CD
:102F70009905E1F446175707C8F480910002909133
:102F80000102009741F48DB79EB740910402509121
:102F90000502841B950BE817F907C8F4F0938C0918
:102FA000E0938B09F901718360830FC0CB010E940C
:102FB00006187C01009759F0A801BE010E94FD1778
:102FC000CE010E949B18C70104C0CE0102C080E060
:102FD00090E0DF91CF911F910F91FF90EF90DF90E4
:102FE000CF90BF90AF909F908F907F906F900895FB
:102FF00081E090E0F8940C943319FB01DC0102C0ED
:1030000001900D9241505040D8F70895CF93DF932F
:103010008230910510F482E090E0E0918D09F0910A
:103020008E0920E030E0C0E0D0E0309711F140811F
:10303000518148175907C0F04817590761F4828138
:103040009381209719F09B838A832BC090938E09DC
:1030500080938D0926C02115310519F042175307B9
:1030600018F49A01BE01DF01EF010280F381E02D27
:10307000DCCF2115310509F1281B390B243031052E
:1030800090F412968D919C9113976115710521F022
:10309000FB019383828304C090938E0980938D09F2
:1030A000FD01329644C0FD01E20FF31F819391931D
:1030B000225031092D933C933AC020918B093091D5
:1030C0008C09232B41F420910202309103023093AA
:1030D0008C0920938B092091000230910102211567
:1030E000310541F42DB73EB74091040250910502DD
:1030F000241B350BE0918B09F0918C09E217F30743
:10310000A0F42E1B3F0B2817390778F0AC014E5F57
:103110005F4F2417350748F04E0F5F1F50938C09FF
:1031200040938B098193919302C0E0E0F0E0CF01DE
:10313000DF91CF9108950F931F93CF93DF93009763
:1031400009F48CC0FC0132971382128200918D0920
:1031500010918E090115110581F420813181820FB2
:10316000931F20918B0930918C092817390779F525
:10317000F0938C09E0938B0971C0D80140E050E0D6
:10318000AE17BF0750F412962D913C911397AD01E5
:103190002115310509F1D901F3CF9D01DA013383FE
:1031A000228360817181860F971F8217930769F4CC
:1031B000EC0128813981260F371F2E5F3F4F318365
:1031C00020838A819B8193838283452B29F4F0930A
:1031D0008E09E0938D0942C01396FC93EE931297EB
:1031E000ED01499159919E01240F351FE217F30714
:1031F00071F480819181840F951F029611969C93A2
:103200008E938281938113969C938E931297E0E024
:10321000F0E0D80112968D919C911397009719F0C8
:10322000F8018C01F6CF8D919C9198012E5F3F4F54
:10323000820F931F20918B0930918C092817390731
:1032400069F4309729F410928E0910928D0902C00A
:103250001382128210938C0900938B09DF91CF9116
:0A3260001F910F910895F894FFCF1D
:10326A0000008F098000726F7373657269616C5F09
:10327A006D7367732F5265717565737450617261EE
:10328A006D0000000000BD0D430440043D04000031
:10329A0000006B05250522051F0500000000950D9D
:1032AA00FB03F803F503000000008702F0011F0288
:1032BA00CE0250022E024202000000000D07330621
:1032CA00EC03E903000000003D075D06E603E303A3
:1032DA0000000000F60C9708F203EF03000000005C
:1032EA009508950895089508000000003803AB0971
:1032FA002903000000007906340331032E033966DE
:10330A003139356638383132343666646661323777
:10331A0039386431643365656263613834610067E2
:10332A00656F6D657472795F6D7367732F54776912
:10333A007374004D6573736167652066726F6D20E3
:10334A006465766963652064726F707065643A209B
:10335A006D657373616765206C617267657220744D
:10336A0068616E206275666665722E003461383453
:10337A00326236356634313330383464633262311E
:10338A003066623438346561376631370067656F95
:10339A006D657472795F6D7367732F566563746FA9
:1033AA0072330039663065393862646136353938C6
:1033BA003139383664646635336166613761343071
:1033CA0065343900313161626437333163323539FA
:1033DA0033333236316364363138336264313264BE
:1033EA003632393500726F7373657269616C5F6D5D
:1033FA007367732F4C6F67003061643531663838F4
:10340A0066633434383932663863313036383430AA
:10341A00373736343630303500726F7373657269F8
:10342A00616C5F6D7367732F546F706963496E6661
:10343A006F00636437313636633734633535326348
:10344A00333131666263633266653561376263328E
:10345A003839007374645F6D7367732F54696D65CF
:0A346A00002F636D645F76656C004F
:00000001FF
