:100000000C94BD010C94EE010C94EE010C94EE01E5
:100010000C94EE010C94EE010C94EE010C94EE01A4
:100020000C94EE010C94EE010C94EE010C94EE0194
:100030000C94EE010C94EE010C94EE010C94EE0184
:100040000C94EE010C94EE010C94EE010C94EE0174
:100050000C94490E0C94EE010C94EE010C943310A8
:100060000C94EE010C94EE010C94EE010C94EE0154
:100070000C94EE010C94EE010C94EE010C94EE0144
:100080000C94EE010C94EE010C94EE010C94EE0134
:100090000C94130E0C94E90D0C94EE010C94EE01EB
:1000A0000C94EE010C94EE010C94EE010C94EE0114
:1000B0000C94EE010C94EE010C94EE010C94EE0104
:1000C0000C94EE010C94EE010C94EE010C94EE01F4
:1000D0000C94EE010C94EE010C94EE010C94EE01E4
:1000E0000C94EE01A60EA90E980E9C0EA00EE00E2A
:1000F000AD0EB10EB70EBB0EBF0EC50EC90ECD0EA6
:10010000E00ED30ED70EDB0E480F4E0F540F600FCC
:100110006C0FFB0F780F810F8A0F960FA20FAE0F97
:10012000BF0FCB0FFB0FD70FE30FEF0F0C94AB07F5
:100130000C9429030C9477120C94CE020C94F001C9
:100140000C941F050C94AD0E0C9431030C94BF0F4E
:100150000C94D70E0C9440040C94BF0E0C94F8032E
:100160000C9443040C94E6030C94E3030C94780F72
:100170000C944E0F0C94600F0C949C0E0C94810FF9
:100180000C94D70F0C94C50E0C941F020C94EF0F17
:100190000C94CD0E0C94BB0E0C943D070C94A60E43
:1001A0000C9434030C940D070C94DB0E0C946B052B
:1001B0000C946C0F0C94B70E0C9479060C944202BC
:1001C0000C94480F0C9440080C94CB0F0C943E0DEB
:1001D0000C9454090C94FB0F0C94660D0C94EC03D6
:1001E0000C943D040C94980E0C9425050C94F20389
:1001F0000C9471070C94E00E0C94B10E0C94F50362
:100200000C94E9030C9438030C945D060C94EF03F2
:100210000C948A0F0C94C90E0C94A20F0C94960F98
:100220000C94A90E0C9487020C94A00E0C94E30F6E
:100230000C942E020C94540F0C9450020C94D30E78
:100240000C9422050C94FB030C94AE0F0C942E031B
:100250000C949F0C0C943306000020002300260011
:1002600029002C002F0032000001000003010601CC
:10027000090100002100240027002A002D00300081
:10028000330001010000040107010A0100002200FF
:10029000250028002B002E00310034000201000050
:1002A000050108010B0105050505070508080808F3
:1002B000020202020A0A08080404040401010101FE
:1002C00001010101030303030303030304070707F9
:1002D0000C0C0C0C0C0C0C0C02020202060606069E
:1002E000060606060B0B0B0B0B0B0B0B010210206B
:1002F000200808102040102040800201020108045C
:1003000002010102040810204080804020100804EF
:100310000201800402018040201008040201080448
:10032000020101020408102040800102040810208C
:10033000408000000A0B02090C0D0E08070304019F
:1003400000000000000000000000000000000000AD
:10035000000000000000000000000000000012117A
:10036000100000000000000000000000000000007D
:100370000000000000000000771211241FBECFEF24
:10038000D1E2DEBFCDBF00E00CBF14E0A0E0B2E0E0
:10039000E2EAFCE200E00BBF02C007900D92AA3037
:1003A000B107D9F729E0AAE0B4E001C01D92A9384D
:1003B000B207E1F711E0CDEBD1E000E006C02197F4
:1003C0000109802FFE010E94C713CC3BD10780E0BA
:1003D0000807A9F70E94C2100C944F160C94000055
:1003E000CF92DF92EF92FF920F931F93CF93DF9301
:1003F0006C017A018B01C0E0D0E0CE15DF0589F0F9
:10040000D8016D918D01D601ED91FC910190F081A3
:10041000E02DC6011995892B11F47E0102C02196A9
:10042000ECCFC701DF91CF911F910F91FF90EF901B
:10043000DF90CF900895089580E090E00895FC014A
:10044000538D448D252F30E0842F90E0821B930B39
:10045000541710F0CF96089501970895FC01918DDF
:10046000828D981761F0828DDF01A80FB11D5D9616
:100470008C91928D9F5F9F73928F90E008958FEF84
:100480009FEF0895FC01918D828D981731F0828D38
:10049000E80FF11D858D90E008958FEF9FEF08958F
:1004A000FC01918D228D892F90E0805C9F4F821BF3
:1004B00091098F739927089582E194E00E94500278
:1004C00021E0892B09F420E0822F0895FC01848D1E
:1004D000DF01A80FB11DA35ABF4F2C91848D90E06E
:1004E00001968F739927848FA689B7892C93A08949
:1004F000B1898C9180648C93938D848D981306C000
:100500000288F389E02D80818F7D80830895EF92AA
:10051000FF920F931F93CF93DF93EC0181E0888FBD
:100520009B8D8C8D981305C0E889F989808185FDA4
:1005300024C0F62E0B8D10E00F5F1F4F0F73112795
:10054000E02E8C8DE8120CC00FB607FCFACFE889BC
:10055000F989808185FFF5CFCE010E946602F1CF37
:100560008B8DFE01E80FF11DE35AFF4FF0820B8FD8
:10057000EA89FB898081806207C0EE89FF896083F8
:10058000E889F98980818064808381E090E0DF914F
:10059000CF911F910F91FF90EF900895CF93DF932C
:1005A000EC01888D8823C9F0EA89FB89808185FD6B
:1005B00005C0A889B9898C9186FD0FC00FB607FCCC
:1005C000F5CF808185FFF2CFA889B9898C9185FF0D
:1005D000EDCFCE010E946602E7CFDF91CF91089563
:1005E00080E090E0892B41F080E090E0892B21F0C1
:1005F0000E940000811121C080E090E0892B21F051
:100600000E945C0281111CC080E090E0892B41F0C7
:1006100080E090E0892B21F00E940000811113C03E
:1006200080E090E0892BA1F080E090E0892B81F0C0
:100630000E94000081110AC008950E940000DCCFD2
:100640000E940000E1CF0E940000EACF0C9400005D
:100650000895FC01EE57FB4F808108958EE992E0EA
:1006600008958FEB92E00895FC0186A197A108956B
:100670008F929F92AF92BF92CF92DF92EF92FF92B2
:100680000F931F93CF93DF9300D01F921F92CDB78C
:10069000DEB78C016B0164E6C616D1043CF0FC01A8
:1006A000EE57FB4F8081882309F478C0DA01ED9181
:1006B000FC910190F081E02DB801655E7D4FCA018B
:1006C00019959C017801BCEEEB1ABDEFFB0A4FEFC8
:1006D000F70140834EEF3196408331968083319607
:1006E00090833196890F809580833196C082D8019E
:1006F000A65EBD4FDC9265E070E040E050E0C901CD
:1007000007966817790730F4A1914A0F511D6F5F62
:100710007F4FF7CF6901F8E0CF0ED11C800F911FFA
:10072000FC01EC5EFD4F4095408341E0C41642E081
:10073000D406C1F056014701D80112968D919C91C3
:100740001397F40161914F01DC01ED91FC9101904F
:10075000F081E02D1995C4018E199F098C159D0516
:100760005CF31EC08EE392E09A83898383E08B83DF
:1007700083ED92E09D838C83D801ED91FC910190F3
:10078000F081E02DAE014F5F5F4F67E070E0C80180
:100790001995AA24AA94BB24BA9402C0A12CB12C06
:1007A000C5010F900F900F900F900F90DF91CF9198
:1007B0001F910F91FF90EF90DF90CF90BF90AF907F
:1007C0009F908F9008958EE992E008958FEB92E0CC
:1007D00008958CE093E008958DE293E0089583E41A
:1007E00093E0089586E092E0089584E693E008950A
:1007F00085E893E00895AF92BF92CF92DF92EF9297
:10080000FF920F931F93CF93DF935C01EB018881DD
:10081000F501828389819A81AB81BC81FB01359688
:100820006C017D0125E0C20ED11CE11CF11C8F0181
:10083000061B170B20E030E00C151D052E053F05AB
:1008400038F441919F0122503109E9014883EFCFEB
:10085000FB01E80FF91F14826C5F7F4FF501748371
:1008600063830596DF91CF911F910F91FF90EF90D9
:10087000DF90CF90BF90AF90089588E993E00895FE
:1008800089EB93E008956F927F928F929F92AF923F
:10089000BF92CF92DF92EF92FF920F931F93CF936D
:1008A000DF93DC01FB01808190E013969C938E9393
:1008B00012972181922B13969C938E93129702810B
:1008C0001381248135815B0186E0A80EB11C68018B
:1008D0007901C6E0CC0ED11CE11CF11CA5014E1B18
:1008E0005F0B60E070E04C155D056E057F0540F420
:1008F000E50149915E01CE010297EC014883EECFFC
:10090000EF01C00FD11F1D82CF01059615969C9354
:100910008E931497EF01C00FD11F4E815F816885C0
:100920007985065F1F4F3F01600E711E6801012E21
:10093000000CEE08FF08C40ED51EE61EF71E43018C
:100940008E1A9F0AA12CB12C8C149D04AE04BF04F6
:1009500040F4E30129913E01CE010297EC01288386
:10096000EECF400F511F9F01240F351FC901019782
:10097000EC011882C80101978E0F9F1F17969C9358
:100980008E931697E90188809980AA80BB804C5F7E
:100990005F4F3F01640E751E8A01052E000C220B6D
:1009A000330B080D191D2A1D3B1D6301CE1ADF0AEA
:1009B000E12CF12CC016D106E206F30640F4E30167
:1009C00069913E01CE010297EC016883EECFCA0126
:1009D000880D991D8F01080F191F980121503109A9
:1009E000E9011882BA0161507109E60FF71F1996E3
:1009F000FC93EE931897F8012181428150E060E06A
:100A000070E0BA0155274427522B2081422B2381C5
:100A1000722B1A964D935D936D937C931D9704965C
:100A2000DF91CF911F910F91FF90EF90DF90CF90CA
:100A3000BF90AF909F908F907F906F90089582EDC0
:100A400093E0089583EF93E00895FC01DB014C915E
:100A500050E060E070E042835383648375831196B5
:100A60008C911197582B428353836483758312961C
:100A70008C911297682B42835383648375831396FA
:100A80008C911397782B42835383648375831496D8
:100A90004C91149750E060E070E046835783608784
:100AA000718715968C911597582B468357836087CD
:100AB000718716968C911697682B468357836087AB
:100AC000718717968C91782B46835783608771873F
:100AD00088E090E00895DC01FB0112968C9112975A
:100AE000808313968C911397818314968C9114971D
:100AF000828315968C911597838316968C91169701
:100B0000848317968C911797858318968C911897E4
:100B1000868319968C91878388E090E008958F9260
:100B20009F92AF92BF92CF92DF92EF92FF920F937C
:100B30001F93FC01DB01C380C294C69427E0C2224C
:100B40008C2C912CA12CB12C8D929D92AD92BC92AB
:100B50001397C480D12CE12CF12C33E0CC0CDD1C9C
:100B6000EE1CFF1C3A95D1F7C828D928EA28FB28A3
:100B7000CD92DD92ED92FC921397058110E020E07A
:100B800030E04BE0000F111F221F331F4A95D1F7B1
:100B9000C02AD12AE22AF32ACD92DD92ED92FC926C
:100BA000139706810F7010E020E030E053E1000F52
:100BB000111F221F331F5A95D1F70C291D292E29E9
:100BC0003F290D931D932D933C9313978681829516
:100BD0008F7047814F7750E060E070E094E0440F01
:100BE000551F661F771F9A95D1F7482B4115510560
:100BF00061057105A1F0405853406109710997E101
:100C0000440F551F661F771F9A95D1F7402B512B24
:100C1000622B732B4D935D936D937C931397478158
:100C2000407850E060E070E0742F66275527442735
:100C30000D911D912D913C911397402B512B622BBF
:100C4000732B4D935D936D937C93139788E090E0A5
:100C50001F910F91FF90EF90DF90CF90BF90AF90DA
:100C60009F908F900895EF92FF920F931F93CF93D1
:100C7000DF938C017B01BC016E5F7F4FC7010E9437
:100C80008F05EC01B8016A5F7F4FC7018C0F9D1F74
:100C90000E948F05C80FD91FB801665F7F4FC7013B
:100CA0008C0F9D1F0E948F058C0F9D1FDF91CF9190
:100CB0001F910F91FF90EF900895EF92FF920F9385
:100CC0001F93CF93DF937C01EB0102960E943306C2
:100CD0008C01BE01680F791FC70140960E94330640
:100CE000800F911FDF91CF911F910F91FF90EF9097
:100CF00008950F931F93CF93DF938C01EC012696F9
:100D0000CE010E945D06D8019496ED91FC919597D5
:100D1000CE01DF91CF911F910F9119948F929F92E5
:100D2000AF92BF92CF92DF92EF92FF920F931F93F9
:100D3000CF93DF93EC01CB01BA018B019C0147E11A
:100D400035952795179507954A95D1F711272227AD
:100D50003327011511052105310521F000581C4FDD
:100D60002F4F3F4F188219821A826B017C0145E098
:100D7000CC0CDD1CEE1CFF1C4A95D1F7CB826B011D
:100D80007C0153E0F594E794D794C7945A95D1F732
:100D9000CC826B017C01EBE0F594E794D794C79487
:100DA000EA95D1F7CD8268017901F4E0CC0CDD1C25
:100DB000EE1CFF1CFA95D1F74B015C01A3E1B59441
:100DC000A79497948794AA95D1F7482D4F70C42A79
:100DD000CE8268017901B4E0F594E794D794C79482
:100DE000BA95D1F720E030E0A9010E94FD1387FDFC
:100DF00002C0CF8203C00C2D00680F8388E090E012
:100E0000DF91CF911F910F91FF90EF90DF90CF90E6
:100E1000BF90AF909F908F900895EF92FF920F93A5
:100E20001F93CF93DF937C018B01FC01428153819F
:100E300064817581C8010E948E06EC01F70146812C
:100E4000578160857185C8018C0F9D1F0E948E0699
:100E5000C80FD91FF7014285538564857585C80180
:100E60008C0F9D1F0E948E068C0F9D1FDF91CF91CE
:100E70001F910F91FF90EF900895EF92FF920F93C3
:100E80001F93CF93DF937C01EB0102960E940D0725
:100E90008C01BE01680F791FC70140960E940D07A3
:100EA000800F911FDF91CF911F910F91FF90EF90D5
:100EB000089561E088E10E94770E61E089E10E9477
:100EC000770E60E086E00E94770E60E082E00E948C
:100ED000770E60E087E00E94770E60E083E00C947C
:100EE000770E0E9414150F931F93CF93DF93CDB706
:100EF000DEB72A970FB6F894DEBF0FBECDBF8C01C8
:100F000082E392E09A8389831B821C821D821E8267
:100F10001F82188619861A86D801ED91FC910190DE
:100F2000F081E02DAE014F5F5F4F6AE070E0C801D5
:100F300019950E942710F80160877187828793872F
:100F40002A960FB6F894DEBF0FBECDBFDF91CF91CA
:100F50001F910F9108958F929F92AF92BF92CF925F
:100F6000DF92EF92FF92FC0184809580A680B7808B
:100F7000C28CD38CE48CF58C20E030E0A901C50153
:100F8000B4010E94261420E030E0A9011816FCF4F8
:100F9000C701B6010E94261418161CF40E945907B6
:100FA0000EC020E030E0A901C701B6010E94FD1388
:100FB000811109C00E94590786E00E94300F82E02B
:100FC0000E94300F4EC00E94590786E0F9CFC5013C
:100FD000B4010E94FD1320E030E0A901811120C07E
:100FE000C701B6010E94261418164CF40E94590736
:100FF00061E087E00E94770E61E082E030C020E08F
:1010000030E0A901C701B6010E94FD13811103C0A0
:101010000E94590726C00E94590761E086E016C069
:10102000C701B6010E94261418161CF40E94590725
:101030000FC020E030E0A901C701B6010E94FD13F6
:10104000811109C00E94590761E087E00E94770E74
:1010500061E083E004C00E94590761E087E00E94DC
:10106000770E80E49CE99093850080938400FF9044
:10107000EF90DF90CF90BF90AF909F908F900895AA
:101080004F925F926F927F928F929F92AF92BF9298
:10109000CF92DF92EF92FF920F931F93CF93DF9344
:1010A000EC017B01DB011C918A81811750F4B4E0D3
:1010B0001B9FB00111248F8198850E942B14988763
:1010C0008F831A83F701379680E024E030E06E01C9
:1010D00093E0C90ED11C9A8189010C5F1F4F8917BB
:1010E00090F5408150E060E070E0742F662755274E
:1010F00044279F0123503109D9019C91492B2F5F2F
:101100003F4FD9019C91592B2F5F3F4FD9019C91A3
:10111000692B4B835C836D837E8398014F81588557
:10112000B4E08B9F400D511D1124D6018D909D90F0
:10113000AD90BC90DA018D929D92AD92BC921397C6
:101140008F5F3496C8CFF701E20FF31FB080898517
:101150008B1550F4B4E0BB9EB00111248E859F85A1
:101160000E942B149F878E87B98640E0BE01665F80
:101170007F4F8985F701E00FF11F0C5F1F4F481764
:1011800020F55181828190E0A0E0B0E0DC01992758
:101190008827952B5081852B2381B22B8A879B87AB
:1011A000AC87BD87AE85BF85E4E04E9FA00DB11D25
:1011B0001124FB0180809180A280B3808D929D924A
:1011C000AD92BC9213974F5FD4CFB08088898B15B6
:1011D00050F46B2D70E0660F771F8B899C890E94FD
:1011E0002B149C8B8B8BB88A90E06E01F1E1CF0EB3
:1011F000D11C8889981708F045C0F701E00FF11F4E
:10120000408151816281738198012C5F3F4FF701CA
:10121000E20FF31F4901032E000CAA08BB08840E3D
:10122000951EA61EB71E8F010E191F092801612CDD
:10123000712C481459046A047B0438F481918F019D
:1012400002501109D8018C93EECF420F531FF701C2
:10125000E40FF51F31971082215031092E0D3F1DEB
:101260003A8B298B8A012B898C89E22FF82FE90F81
:10127000F11DE90FF11DD6012D913C9131832083A1
:101280009F5FB7CFC801DF91CF911F910F91FF9062
:10129000EF90DF90CF90BF90AF909F908F907F9016
:1012A0006F905F904F9008952F923F924F925F9270
:1012B0006F927F928F929F92AF92BF92CF92DF9266
:1012C000EF92FF920F931F93CF93DF93CDB7DEB7CB
:1012D000A8970FB6F894DEBF0FBECDBF8C010E9459
:1012E00027102B013C01980129573B4F3C8B2B8B3E
:1012F000F90180819181A281B381A3019201281B10
:10130000390B4A0B5B0BDA01C901893F9A42A105EF
:10131000B10510F035971082780148E8E41A4BEFD8
:10132000F40AD7018D919C91892B79F0F801E5574A
:10133000FB4F80819181A281B38184159505A6051B
:10134000B70518F4F70111821082980120583B4F1D
:10135000388B2F87A80144585B4F5A8B498BC801A3
:1013600044969E8B8D8BD801AE57BB4FBA8FA98FF9
:10137000F801E057FB4FF8A3EF8F215F3F4F3AA3EF
:1013800029A3180136E8231A3BEF330A4E5F5F4F5B
:10139000588F4F8B89589B4F9CA38BA3A30192011D
:1013A0002C5E3F4F4F4F5F4F2DA33EA34FA358A737
:1013B000D80112968D919C911397DC01ED91FC91CF
:1013C0000284F385E02D19959C0197FD77C2EF8586
:1013D000F88980819181820F931F91838083D70147
:1013E0004D915C9147305105C9F4EF89F88D8081AA
:1013F0009181AC014F5F5F4F51834083F801E80F4B
:10140000F91F248BD1018D919C91119701978D9398
:101410009C93892B69F688E090E033C04115510513
:1014200041F52F3F310589F481E090E0D7018D939C
:101430009C932DA13EA14FA158A5ABA1BCA12D937A
:101440003D934D935C931397B3CF0E942710DC011B
:10145000CB0184199509A609B7090697A105B1051D
:1014600008F4A6CFF801EE57FB4F10828EEF9FEFE6
:101470004DC241305105A9F42E3F310531F482E0CF
:1014800090E0F7019183808393CFD7011D921C9246
:10149000E98DFA8D808181118BCFC8010E9473077D
:1014A00087CF4230510589F4D1012D933C93EF89C8
:1014B000F88D1182108283E090E0D7018D939C9388
:1014C000EF85F8893183208373CF4330510569F468
:1014D000322F2227D1018D919C911197280F391F0E
:1014E0002D933C9384E090E0CCCF4430510589F4B7
:1014F00060E071E00E9472138F3F910531F485E046
:1015000090E0D7018D939C9353CFF7011182108205
:101510004FCF4530510571F4A989BA892D933C9379
:1015200086E090E0F70191838083AF85B8892D93A1
:101530003C933ECF4630510599F4322F2227E9895A
:10154000FA8980819181280F391F3183208387E0B8
:1015500090E0D7018D939C93F1018081918159CFC7
:101560004830510509F024CFD7011D921C9260E04C
:1015700071E00E9472138F3F910509F019CFE9893C
:10158000FA8980819181009709F0C7C0C8010E9443
:10159000730786E292E09A8389831C821B828BE028
:1015A00093E09E838D8398878F839A8789871B8694
:1015B0001C861D861E865801FCEEAF1AFBEFBF0A83
:1015C00068012AEBC21A2BEFD20AD501ED91FC91EA
:1015D0003097D9F1848195819C838B83808191811F
:1015E0009E838D8382819381DC01ED91FC91048047
:1015F000F581E02D199598878F83D501ED91FC91A8
:1016000082819381DC01ED91FC910680F781E02DD0
:1016100019959A87898720E032E040E050E02B87D7
:101620003C874D875E87D8018D919C91F501A08103
:10163000B18118966D917C911997DC01ED91FC9127
:10164000AE014F5F5F4FC8011995B2E0AB0EB11C00
:10165000AC14BD0409F0B9CF812C92E0992EA12CD5
:10166000B12CF601A081B1811097E1F112968D9114
:101670009C9113979C838B8314968D919C911597C5
:101680009E838D83ED91FC9111970480F581E02D6F
:10169000CD01199598878F83D6018D919C91DC019E
:1016A000ED91FC910680F781E02D19959A87898745
:1016B0008B869C86AD86BE86D801ED91FC912080FC
:1016C0003180F60180819181DC01ED91FC910280F5
:1016D000F381E02D1995AE014F5F5F4FBC01C8014A
:1016E000F1011995F2E0CF0ED11CCE14DF0409F000
:1016F000B8CFF801EE57FB4F81E0808331964082EE
:10170000518262827382AB89BC894D925D926D92E7
:101710007C9213978FEF9FEFF9C08A30910509F003
:10172000A2C082E392E09A8389831B821C821D827D
:101730001E821F82188619861A860E942710F801B9
:1017400080849184A284B3849B01AC012819390957
:101750004A095B0949015A016D897E89CE010196CA
:101760000E942505C501B40128EE33E040E050E0B9
:101770000E9486138B809C80AD80BE80820E931E5B
:10178000A41EB51E8B829C82AD82BE829B01AC01E1
:1017900060E472E48FE090E00E9462138F8098848E
:1017A000A984BA84DC01CB01880D991DAA1DBB1D3B
:1017B0008F839887A987BA870E9427108F80988483
:1017C000A984BA8436E3931A35E6A30A34ECB30A43
:1017D00028EE33E040E050E00E9486132B8F3C8FD0
:1017E0004D8F5E8F9B01AC0160E472E48FE090E06E
:1017F0000E946213A5019401261B370B480B590B5D
:10180000CA01B9018B809C80AD80BE8031E0831A13
:101810009108A108B1082B8D3C8D4D8D5E8D821AEB
:10182000930AA40AB50A20E03AEC4AE95BE30E9475
:101830008613820E931EA41EB51ED8011C968D928F
:101840009D92AD92BC921F97F801608B718B828B39
:10185000938B0E942710AB89BC896D937D938D93E8
:101860009C931397A5CD8630910559F46D897E8997
:101870008F8D98A10E94400881E0E9A1FAA18083A0
:1018800097CD8B30910521F4A98DBA8D1C9290CD06
:10189000FC01E154FE4FEE0FFF1FE00FF11F8081AE
:1018A0009181009709F484CDDC01ED91FC910190C8
:1018B000F081E02D6D897E8919957ACDF801EE577A
:1018C000FB4F8081882301F17801BDE7EB1ABBEF64
:1018D000FB0AF70180819181A281B381A30192016A
:1018E000281B390B4A0B5B0BDA01C901853C994077
:1018F000A105B10548F0C8010E947307D7014D92B8
:101900005D926D927C92139780E090E0A8960FB65E
:10191000F894DEBF0FBECDBFDF91CF911F910F9125
:10192000FF90EF90DF90CF90BF90AF909F908F90FF
:101930007F906F905F904F903F902F900895BF924F
:10194000CF92DF92EF92FF920F931F93CF93DF938B
:10195000EC018B018A81FB01808311821282138248
:10196000DB01179680E0E4E0F0E09A819F012C5FB4
:101970003F4F8917B8F4EF81F88594E0899FE00D17
:10198000F11D11247081518142819381FD013397B2
:10199000708331965083319640839C93F9018F5F19
:1019A0001496E3CF8985E00FF11F808311821282A4
:1019B000138280E09985F801E20FF31F2C5F3F4FFF
:1019C0008917B0F4AE85BF8594E0899FA00DB11D45
:1019D00011246C9111965C91119712964C9112976B
:1019E00013969C9160835183428393838F5FE2CFF0
:1019F0008889808311821282C9011382B12C2889BF
:101A0000B21690F5EB2DF0E0EE0FFF1FAB89BC890D
:101A1000AE0FBF1F2D913C91D9010D900020E9F729
:101A200011976D01C21AD30AD801A80FB91FA601D8
:101A300060E070E04D935D936D937C9313977C0110
:101A400024E0E20EF11C8B899C89E80FF91F60816C
:101A50007181A601C8018E0D9F1D0E941915C60136
:101A60008E0D9F1DB394CBCFDF91CF911F910F911E
:101A7000FF90EF90DF90CF90BF900895CF93DF93CA
:101A8000DC01FB0112968C911297808313968D9145
:101A90009C911497EC0109900020E9F72197C81B4D
:101AA000D90BAE0160E070E041835283638374839D
:101AB00013966D917C911497AE01CF0105960E940B
:101AC0001915CE010596DF91CF910895CF92DF923F
:101AD000EF92FF920F931F93CF93DF937C01EB0163
:101AE000FC018281888383818983A481B581FD0182
:101AF00001900020E9F731976F01CA1ADB0AC6018D
:101B0000A0E0B0E08A839B83AC83BD83F70164814E
:101B10007581A601CE0106960E941915F701A681CE
:101B2000B781FD0101900020E9F731978F010A1B71
:101B30001B0BFE01EC0DFD1DC801A0E0B0E086838B
:101B40009783A087B187FAE0CF0ED11CF701668199
:101B50007781A801CE018C0D9D1D0E9419150C0DD9
:101B60001D1DF701A085B185FD0101900020E9F759
:101B700031976F01CA1ADB0AFE01E00FF11FC6019F
:101B8000A0E0B0E080839183A283B3830C5F1F4FFA
:101B9000F70160857185A601CE01800F911F0E941B
:101BA00019150C0D1D1DF70142852385948585852A
:101BB000C00FD11F488329839A838B83C801049661
:101BC000DF91CF911F910F91FF90EF90DF90CF9019
:101BD00008951F920F920FB60F9211240BB60F9219
:101BE0002F933F934F935F936F937F938F939F9325
:101BF000AF93BF93EF93FF9382E194E00E9466025C
:101C0000FF91EF91BF91AF919F918F917F916F91D4
:101C10005F914F913F912F910F900BBE0F900FBE90
:101C20000F901F9018951F920F920FB60F921124CC
:101C30000BB60F922F938F939F93EF93FF93E091A7
:101C40002204F09123048081E0912804F09129047A
:101C500082FD12C0908180912B048F5F8F73209141
:101C60002C04821751F0E0912B04F0E0EE5EFB4F64
:101C7000958F80932B0401C08081FF91EF919F91FC
:101C80008F912F910F900BBE0F900FBE0F901F9052
:101C900018951F920F920FB60F9211240BB60F9248
:101CA0002F933F934F935F936F937F938F939F9364
:101CB000AF93BF93EF93FF9380E49CE990938500EB
:101CC000809384000E945907FF91EF91BF91AF91DB
:101CD0009F918F917F916F915F914F913F912F9144
:101CE0000F900BBE0F900FBE0F901F901895362FC0
:101CF00090E0FC01EE5CFC4F4491FC01E451FD4F8F
:101D00002491FC01EA55FD4F9491992309F46BC08D
:101D1000442309F455C050E0FA013197E231F1054E
:101D200008F04EC08827EE58FF4F8F4F0C94C71312
:101D3000809180008F7707C0809180008F7D03C0E5
:101D400080918000877F809380003AC084B58F7730
:101D500002C084B58F7D84BD33C08091B0008F7781
:101D600003C08091B0008F7D8093B00029C0809126
:101D700090008F7707C0809190008F7D03C0809185
:101D80009000877F809390001BC08091A0008F7788
:101D900007C08091A0008F7D03C08091A000877F45
:101DA0008093A0000DC0809120018F7707C08091A3
:101DB00020018F7D03C080912001877F80932001C7
:101DC000E92FF0E0EE0FFF1FE457FD4FA591B4910E
:101DD0008FB7F894EC91311103C020952E2301C0E8
:101DE0002E2B2C938FBF0895CF93DF9390E0FC01AF
:101DF000E451FD4F2491FC01EA55FD4F8491882365
:101E000061F190E0880F991FFC01EE58FD4FC591DC
:101E1000D491FC01E457FD4FA591B491611109C023
:101E20009FB7F8948881209582238883EC912E2394
:101E30000BC0623061F49FB7F8943881822F80958F
:101E400083238883EC912E2B2C939FBF06C08FB7E2
:101E5000F894E8812E2B28838FBFDF91CF910895CE
:101E6000CF93C82F61E00E94F40EEC2FF0E0EE5CFF
:101E7000FC4FE4914E2F50E0FA013197E231F10529
:101E800008F0B9C08827EC57FF4F8F4F0C94C71349
:101E900084B5806884BD8FE387BDB2C084B580629D
:101EA00084BD8FE388BDACC0809180008068809342
:101EB00080008FE390E09093890080938800A0C019
:101EC000809180008062809380008FE390E0909307
:101ED0008B0080938A0094C08091800088608093FA
:101EE00080008FE390E090938D0080938C0088C0F9
:101EF0008091B00080688093B0008FE38093B3003E
:101F00007FC08091B00080628093B0008FE38093A7
:101F1000B40076C0809190008068809390008FE339
:101F200090E090939900809398006AC0809190000F
:101F30008062809390008FE390E090939B00809369
:101F40009A005EC0809190008860809390008FE33B
:101F500090E090939D0080939C0052C08091A000DF
:101F600080688093A0008091A0008F7B8093A00068
:101F70008FE390E09093A9008093A80041C08091E6
:101F8000A00080628093A0008FE390E09093AB006C
:101F90008093AA0035C08091A00088608093A00043
:101FA0008FE390E09093AD008093AC0029C08091C6
:101FB00020018068809320018FE390E090932901B5
:101FC000809328011DC080912001806280932001B0
:101FD0008FE390E090932B0180932A0111C08091B0
:101FE00020018860809320018FE390E090932D0181
:101FF00080932C0105C060E08C2FCF910C94770E5C
:10200000CF9108953FB7F89480918109909182090A
:10201000A0918309B091840926B5A89B05C02F3FE4
:1020200019F00196A11DB11D3FBFBA2FA92F982FFE
:102030008827820F911DA11DB11DBC01CD0142E079
:10204000660F771F881F991F4A95D1F708952FB7FC
:10205000F89460917D0970917E0980917F0990913B
:1020600080092FBF08951F920F920FB60F9211246F
:102070002F933F938F939F93AF93BF9380917D094D
:1020800090917E09A0917F09B091800930917C09DF
:1020900023E0230F2D3720F40196A11DB11D05C0AB
:1020A00026E8230F0296A11DB11D20937C09809381
:1020B0007D0990937E09A0937F09B0938009809158
:1020C000810990918209A0918309B09184090196B8
:1020D000A11DB11D8093810990938209A09383096A
:1020E000B0938409BF91AF919F918F913F912F91B0
:1020F0000F900FBE0F901F901895CF92DF92EF9226
:10210000FF920F931F93E82FF92F05C0015011097B
:102110002109310961F1908196239417B9F305C023
:10212000015011092109310911F19081962394136D
:10213000F7CFC12CD12CE12CF12C0AC08FEFC81A9B
:10214000D80AE80AF80A0C151D052E053F0579F096
:1021500080818623841791F36C2D7D2D8E2D9F2DEC
:102160001F910F91FF90EF90DF90CF90089560E066
:1021700070E080E090E01F910F91FF90EF90DF9072
:10218000CF900895789484B5826084BD84B58160D1
:1021900084BD85B5826085BD85B5816085BD809132
:1021A0006E00816080936E001092810080918100AA
:1021B00082608093810080918100816080938100A2
:1021C000809180008160809380008091B100846064
:1021D0008093B1008091B00081608093B0008091C5
:1021E0009100826080939100809191008160809342
:1021F0009100809190008160809390008091A10077
:1022000082608093A1008091A10081608093A100F1
:102210008091A00081608093A00080912101826064
:10222000809321018091210181608093210180911F
:10223000200181608093200180917A0084608093E6
:102240007A0080917A00826080937A0080917A008F
:10225000816080937A0080917A00806880937A0010
:102260001092C100C090DB04D090DC04E090DD044B
:10227000F090DE04C091D904D091DA0460E079E0F6
:102280008DE390E0A70196010E948613DA01C9014F
:102290000197A109B109B695A795979587959C01D6
:1022A000E889F98982E08083C11481EED806E104CF
:1022B000F10421F02115E0E13E07A8F0E889F98951
:1022C000108260E874E88EE190E0A70196010E9418
:1022D0008613DA01C9010197A109B109B695A7953D
:1022E000979587959C01EC85FD853083EE85FF856C
:1022F0002083188EEC89FD8986E08083EA89FB893A
:10230000808180618083EA89FB8980818860808305
:10231000EA89FB89808180688083EA89FB898081E2
:102320008F7D80831092500910924F0910925209AC
:1023300010925109109256091092550910925409A1
:1023400010925309EDE1F9E080E090E021913191A4
:10235000232B81F4FC01EE0FFF1FE35EF64F2FEA03
:1023600034E0318320838C599F4F9093B204809343
:10237000B10404C001968931910541F761E08DE017
:102380000E94F40E61E087E00E94F40E61E088E1B3
:102390000E94F40E61E086E00E94F40E61E083E0AA
:1023A0000E94F40E61E089E10E94F40E61E082E097
:1023B0000E94F40E61E087E10E94F40E60E086E185
:1023C0000E94F40EF894109280001092810080E434
:1023D0009CE99093850080938400809181008460C3
:1023E0008093810080916F00816080936F0078946A
:1023F000C3E0D0E093E2E92EF12C22E0C22E23E0EC
:10240000D22E3CEB232E32E0332E4AE3442E512CC5
:10241000612C712C60E087E10E94770ECE0101975C
:10242000F1F761E087E10E94770EC7010197F1F7AC
:1024300060E087E10E94770EF6016491F1018491DA
:10244000E82FF0E0EE0FFF1FE85AFD4F85919491C1
:1024500000E412E42FE030E0462F0E947D10611569
:1024600071058105910549F0DC01CB010196A11DA3
:10247000B11DBC01CD019F7003C060E070E0CB01D5
:1024800060930E0470930F048093100490931104D2
:10249000A30192010E94A81320930A0430930B0415
:1024A00040930C0450930D0425313105410551052D
:1024B00014F461E005C087ED94E00E94540960E0E7
:1024C0008DE00E94770E0E9402104B015C010E9479
:1024D0000210DC01CB0188199909AA09BB09883EC1
:1024E0009340A105B10598F30E94F00293CF10929A
:1024F00015041092140488EE93E0A0E0B0E08093FD
:10250000160490931704A0931804B09319048AE456
:1025100092E090931304809312048DEC90E09093DA
:102520001F0480931E048CEC90E090932104809310
:10253000200488EC90E0909323048093220489EC9B
:1025400090E090932504809324048AEC90E090938B
:102550002704809326048EEC90E0909329048093C6
:10256000280410922B0410922C0410922D04109227
:102570002E048CE892E09093D8048093D70482E1F3
:1025800094E09093DA048093D90480E091EEA0E087
:10259000B0E08093DB049093DC04A093DD04B0935F
:1025A000DE041092590984E792E0909368098093C1
:1025B00067091092690910926F0910926E091092C2
:1025C000700910927609109275091092770910928D
:1025D0007B0910927A09EBEEF8E01192119289E0F2
:1025E000ED31F807D1F7EDE1F9E01192119289E0B0
:1025F000EF34F807D1F7EBEEF4E0119286E0EB3E12
:10260000F807D9F7EBEEF6E0119288E0EB3EF80719
:10261000D9F786E992E09093B0048093AF0488E6FE
:1026200092E09093B6048093B5048CE592E0909389
:10263000B8048093B7041092B9041092BA041092AF
:10264000BB041092BC041092BD041092BE04109200
:10265000BF041092C0041092C1041092C2041092E0
:10266000C3041092C4049093C6048093C5041092CE
:10267000C7041092C8041092C9041092CA041092A0
:10268000CB041092CC041092CD041092CE04109280
:10269000CF041092D0041092D1041092D2048BEA8D
:1026A00097E09093D4048093D30481E090E09093DA
:1026B000D6048093D50481E094E09093B404809391
:1026C000B3040895DB018F939F930E94CF13BF91B2
:1026D000AF91A29F800D911DA39F900DB29F900D71
:1026E0001124089597FB072E16F4009407D077FD68
:1026F00009D00E94DA1307FC05D03EF4909581952D
:102700009F4F0895709561957F4F0895A1E21A2E0D
:10271000AA1BBB1BFD010DC0AA1FBB1FEE1FFF1F85
:10272000A217B307E407F50720F0A21BB30BE40BD5
:10273000F50B661F771F881F991F1A9469F760951C
:102740007095809590959B01AC01BD01CF010895D6
:10275000052E97FB1EF400940E94BF1357FD07D06F
:102760000E94861307FC03D04EF40C94BF135095BF
:102770004095309521953F4F4F4F5F4F089590956D
:102780008095709561957F4F8F4F9F4F0895EE0F05
:10279000FF1F881F8BBF0790F691E02D19940E94B0
:1027A000EE13A59F900DB49F900DA49F800D911DD9
:1027B00011240895AA1BBB1B51E107C0AA1FBB1F10
:1027C000A617B70710F0A61BB70B881F991F5A95BD
:1027D000A9F780959095BC01CD010895A29FB00105
:1027E000B39FC001A39F700D811D1124911DB29F45
:1027F000700D811D1124911D08950E94021408F48A
:1028000081E00895990F0008550FAA0BE0E8FEEF4C
:1028100016161706E807F907C0F012161306E407A4
:10282000F50798F0621B730B840B950B39F40A269D
:1028300061F0232B242B252B21F408950A2609F47B
:10284000A140A6958FEF811D811D08950E9402145D
:1028500008F48FEF08956F927F928F929F92AF92BC
:10286000BF92CF92DF92EF92FF920F931F93CF937D
:10287000DF93EC01009789F4CB01DF91CF911F9199
:102880000F91FF90EF90DF90CF90BF90AF909F900F
:102890008F907F906F900C942215FC01E60FF71F2C
:1028A0009C0122503109E217F30708F4ACC0D901AA
:1028B0000D911C91119706171707B0F005301105FF
:1028C00008F49FC0C80104978617970708F499C0B9
:1028D00002501109061B170B019311936D937C9302
:1028E000CF010E94B7158DC05B01A01AB10A4C013F
:1028F000800E911EA0918709B091880940E050E0B8
:10290000E12CF12C109709F44AC0A815B905D1F5AE
:102910006D907C901197630182E0C80ED11CCA149F
:10292000DB0480F1A3014A195B096A0182E0C80E49
:10293000D11C1296BC9012971396AC91B5E0CB16B1
:10294000D10440F0B282A38351834083D9016D93B7
:102950007C930AC00E5F1F4FC301800F911FF901C6
:1029600091838083EB2DFA2FE114F10431F0D7012C
:102970001396FC93EE93129744C0F0938809E0936A
:1029800087093FC08D919C9111974817590708F40A
:10299000AC017D0112960D90BC91A02DB3CF80911A
:1029A00085099091860988159905E1F4461757071E
:1029B000C8F48091000290910102009741F48DB714
:1029C0009EB74091040250910502841B950BE817B5
:1029D000F907C8F4F0938609E0938509F90171833A
:1029E00060830FC0CB010E9422157C01009759F033
:1029F000A801BE010E941915CE010E94B715C7019A
:102A000004C0CE0102C080E090E0DF91CF911F9121
:102A10000F91FF90EF90DF90CF90BF90AF909F907D
:102A20008F907F906F90089581E090E0F8940C94DF
:102A30004F16FB01DC0102C001900D924150504045
:102A4000D8F70895CF93DF938230910510F482E098
:102A500090E0E0918709F091880920E030E0C0E043
:102A6000D0E0309711F14081518148175907C0F0EB
:102A70004817590761F482819381209719F09B834D
:102A80008A832BC0909388098093870926C02115DB
:102A9000310519F04217530718F49A01BE01DF01FE
:102AA000EF010280F381E02DDCCF2115310509F122
:102AB000281B390B2430310590F412968D919C918E
:102AC00013976115710521F0FB019383828304C084
:102AD0009093880980938709FD01329644C0FD01D7
:102AE000E20FF31F81939193225031092D933C9370
:102AF0003AC02091850930918609232B41F4209119
:102B000002023091030230938609209385092091B7
:102B10000002309101022115310541F42DB73EB775
:102B20004091040250910502241B350BE091850968
:102B3000F0918609E217F307A0F42E1B3F0B28172C
:102B4000390778F0AC014E5F5F4F2417350748F026
:102B50004E0F5F1F5093860940938509819391938F
:102B600002C0E0E0F0E0CF01DF91CF9108950F9334
:102B70001F93CF93DF93009709F48CC0FC01329729
:102B8000138212820091870910918809011511059D
:102B900081F420813181820F931F2091850930912A
:102BA00086092817390779F5F0938609E093850996
:102BB00071C0D80140E050E0AE17BF0750F4129644
:102BC0002D913C911397AD012115310509F1D901E2
:102BD000F3CF9D01DA013383228360817181860FF7
:102BE000971F8217930769F4EC0128813981260F1A
:102BF000371F2E5F3F4F318320838A819B819383D0
:102C00008283452B29F4F0938809E093870942C019
:102C10001396FC93EE931297ED01499159919E0101
:102C2000240F351FE217F30771F480819181840F1F
:102C3000951F029611969C938E9382819381139691
:102C40009C938E931297E0E0F0E0D80112968D915C
:102C50009C911397009719F0F8018C01F6CF8D9194
:102C60009C9198012E5F3F4F820F931F2091850901
:102C7000309186092817390769F4309729F41092A2
:102C800088091092870902C0138212821093860964
:102C900000938509DF91CF911F910F910895F894CA
:022CA000FFCF64
:102CA200000089098000726F7373657269616C5FDD
:102CB2006D7367732F5265717565737450617261BC
:102CC2006D0000000000660D430440043D04000056
:102CD20000006B05250522051F05000000003E0DC2
:102CE200FB03F803F503000000008702F0011F0256
:102CF200CE0250022E024202000000000D073306EF
:102D0200EC03E903000000003D075D06E603E30370
:102D1200000000009F0C4008F203EF0300000000D7
:102D22007107710771077107000000003803540929
:102D32002903000000007906340331032E033966AB
:102D42003139356638383132343666646661323745
:102D520039386431643365656263613834610067B0
:102D6200656F6D657472795F6D7367732F547769E0
:102D72007374004D6573736167652066726F6D20B1
:102D82006465766963652064726F707065643A2069
:102D92006D657373616765206C617267657220741B
:102DA20068616E206275666665722E003461383421
:102DB20032623635663431333038346463326231EC
:102DC2003066623438346561376631370067656F63
:102DD2006D657472795F6D7367732F566563746F77
:102DE2007233003966306539386264613635393894
:102DF200313938366464663533616661376134303F
:102E020065343900313161626437333163323539C7
:102E1200333332363163643631383362643132648B
:102E22003632393500726F7373657269616C5F6D2A
:102E32007367732F4C6F67003061643531663838C1
:102E42006663343438393266386331303638343078
:102E5200373736343630303500726F7373657269C6
:102E6200616C5F6D7367732F546F706963496E662F
:102E72006F00636437313636633734633535326316
:102E8200333131666263633266653561376263325C
:102E92003839007374645F6D7367732F54696D659D
:0A2EA20000636D645F76656C00004C
:00000001FF
