:100000000C9462000C948A000C948A000C948A0070
:100010000C948A000C948A000C948A000C948A0038
:100020000C948A000C948A000C948A000C948A0028
:100030000C948A000C948A000C948A000C948A0018
:100040000C9412070C948A000C9482070C945C07A1
:100050000C948A000C948A000C948A000C948A00F8
:100060000C948A000C948A000000000024002700F1
:100070002A000000000023002600290000000000E4
:10008000250028002B0004040404040404040202D4
:100090000202020203030303030301020408102007
:1000A0004080010204081020010204081020000012
:1000B0000008000201000003040700000000000027
:1000C0000000B40711241FBECFEFD8E0DEBFCDBFC4
:1000D00012E0A0E0B1E0ECE9F3E102C005900D927E
:1000E000A434B107D9F723E0A4E4B2E001C01D9223
:1000F000A133B207E1F710E0C2E6D0E004C02197D7
:10010000FE010E947109C136D107C9F70E94070894
:100110000C94CC090C940000E4E8F2E0A089B189C9
:1001200082E08C93A485B5851C92A685B7858FEC5B
:100130008C93108EA489B58986E08C93A289B389AB
:100140008C9180618C93A289B3898C9188608C9307
:10015000A289B3898C9180688C930288F389E02D01
:1001600080818F7D80830895833081F028F48130F1
:1001700099F08230A1F008958730A9F08830B9F065
:100180008430D1F4809180008F7D03C08091800005
:100190008F7780938000089584B58F7702C084B5EF
:1001A0008F7D84BD08958091B0008F7703C08091CA
:1001B000B0008F7D8093B00008951F93CF93DF939D
:1001C000E7EBF0E09491E3EAF0E0D491EFE8F0E0BF
:1001D000C491CC23D9F0182F992319F0892F0E94AC
:1001E000B400EC2FF0E0EE0FFF1FE458FF4FA59195
:1001F000B4918FB7F894111105C09C91ED2FE09543
:10020000E92302C0EC91ED2BEC938FBFDF91CF91EE
:100210001F910895CF93DF93282F30E0F901E25525
:10022000FF4F8491F901E656FF4FD491F901EA5747
:10023000FF4FC491CC2391F081110E94B400EC2FA8
:10024000F0E0EE0FFF1FEE58FF4FA591B491EC9137
:10025000ED2381E090E021F480E002C080E090E0B6
:10026000DF91CF910895CF93DF9390E0FC01E656A4
:10027000FF4F2491FC01EA57FF4F8491882361F1DD
:1002800090E0880F991FFC01E859FF4FC591D49168
:10029000FC01E458FF4FA591B491611109C09FB7CB
:1002A000F8948881209582238883EC912E230BC0BB
:1002B000623061F49FB7F8943881822F8095832350
:1002C0008883EC912E2B2C939FBF06C08FB7F89498
:1002D000E8812E2B28838FBFDF91CF910895CF9394
:1002E000DF93EC0161E089E00E943301209711F473
:1002F00080E004C0CF3FD10529F481E0DF91CF91A8
:100300000C94DD00E7EBF0E0E491E330F9F048F421
:10031000E130B9F0E230A1F584B5806284BDC8BD9A
:1003200034C0E730E9F0E83019F1E43049F5809164
:100330008000806280938000D0938B00C0938A00FD
:1003400024C084B5806884BDC7BD1FC08091800073
:10035000806880938000D0938900C093880015C086
:100360008091B00080688093B000C093B3000DC04E
:100370008091B00080628093B000C093B40005C04B
:10038000C038D1050CF0B9CFB3CFDF91CF9108952C
:100390003FB7F8948091490290914A02A0914B0294
:1003A000B0914C0226B5A89B05C02F3F19F00196CD
:1003B000A11DB11D3FBFBA2FA92F982F8827820FEB
:1003C000911DA11DB11DBC01CD0142E0660F771F3B
:1003D000881F991F4A95D1F708958F929F92AF92E7
:1003E000BF92CF92DF92EF92FF926B017C010E944D
:1003F000C8014B015C01C114D104E104F104F1F026
:100400000E94C801DC01CB0188199909AA09BB091E
:10041000883E9340A105B10570F321E0C21AD108CE
:10042000E108F10888EE880E83E0981EA11CB11C3B
:10043000C114D104E104F10419F7DDCFFF90EF906E
:10044000DF90CF90BF90AF909F908F9008952FB77F
:10045000F894609145027091460280914702909114
:1004600048022FBF0895CF92DF92EF92FF920F9331
:100470001F93CF93DF936C017A018B01C0E0D0E032
:10048000CE15DF0589F0D8016D918D01D601ED9172
:10049000FC910190F081E02DC6010995892B11F4A2
:1004A0007E0102C02196ECCFC701DF91CF911F9151
:1004B0000F91FF90EF90DF90CF900895089580E026
:1004C00090E00895FC01538D448D252F30E0842F5A
:1004D00090E0821B930B541710F0CF96089501976C
:1004E0000895FC01918D828D981761F0828DDF0156
:1004F000A80FB11D5D968C91928D9F5F9F73928F17
:1005000090E008958FEF9FEF0895FC01918D828D0B
:10051000981731F0828DE80FF11D858D90E00895D8
:100520008FEF9FEF0895FC01918D228D892F90E030
:10053000805C9F4F821B91098F739927089584E8EF
:1005400092E00E94930221E0892B09F420E0822F9F
:100550000895FC01848DDF01A80FB11DA35ABF4F80
:100560002C91848D90E001968F739927848FA689B2
:10057000B7892C93A089B1898C9180648C93938DD9
:10058000848D981306C00288F389E02D80818F7DC9
:1005900080830895EF92FF920F931F93CF93DF9381
:1005A000EC0181E0888F9B8D8C8D981305C0E889C4
:1005B000F989808185FD24C0F62E0B8D10E00F5F38
:1005C0001F4F0F731127E02E8C8DE8120CC00FB651
:1005D00007FCFACFE889F989808185FFF5CFCE0144
:1005E0000E94A902F1CF8B8DFE01E80FF11DE35AA5
:1005F000FF4FF0820B8FEA89FB898081806207C000
:10060000EE89FF896083E889F9898081806480832D
:1006100081E090E0DF91CF911F910F91FF90EF90DB
:100620000895CF93DF93EC01888D8823C9F0EA8980
:10063000FB89808185FD05C0A889B9898C9186FDDB
:100640000FC00FB607FCF5CF808185FFF2CFA889D8
:10065000B9898C9185FFEDCFCE010E94A902E7CF29
:10066000DF91CF91089580E090E0892B29F00E94DE
:100670009F0281110C9400000895682F84E892E095
:100680000C94CA02CF92DF92EF92FF92CF936B014C
:100690007C01C42F80E390E00E943D0388E790E056
:1006A0000E943D031C16F4F4C15024E0C29FC00117
:1006B0001124A701960104C05695479537952795B3
:1006C0008A95D2F7DA01C9018F709927AA27BB272B
:1006D0008A309105A105B10510F4805D01C0895CE7
:1006E00090E0DECFCF91FF90EF90DF90CF90089514
:1006F0004F925F926F927F928F929F92AF92BF9232
:10070000CF92DF92EF92FF922B013C01C12CD12CB2
:100710007601C394C301B201A70196010E94440966
:100720002A3031054105510548F0AAE0B0E0A701A3
:1007300096010E9466096B017C01ECCF8AE0882E4D
:10074000912CA12CB12CC301B201A70196010E94EA
:100750004409CA01B901A50194010E94440980E33A
:10076000860F90E00E943D03C701B601A5019401E8
:100770000E94440969017A01232B242B252B19F7A8
:10078000FF90EF90DF90CF90BF90AF909F908F90B1
:100790007F906F905F904F900895CF92DF92EF928D
:1007A000FF926B017C0197FF0CC08DE290E00E94EC
:1007B0003D03F094E094D094C094C11CD11CE11C82
:1007C000F11CC701B601FF90EF90DF90CF900C9421
:1007D0007803CF93DF93EC01892B71F198819923F2
:1007E00059F180EE890F8F3520F4892F990F990BDD
:1007F00008C09D3049F48CE590E00E943D0382E7FB
:1008000090E00E943D0316C09A3039F48CE590E0E8
:100810000E943D038EE690E0F4CF8CE590E00E94CC
:100820003D036881062E000C770B880B990B42E084
:100830000E9442032196D2CFDF91CF910895CF93AA
:10084000DF9300D000D0CDB7DEB749835A836B83E6
:100850007C830E94E9038AE390E00E943D03498182
:100860005A816B817C81CB01BA010E94CD038AE35E
:1008700090E00E943D0380914F02909150020E94AF
:10088000E9038AE390E00F900F900F900F90DF91B3
:10089000CF910C943D030F931F930091650210912B
:1008A00066022091670230916802012B022B032B14
:1008B00009F057C00091690210916A0220916B0201
:1008C00030916C02012B022B032B09F04AC0AB01C3
:1008D000BC0180914D0290914E020E941F048DE355
:1008E00091E00E94E9038AE390E00E943D03809139
:1008F000510290915202892BF1F08DE491E00E9417
:10090000E90380915102909152020E94E903809183
:10091000530290915402892B51F082E491E00E949D
:10092000E90380915302909154020E94E90387E504
:1009300091E00E94E9038DE791E00E94E90381E0E4
:1009400090E0A0E0B0E08093650290936602A093EF
:100950006702B093680261E070E08DE692E00E9469
:10096000AB091F910F9108954F925F926F927F9202
:100970008F929F92AF92BF92CF92DF92EF92FF92AF
:100980000F931F938090650290906602A09067027B
:10099000B090680289288A288B2809F049C0809085
:1009A000690290906A02A0906B02B0906C02892854
:1009B0008A288B28E9F56217730784079507C1F128
:1009C0002701380169017A014B015C01B301A201E1
:1009D00080914D0290914E020E941F048DE391E0A0
:1009E0000E94E9038AE390E00E943D0380E691E0E3
:1009F0000E94E903C501B4010E94CD038AE591E09C
:100A00000E94E903C701B6010E94CD0381E090E096
:100A1000A0E0B0E08093650290936602A093670225
:100A2000B093680261E070E08DE692E00E94AB094D
:100A30001F910F91FF90EF90DF90CF90BF90AF90FC
:100A40009F908F907F906F905F904F900895EF925E
:100A5000FF920F931F9381E00E94DD006EE170E032
:100A600080E090E00E94ED0189E00E940A01BC0153
:100A7000990F880B990B1FE0E12EF12C00E010E09C
:100A800021E030E040E050E00E94B4041F910F915B
:100A9000FF90EF900895EF92FF920F931F9380E0E5
:100AA0000E94DD006EE170E080E090E00E94ED01C8
:100AB00089E00E940A01BC01990F880B990B15E18E
:100AC000E12EF12C00E010E020E030E0A9010E94CE
:100AD000B4041F910F91FF90EF900895CF93DF938F
:100AE000009779F0FC0101900020E9F73197AF0100
:100AF000481B590BBC0184E892E00E943302EC01D0
:100B000002C0C0E0D0E042E050E066E971E084E875
:100B100092E00E9433028C0F9D1FDF91CF910895C8
:100B20000F931F93CF93DF9382E00E940A01EC01A1
:100B30008091270390912803C817D90751F00E948C
:100B400027026093290370932A0380932B039093C9
:100B50002C0360912D0370912E0380912F039091AF
:100B600030030E94ED018091270390912803C8175C
:100B7000D90709F08E0101301105A1F481E090E060
:100B80002091250330912603232B11F080E090E083
:100B9000909326038093250389E991E00E946E05D6
:100BA00081E001C080E0D0932803C0932703DF9148
:100BB000CF911F910F910895CF92DF92EF92FF9204
:100BC0008BEA91E00E946E050E9427026B010E9451
:100BD00090050D2C000CEE08FF08811116C00E9434
:100BE0002702DC01CB018C199D09AE09BF09893BA5
:100BF0009B40A105B10518F40E949005EECF6FE16E
:100C000070E080E090E00E944B048BEA91E00E944B
:100C10006E050E9427026B010E9490050D2C000CAE
:100C2000EE08FF0881111AC00E942702DC01CB01E7
:100C30008C199D09AE09BF09893B9B40A105B105EF
:100C400018F40E949005EECF67E270E080E090E03B
:100C5000FF90EF90DF90CF900C944B04FF90EF90BB
:100C6000DF90CF900895CF92DF92EF92FF920F9393
:100C70001F93CF93DF930E9427026B017C0181ECCD
:100C800091E00E946E05C0E0D0E0CE010E946F01AD
:100C90006EE170E080E090E00E94ED012596C430A6
:100CA00021E0D20791F7CE010E946F016EE170E062
:100CB00080E090E00E94ED012597CB3F8FEFD807B1
:100CC00091F781ED91E00E946E050E942702CB0111
:100CD0008C199D09843F9B4034F46EE270E080E003
:100CE00090E00E944B0480E00E94DD0081EE91E0E4
:100CF0000E946E0589E00E940A01BC01990F880BD1
:100D0000990B10E3E12EF12C00E010E020E030E040
:100D1000A9010E94B404DF91CF911F910F91FF9020
:100D2000EF90DF90CF9008950E948609CF93DF93D4
:100D300000D0CDB7DEB79A838983EDE4F2E0738308
:100D40006283052E000C660B770B40875187628704
:100D5000738784859585A685B7850196A11DB11DEC
:100D600084879587A687B787158214821782168293
:100D70008DE692E00E948B09892B19F4E981FA81B2
:100D800009958DE692E00E948B09EDE4F2E0848DF6
:100D9000958DA68DB78D892B8A2B8B2B61F084893D
:100DA0009589A689B7890196A11DB11D848B958B64
:100DB000A68BB78B20C0808D918DA28DB38D892B92
:100DC0008A2B8B2B69F440855185628573858081E0
:100DD00091810E941F0480E091E00E94E9030BC012
:100DE00080899189A289B3890196A11DB11D808B4B
:100DF000918BA28BB38BEDE4F2E0108E118E128EEC
:100E0000138E148E158E168E178E8AE090E00E9437
:100E10003D0384E892E00E9411030F900F90DF9150
:100E2000CF9108951F920F920FB60F9211242F9316
:100E30003F938F939F93AF93BF938091450290917F
:100E40004602A0914702B09148023091440223E04B
:100E5000230F2D3720F40196A11DB11D05C026E8F2
:100E6000230F0296A11DB11D2093440280934502D9
:100E700090934602A0934702B093480280914902A2
:100E800090914A02A0914B02B0914C020196A11D93
:100E9000B11D8093490290934A02A0934B02B093F4
:100EA0004C02BF91AF919F918F913F912F910F90E5
:100EB0000FBE0F901F9018951F920F920FB60F92B2
:100EC00011242F933F934F935F936F937F938F934F
:100ED0009F93AF93BF93EF93FF9384E892E00E94B8
:100EE000A902FF91EF91BF91AF919F918F917F9157
:100EF0006F915F914F913F912F910F900FBE0F9087
:100F00001F9018951F920F920FB60F9211242F93D6
:100F10008F939F93EF93FF93E0919402F09195024A
:100F20008081E0919A02F0919B0282FD12C0908133
:100F300080919D028F5F8F7320919E02821751F0E6
:100F4000E0919D02F0E0EC57FD4F958F80939D025C
:100F500001C08081FF91EF919F918F912F910F9010
:100F60000FBE0F901F901895E4E8F2E013821282F2
:100F700088EE93E0A0E0B0E084839583A683B783F6
:100F80008FE691E09183808385EC90E0958784875C
:100F900084EC90E09787868780EC90E0918B808B43
:100FA00081EC90E0938B828B82EC90E0958B848B2C
:100FB00086EC90E0978B868B118E128E138E148E9A
:100FC000E1E2F3E082E090E09183808389E090E0C9
:100FD000938382831582148217821682108611866B
:100FE0001286138682E390E0A0E0B0E084879587C4
:100FF000A687B78760E082E00E94330161E089E064
:101000000E94330180E00E94DD000C948C007894F3
:1010100084B5826084BD84B5816084BD85B58260FD
:1010200085BD85B5816085BD80916E0081608093AE
:101030006E00109281008091810082608093810017
:101040008091810081608093810080918000816027
:10105000809380008091B10084608093B100809182
:10106000B00081608093B00080917A0084608093AA
:101070007A0080917A00826080937A0080917A0071
:10108000816080937A0080917A00806880937A00F2
:101090001092C10080EF91E090934E0280934D0238
:1010A0001092500210924F02109255021092560266
:1010B00010925702109258021092590210925A023E
:1010C00010925B0210925C0210925D0210925E021E
:1010D00010925F02109260021092610210926202FE
:1010E00010926302109264021092650210926602DE
:1010F00010926702109268021092690210926A02BE
:1011000010926B0210926C021092520210925102D5
:1011100010925402109253020E948C000E948C0084
:1011200049E350E069E072E087E295E00E949606AC
:1011300064EF71E080E090E00E94ED014BE350E04D
:1011400065E172E08BE495E00E94960664EF71E041
:1011500080E090E00E94ED014DE350E062E272E039
:101160008CED95E00E94960664EF71E080E090E0DF
:101170000E94ED014FE350E064E372E083E396E008
:101180000E94960664EF71E080E090E00E94ED011D
:101190008AE090E00E943D0385E291E00E94E9032D
:1011A0008AE090E00E943D036091590270915A02DA
:1011B00080915B0290915C020E94CD038DE191E0F1
:1011C0000E94E90360915D0270915E0280915F026E
:1011D000909160020E94CD0382E191E00E94E903B8
:1011E0006091610270916202809163029091640249
:1011F0000E94CD0388E091E00E94E9038AE090E03C
:101200000E943D0380915D0290915E02A0915F0279
:10121000B0916002892B8A2B8B2B19F485E091E029
:1012200002C08DE391E00E94E9038AE090E00E9411
:101230003D0384E892E00E94110384E892E00E945A
:101240001103E0919602F091970280818F7E808356
:10125000E0919602F09197028081877F8083E091F0
:101260009602F091970280818F778083E0919602B9
:10127000F091970280818F7D808380919E02809380
:101280009D020E9433034CCFA1E21A2EAA1BBB1B66
:10129000FD010DC0AA1FBB1FEE1FFF1FA217B30742
:1012A000E407F50720F0A21BB30BE40BF50B661F58
:1012B000771F881F991F1A9469F76095709580951C
:1012C00090959B01AC01BD01CF0108950E94770963
:1012D000A59F900DB49F900DA49F800D911D11248A
:1012E0000895EE0FFF1F0590F491E02D0994A29F41
:1012F000B001B39FC001A39F700D811D1124911DEA
:10130000B29F700D811D1124911D089581E090E020
:10131000F8940C94CC09DC012D923D924D925D9293
:101320006D927D928D929D92AD92BD92CD92DD9205
:10133000ED92FD920D931D93CD93DD93FF91EF916F
:101340008DB78D938EB78D938FB78D93ED93FD935E
:10135000882799270994DC01CB0181309105811DF3
:101360002D903D904D905D906D907D908D909D90D5
:10137000AD90BD90CD90DD90ED90FD900D911D91C3
:10138000CD91DD91ED91FD910D90F894FEBF0FBED2
:0C139000EDBFED91FD910994F894FFCFA2
:10139C0050415353004F4B002049676E6F72656488
:1013AC002000204661696C757265732000205465BD
:1013BC0073747320002D2D2D2D2D2D2D2D2D2D2DB8
:1013CC002D2D2D2D2D2D2D2D2D2D2D2D0046414925
:1013DC004C0020417267756D656E74200046756E09
:1013EC006374696F6E20002E2000205761732000FB
:1013FC00204578706563746564200000000000CAA5
:10140C0002330262021103930271028502204578B5
:10141C007065637465642054525545205761732080
:10142C0046414C5345000D0A00627574746F6E2072
:10143C00697320636C69636B6564007072657373A8
:10144C0020627574746F6E2C20706C6561736521ED
:10145C0000737461727420627265617468696E677E
:10146C000066696E697368206F6E65206C6F6F70B3
:10147C000073746F7020627265617468696E6700C6
:10148C00746573742F746573745F627265617468CC
:10149C005F6C69622E63707000746573745F6C6549
:1014AC00645F6F6E00746573745F6C65645F6F6608
:1014BC006600746573745F636C69636B5F627574EB
:1014CC00746F6E00746573745F6C65645F627265D3
:0414DC0061746800CF
:00000001FF
