:100000000C9462000C948A000C948A000C948A0070
:100010000C948A000C948A000C948A000C948A0038
:100020000C948A000C948A000C948A000C948A0028
:100030000C948A000C948A000C948A000C948A0018
:100040000C9457070C948A000C94C7070C94A107D2
:100050000C948A000C948A000C948A000C948A00F8
:100060000C948A000C948A000000000024002700F1
:100070002A0000000000250028002B0000000000DE
:1000800023002600290004040404040404040202DA
:100090000202020203030303030301020408102007
:1000A0004080010204081020010204081020000012
:1000B0000008000201000003040700000000000027
:1000C0000000F90711241FBECFEFD8E0DEBFCDBF7F
:1000D00012E0A0E0B1E0E0E4F4E102C005900D928E
:1000E000A435B107D9F723E0A4E5B2E001C01D9221
:1000F000A134B207E1F710E0C2E6D0E004C02197D6
:10010000FE010E94C309C136D107C9F70E945108F8
:100110000C941E0A0C940000E4E9F2E0A089B18975
:1001200082E08C93A485B5851C92A685B7858FEC5B
:100130008C93108EA489B58986E08C93A289B389AB
:100140008C9180618C93A289B3898C9188608C9307
:10015000A289B3898C9180688C930288F389E02D01
:1001600080818F7D80830895833081F028F48130F1
:1001700099F08230A1F008958730A9F08830B9F065
:100180008430D1F4809180008F7D03C08091800005
:100190008F7780938000089584B58F7702C084B5EF
:1001A0008F7D84BD08958091B0008F7703C08091CA
:1001B000B0008F7D8093B0000895CF93DF93282FF8
:1001C00030E0F901E255FF4F8491F901E656FF4F07
:1001D000D491F901EA57FF4FC491CC2391F08111DA
:1001E0000E94B400EC2FF0E0EE0FFF1FE458FF4F29
:1001F000A591B491EC91ED2381E090E021F480E0B1
:1002000002C080E090E0DF91CF9108951F93CF93DB
:10021000DF93282F30E0F901E255FF4F8491F90177
:10022000E656FF4FD491F901EA57FF4FC491CC2312
:10023000C9F0162F81110E94B400EC2FF0E0EE0FF0
:10024000FF1FEE58FF4FA591B4918FB7F89411118D
:1002500005C09C91ED2FE095E92302C0EC91ED2BB8
:10026000EC938FBFDF91CF911F910895CF93DF93D0
:1002700090E0FC01E656FF4F2491FC01EA57FF4F46
:100280008491882361F190E0880F991FFC01E8595F
:10029000FF4FC591D491FC01EE58FF4FA591B49149
:1002A000611109C09FB7F8948881209582238883C3
:1002B000EC912E230BC0623061F49FB7F894388123
:1002C000822F809583238883EC912E2B2C939FBFC4
:1002D00006C08FB7F894E8812E2B28838FBFDF915B
:1002E000CF9108951F93CF93DF93182FEB0161E017
:1002F0000E943601209711F460E004C0CF3FD10581
:1003000039F461E0812FDF91CF911F910C940601A8
:10031000E12FF0E0E255FF4FE491E330F9F048F4CB
:10032000E130B9F0E230A1F584B5806284BDC8BD8A
:1003300034C0E730E9F0E83019F1E43049F5809154
:100340008000806280938000D0938B00C0938A00ED
:1003500024C084B5806884BDC7BD1FC08091800063
:10036000806880938000D0938900C093880015C076
:100370008091B00080688093B000C093B3000DC03E
:100380008091B00080628093B000C093B40005C03B
:10039000C038D1050CF0B5CFAFCFDF91CF911F9111
:1003A00008953FB7F8948091590290915A02A09114
:1003B0005B02B0915C0226B5A89B05C02F3F19F0E7
:1003C0000196A11DB11D3FBFBA2FA92F982F8827D5
:1003D000820F911DA11DB11DBC01CD0142E0660F30
:1003E000771F881F991F4A95D1F708958F929F9282
:1003F000AF92BF92CF92DF92EF92FF926B017C019E
:100400000E94D1014B015C01C114D104E104F1044B
:10041000F1F00E94D101DC01CB0188199909AA09E8
:10042000BB09883E9340A105B10570F321E0C21AD3
:10043000D108E108F10888EE880E83E0981EA11C1F
:10044000B11CC114D104E104F10419F7DDCFFF9010
:10045000EF90DF90CF90BF90AF909F908F900895D6
:100460002FB7F8946091550270915602809157020F
:10047000909158022FBF0895CF92DF92EF92FF9292
:100480000F931F93CF93DF936C017A018B01C0E030
:10049000D0E0CE15DF0589F0D8016D918D01D60130
:1004A000ED91FC910190F081E02DC6010995892B19
:1004B00011F47E0102C02196ECCFC701DF91CF91EC
:1004C0001F910F91FF90EF90DF90CF9008950895C6
:1004D00080E090E00895FC01538D448D252F30E09D
:1004E000842F90E0821B930B541710F0CF96089541
:1004F00001970895FC01918D828D981761F0828D8E
:10050000DF01A80FB11D5D968C91928D9F5F9F7347
:10051000928F90E008958FEF9FEF0895FC01918DE9
:10052000828D981731F0828DE80FF11D858D90E056
:1005300008958FEF9FEF0895FC01918D228D892FF3
:1005400090E0805C9F4F821B91098F7399270895DB
:1005500084E992E00E949C0221E0892B09F420E0CA
:10056000822F0895FC01848DDF01A80FB11DA35ACD
:10057000BF4F2C91848D90E001968F739927848FC3
:10058000A689B7892C93A089B1898C9180648C93BA
:10059000938D848D981306C00288F389E02D8081A5
:1005A0008F7D80830895EF92FF920F931F93CF93D7
:1005B000DF93EC0181E0888F9B8D8C8D981305C0B3
:1005C000E889F989808185FD24C0F62E0B8D10E025
:1005D0000F5F1F4F0F731127E02E8C8DE8120CC098
:1005E0000FB607FCFACFE889F989808185FFF5CF3E
:1005F000CE010E94B202F1CF8B8DFE01E80FF11DFA
:10060000E35AFF4FF0820B8FEA89FB898081806279
:1006100007C0EE89FF896083E889F9898081806459
:10062000808381E090E0DF91CF911F910F91FF9047
:10063000EF900895CF93DF93EC01888D8823C9F064
:10064000EA89FB89808185FD05C0A889B9898C91DB
:1006500086FD0FC00FB607FCF5CF808185FFF2CF76
:10066000A889B9898C9185FFEDCFCE010E94B20295
:10067000E7CFDF91CF91089580E090E0892B29F0BA
:100680000E94A80281110C9400000895682F84E94B
:1006900092E00C94D302CF92DF92EF92FF92CF932D
:1006A0006B017C01C42F80E390E00E94460388E741
:1006B00090E00E9446031C16F4F4C15024E0C29F4F
:1006C000C0011124A701960104C05695479537959E
:1006D00027958A95D2F7DA01C9018F709927AA2741
:1006E000BB278A309105A105B10510F4805D01C0DA
:1006F000895C90E0DECFCF91FF90EF90DF90CF90BC
:1007000008954F925F926F927F928F929F92AF92D5
:10071000BF92CF92DF92EF92FF922B013C01C12C4E
:10072000D12C7601C394C301B201A70196010E94A6
:1007300096092A3031054105510548F0AAE0B0E09C
:10074000A70196010E94B8096B017C01ECCF8AE0F9
:10075000882E912CA12CB12CC301B201A7019601C6
:100760000E949609CA01B901A50194010E94960947
:1007700080E3860F90E00E944603C701B601A50101
:1007800094010E94960969017A01232B242B252BC1
:1007900019F7FF90EF90DF90CF90BF90AF909F90B0
:1007A0008F907F906F905F904F900895CF92DF92DF
:1007B000EF92FF926B017C0197FF0CC08DE290E0FD
:1007C0000E944603F094E094D094C094C11CD11CC4
:1007D000E11CF11CC701B601FF90EF90DF90CF90B4
:1007E0000C948103CF93DF93EC01892B71F19881F5
:1007F000992359F180EE890F8F3520F4892F990FB5
:10080000990B08C09D3049F48CE590E00E944603A6
:1008100082E790E00E94460316C09A3039F48CE5D6
:1008200090E00E9446038EE690E0F4CF8CE590E0E5
:100830000E9446036881062E000C770B880B990BEB
:1008400042E00E944B032196D2CFDF91CF910895D1
:10085000CF93DF9300D000D0CDB7DEB749835A8362
:100860006B837C830E94F2038AE390E00E9446033C
:1008700049815A816B817C81CB01BA010E94D603E8
:100880008AE390E00E94460380915F0290916002AB
:100890000E94F2038AE390E00F900F900F900F9068
:1008A000DF91CF910C944603CF93DF93009779F0BB
:1008B000FC0101900020E9F73197AF01481B590B6B
:1008C000BC0184E992E00E943C02EC0102C0C0E05D
:1008D000D0E042E050E06DE771E084E992E00E94F0
:1008E0003C028C0F9D1FDF91CF9108950F931F93B2
:1008F000CF93DF93809131030E94DD00EC01809162
:10090000370390913803C817D90751F00E9430027D
:100910006093390370933A0380933B0390933C03B5
:1009200060913D0370913E0380913F03909140039D
:100930000E94F6018091370390913803C817D907B8
:1009400009F08E0101301105A1F481E090E02091C1
:10095000350330913603232B11F080E090E0909323
:1009600036038093350380E891E00E94540481E0CF
:1009700001C080E0D0933803C0933703DF91CF915B
:100980001F910F9108950F931F930091750210917D
:1009900076022091770230917802012B022B032BF3
:1009A00009F057C00091790210917A0220917B02E0
:1009B00030917C02012B022B032B09F04AC0AB01C2
:1009C000BC0180915D0290915E020E9428048DE33B
:1009D00091E00E94F2038AE390E00E944603809136
:1009E000610290916202892BF1F08DE491E00E9406
:1009F000F20380916102909162020E94F203809161
:100A0000630290916402892B51F082E491E00E948C
:100A1000F20380916302909164020E94F20387E5E1
:100A200091E00E94F20382E991E00E94F20381E0EA
:100A300090E0A0E0B0E08093750290937602A093DE
:100A40007702B093780261E070E08DE792E00E9457
:100A5000FD091F910F910895CF92DF92EF92FF92BF
:100A60008BEA91E00E9454040E9430026B010E94C4
:100A700076040D2C000CEE08FF08811116C00E94B0
:100A80003002DC01CB018C199D09AE09BF09893BFD
:100A90009B40A105B10518F40E947604EECF64E2F4
:100AA00070E080E090E00E94C3048BEA91E00E9435
:100AB00054040E9430026B010E9476040D2C000C3D
:100AC000EE08FF0881111AC00E943002DC01CB0140
:100AD0008C199D09AE09BF09893B9B40A105B10551
:100AE00018F40E947604EECF6CE270E080E090E0B3
:100AF000FF90EF90DF90CF900C94C304FF90EF90A5
:100B0000DF90CF9008954F925F926F927F928F9275
:100B10009F92AF92BF92CF92DF92EF92FF920F938C
:100B20001F938090750290907602A0907702B0900B
:100B3000780289288A288B2809F049C08090790298
:100B400090907A02A0907B02B0907C0289288A283B
:100B50008B28E9F56217730784079507C1F1270110
:100B6000380169017A014B015C01B301A201809156
:100B70005D0290915E020E9428048DE391E00E9444
:100B8000F2038AE390E00E94460380E691E00E942F
:100B9000F203C501B4010E94D6038AE591E00E94E8
:100BA000F203C701B6010E94D60381E090E0A0E005
:100BB000B0E08093750290937602A0937702B09391
:100BC000780261E070E08DE792E00E94FD091F91DC
:100BD0000F91FF90EF90DF90CF90BF90AF909F90DC
:100BE0008F907F906F905F904F900895EF92FF925B
:100BF0000F931F9361E0809133030E9406016EE121
:100C000070E080E090E00E94F60189E00E94DD0043
:100C1000BC01990F880B990B14E1E12EF12C00E037
:100C200010E021E030E040E050E00E9483051F9199
:100C30000F91FF90EF900895EF92FF920F931F9303
:100C400060E0809133030E9406016EE170E080E075
:100C500090E00E94F60189E00E94DD00BC01990F3E
:100C6000880B990B1AE1E12EF12C00E010E020E056
:100C700030E0A9010E9483051F910F91FF90EF9032
:100C80000895CF92DF92EF92FF920F931F93CF932D
:100C9000DF930E9430026B017C0181EC91E00E94A5
:100CA0005404C0E0D0E0BE01809133030E94720181
:100CB0006EE170E080E090E00E94F6012596C4307D
:100CC00021E0D20781F7BE01809133030E947201B7
:100CD0006EE170E080E090E00E94F6012597CB3F46
:100CE0008FEFD80781F781ED91E00E9454040E94B4
:100CF0003002CB018C199D09843F9B4034F463E39F
:100D000070E080E090E00E94C30460E080913303D3
:100D10000E94060181EE91E00E94540489E00E9445
:100D2000DD00BC01990F880B990B15E3E12EF12C26
:100D300000E010E020E030E0A9010E948305DF918F
:100D4000CF911F910F91FF90EF90DF90CF9008957A
:100D5000EF92FF920F931F93CF93DF93C1E3D3E002
:100D60006A817B81072E000C880B990B1DE0E12E18
:100D7000F12C00E010E029E030E040E050E00E947B
:100D8000830568817981072E000C880B990B1EE082
:100D9000E12EF12C00E010E022E030E040E050E0F5
:100DA0000E948305DF91CF911F910F91FF90EF90EB
:100DB00008950E94D809CF93DF9300D0CDB7DEB756
:100DC0009A838983EDE5F2E073836283052E000C3C
:100DD000660B770B4087518762877387848595857B
:100DE000A685B7850196A11DB11D84879587A68725
:100DF000B78715821482178216828DE792E00E94CF
:100E0000DD09892B19F4E981FA8109958DE792E0D2
:100E10000E94DD09EDE5F2E0848D958DA68DB78DFC
:100E2000892B8A2B8B2B61F084899589A689B789B8
:100E30000196A11DB11D848B958BA68BB78B20C00D
:100E4000808D918DA28DB38D892B8A2B8B2B69F48C
:100E50004085518562857385808191810E94280437
:100E600080E091E00E94F2030BC080899189A28901
:100E7000B3890196A11DB11D808B918BA28BB38B81
:100E8000EDE5F2E0108E118E128E138E148E158EFB
:100E9000168E178E8AE090E00E94460384E992E065
:100EA0000E941A030F900F90DF91CF9108951F9227
:100EB0000F920FB60F9211242F933F938F939F930E
:100EC000AF93BF938091550290915602A091570223
:100ED000B09158023091540223E0230F2D3720F4B3
:100EE0000196A11DB11D05C026E8230F0296A11D84
:100EF000B11D209354028093550290935602A09303
:100F00005702B09358028091590290915A02A091D1
:100F10005B02B0915C020196A11DB11D8093590244
:100F200090935A02A0935B02B0935C02BF91AF9181
:100F30009F918F913F912F910F900FBE0F901F9017
:100F400018951F920F920FB60F9211242F933F9373
:100F50004F935F936F937F938F939F93AF93BF93C1
:100F6000EF93FF9384E992E00E94B202FF91EF9128
:100F7000BF91AF919F918F917F916F915F914F91B1
:100F80003F912F910F900FBE0F901F9018951F92B9
:100F90000F920FB60F9211242F938F939F93EF937D
:100FA000FF93E091A402F091A5028081E091AA0252
:100FB000F091AB0282FD12C090818091AD028F5FF3
:100FC0008F732091AE02821751F0E091AD02F0E0F4
:100FD000EC56FD4F958F8093AD0201C08081FF914B
:100FE000EF919F918F912F910F900FBE0F901F90B7
:100FF0001895CF93DF93E4E9F2E01382128288EE32
:1010000093E0A0E0B0E084839583A683B7838FE666
:1010100091E09183808385EC90E09587848784ECD0
:1010200090E09787868780EC90E0918B808B81ECB5
:1010300090E0938B828B82EC90E0958B848B86EC96
:1010400090E0978B868B118E128E138E148EC1E3D7
:10105000D3E082E090E09983888389E090E09B83ED
:101060008A831D821C821F821E82188619861A8618
:101070001B8682E390E0A0E0B0E08C879D87AE877E
:10108000BF8760E082E00E94360161E08A810E94B1
:10109000360160E08A810E940601DF91CF910C94B5
:1010A0008C00789484B5826084BD84B5816084BDF1
:1010B00085B5826085BD85B5816085BD80916E00F6
:1010C000816080936E001092810080918100826027
:1010D0008093810080918100816080938100809164
:1010E00080008160809380008091B1008460809353
:1010F000B1008091B00081608093B00080917A004F
:10110000846080937A0080917A00826080937A0074
:1011100080917A00816080937A0080917A00806863
:1011200080937A001092C10080EF91E090935E026C
:1011300080935D021092600210925F02109265022D
:101140001092660210926702109268021092690271
:1011500010926A0210926B0210926C0210926D0251
:1011600010926E0210926F02109270021092710231
:101170001092720210927302109274021092750211
:1011800010927602109277021092780210927902F1
:1011900010927A0210927B0210927C0210926202EC
:1011A0001092610210926402109263020E948C00FD
:1011B0004AE350E069E072E088EA96E00E94DB06CC
:1011C0000E948C004FE350E069E172E086EF95E009
:1011D0000E94DB0664EF71E080E090E00E94F6017F
:1011E00041E450E065E272E08CE196E00E94DB06AB
:1011F00064EF71E080E090E00E94F60143E450E08B
:1012000062E372E08CE295E00E94DB0664EF71E03D
:1012100080E090E00E94F60145E450E064E472E072
:1012200081E496E00E94DB0664EF71E080E090E0EC
:101230000E94F6018AE090E00E94460385E291E078
:101240000E94F2038AE090E00E94460360916902E6
:1012500070916A0280916B0290916C020E94D60399
:101260008DE191E00E94F20360916D0270916E0237
:1012700080916F02909170020E94D60382E191E00A
:101280000E94F20360917102709172028091730268
:10129000909174020E94D60388E091E00E94F203CC
:1012A0008AE090E00E94460380916D0290916E0268
:1012B000A0916F02B0917002892B8A2B8B2B19F4AD
:1012C00085E091E002C08DE391E00E94F2038AE0A4
:1012D00090E00E94460384E992E00E941A0384E9A8
:1012E00092E00E941A03E091A602F091A702808189
:1012F0008F7E8083E091A602F091A7028081877F94
:101300008083E091A602F091A70280818F7780838D
:10131000E091A602F091A70280818F7D8083809169
:10132000AE028093AD020E943C034CCFA1E21A2E84
:10133000AA1BBB1BFD010DC0AA1FBB1FEE1FFF1F79
:10134000A217B307E407F50720F0A21BB30BE40BC9
:10135000F50B661F771F881F991F1A9469F7609510
:101360007095809590959B01AC01BD01CF010895CA
:101370000E94C909A59F900DB49F900DA49F800D58
:10138000911D11240895EE0FFF1F0590F491E02D9B
:101390000994A29FB001B39FC001A39F700D811D4E
:1013A0001124911DB29F700D811D1124911D08956E
:1013B00081E090E0F8940C941E0ADC012D923D929D
:1013C0004D925D926D927D928D929D92AD92BD9265
:1013D000CD92DD92ED92FD920D931D93CD93DD9311
:1013E000FF91EF918DB78D938EB78D938FB78D93BE
:1013F000ED93FD93882799270994DC01CB01813077
:101400009105811D2D903D904D905D906D907D904A
:101410008D909D90AD90BD90CD90DD90ED90FD9024
:101420000D911D91CD91DD91ED91FD910D90F8946F
:10143000FEBF0FBEEDBFED91FD910994F894FFCF73
:1014400050415353004F4B002049676E6F726564E3
:101450002000204661696C75726573200020546518
:1014600073747320002D2D2D2D2D2D2D2D2D2D2D13
:101470002D2D2D2D2D2D2D2D2D2D2D2D0046414980
:101480004C0020417267756D656E74200046756E64
:101490006374696F6E20002E200020576173200056
:1014A000204578706563746564200000000000D3F7
:1014B000023C026B021A039C027A028E020D0A00A1
:1014C000627574746F6E20697320636C69636B65F9
:1014D00064002045787065637465642054525545F6
:1014E000205761732046414C5345007072657373F9
:1014F00020627574746F6E2C20706C656173652149
:1015000000737461727420627265617468696E67D9
:101510000066696E697368206F6E65206C6F6F700E
:101520000073746F7020627265617468696E670021
:10153000746573742F746573745F62726561746827
:101540005F6C69622E63707000746573745F70699C
:101550006E5F6E756D62657200746573745F6C6545
:10156000645F6F6E00746573745F6C65645F6F6653
:101570006600746573745F636C69636B5F62757436
:10158000746F6E00746573745F6C65645F6272651E
:04159000617468001A
:00000001FF
