:100000000C94C5010C94F6010C94F6010C94F601C5
:100010000C94F6010C94F6010C94F6010C94F60184
:100020000C94F6010C94F6010C94F6010C94F60174
:100030000C94F6010C94DA0F0C94F6010C94F60172
:100040000C94F6010C94F6010C94F6010C94F60154
:100050000C94F6010C94F6010C94F6010C945A12CF
:100060000C94F6010C94B00F0C94860F0C94F601CE
:100070000C94F6010C94F6010C94F6010C94F60124
:100080000C94F6010C94F6010C94F6010C94F60114
:100090000C945C0F0C94320F0C94F6010C94F60146
:1000A0000C94F6010C94F6010C94F6010C94F601F4
:1000B0000C94F6010C94F6010C94F6010C94F601E4
:1000C0000C94F6010C94F6010C94F6010C94F601D4
:1000D0000C94F6010C94F6010C94F6010C94F601C4
:1000E0000C94F601FB10FE10ED10F110F510351117
:1000F000021106110C11101114111A111E112211E6
:10010000351128112C113011AE11B311B811C211D3
:10011000CC114512D611DE11E611F011FA110412BC
:1001200013121D124512271231123B120C944B0967
:100130000C94FB100C9471020C9435110C94550323
:100140000C94DE080C94F1100C94E6110C94ED1054
:100150000C94E0140C94B4070C9406110C944F0208
:100160000C94AE110C944A0A0C9463020C94720A1B
:100170000C9416060C9436040C94FA110C9422116B
:100180000C9427120C945B030C94F9070C94DE1169
:100190000C9402110C94090C0C9440020C942C1138
:1001A0000C9445120C9450030C94FE100C948F0781
:1001B0000C9485090C94B8110C94AE070C9432067B
:1001C0000C940A040C941D120C94DB080C9430114E
:1001D0000C94CC110C9413120C94B1070C947F0462
:1001E0000C9414110C943B120C9458030C94F902C7
:1001F0000C94B7070C9433040C94FF070C94F01183
:100200000C9428110C9447060C941A110C94E108D4
:100210000C94D6110C9427090C94F50A0C941E1119
:100220000C9473040C94F8010C9479040C945F03FF
:100230000C94B2020C94AB090C9476040C94FC0759
:100240000C94F5100C9404120C940C110C947C0476
:100250000C9410110C94AB070C94C2110C94300444
:100260000C9431120C94B3110000200023002600DE
:1002700029002C002F0032000001000003010601BC
:10028000090100002100240027002A002D00300071
:10029000330001010000040107010A0100002200EF
:1002A000250028002B002E00310034000201000040
:1002B000050108010B0105050505070508080808E3
:1002C000020202020A0A08080404040401010101EE
:1002D00001010101030303030303030304070707E9
:1002E0000C0C0C0C0C0C0C0C02020202060606068E
:1002F000060606060B0B0B0B0B0B0B0B010210205B
:10030000200808102040102040800201020108044B
:1003100002010102040810204080804020100804DF
:100320000201800402018040201008040201080438
:10033000020101020408102040800102040810207C
:10034000408000000A0B02090C0D0E08070304018F
:10035000000000000000000000000000000000009D
:10036000000000000000000000000000000012116A
:10037000100000000000000000000000000000006D
:100380000000000000000000E01411241FBECFEFA9
:10039000D1E2DEBFCDBF00E00CBF14E0A0E0B2E0D0
:1003A000E2E2F2E300E00BBF02C007900D92A43539
:1003B000B107D9F72AE0A4E5B4E001C01D92AC383A
:1003C000B207E1F711E0C5ECD1E000E006C02197EB
:1003D0000109802FFE010E942D16C43CD10780E048
:1003E0000807A9F70E94E9120C940F190C94000059
:1003F000CF92DF92EF92FF920F931F93CF93DF93F1
:100400006C017A018B01C0E0D0E0CE15DF0589F0E8
:10041000D8016D918D01D601ED91FC910190F08193
:10042000E02DC6011995892B11F47E0102C0219699
:10043000ECCFC701DF91CF911F910F91FF90EF900B
:10044000DF90CF900895FC01A089B1898C91A68995
:10045000B78982FD0FC09C91818D8F5F8F73228D34
:10046000821749F0218DDF01A20FB11D5D969C938B
:10047000818F08958C910895089580E090E008950B
:10048000FC01538D448D252F30E0842F90E0821B9A
:10049000930B541710F0CF96089501970895FC011F
:1004A000918D828D981761F0828DDF01A80FB11DAB
:1004B0005D968C91928D9F5F9F73928F90E00895CF
:1004C0008FEF9FEF0895FC01918D828D981731F089
:1004D000828DE80FF11D858D90E008958FEF9FEFDD
:1004E0000895FC01918D228D892F90E0805C9F4FB3
:1004F000821B91098F739927089587E095E00E94E8
:10050000710221E0892B09F420E0822F08958AE608
:1005100094E00E94710221E0892B09F420E0822FEF
:100520000895FC01848DDF01A80FB11DA35ABF4FB0
:100530002C91848D90E001968F739927848FA689E2
:10054000B7892C93A089B1898C9180648C93938D09
:10055000848D981306C00288F389E02D80818F7DF9
:1005600080830895EF92FF920F931F93CF93DF93B1
:10057000EC0181E0888F9B8D8C8D981305C0E889F4
:10058000F989808185FD24C0F62E0B8D10E00F5F68
:100590001F4F0F731127E02E8C8DE8120CC00FB681
:1005A00007FCFACFE889F989808185FFF5CFCE0174
:1005B0000E949102F1CF8B8DFE01E80FF11DE35AED
:1005C000FF4FF0820B8FEA89FB898081806207C030
:1005D000EE89FF896083E889F9898081806480835E
:1005E00081E090E0DF91CF911F910F91FF90EF900C
:1005F0000895CF93DF93EC01888D8823C9F0EA89B1
:10060000FB89808185FD05C0A889B9898C9186FD0B
:100610000FC00FB607FCF5CF808185FFF2CFA88908
:10062000B9898C9185FFEDCFCE010E949102E7CF71
:10063000DF91CF91089580E090E0892B21F00E9416
:100640008702811121C080E090E0892B21F00E9477
:100650007D0281111CC080E090E0892B41F080E098
:1006600090E0892B21F00E940000811113C080E0EE
:1006700090E0892BA1F080E090E0892B81F00E942E
:10068000000081110AC008950E940000DCCF0E9482
:100690000000E1CF0E940000EACF0C940000089512
:1006A000FC01EE57FB4F808108958CEA92E008959B
:1006B0008DEC92E00895FC0186A197A108958F9298
:1006C0009F92AF92BF92CF92DF92EF92FF920F93E1
:1006D0001F93CF93DF9300D01F921F92CDB7DEB749
:1006E0008C016B0164E6C616D1043CF0FC01EE57A8
:1006F000FB4F8081882309F478C0DA01ED91FC91E9
:100700000190F081E02DB801655E7D4FCA01199519
:100710009C017801BCEEEB1ABDEFFB0A4FEFF7012D
:1007200040834EEF3196408331968083319690839B
:100730003196890F809580833196C082D801A65E5C
:10074000BD4FDC9265E070E040E050E0C9010796E3
:100750006817790730F4A1914A0F511D6F5F7F4FE1
:10076000F7CF6901F8E0CF0ED11C800F911FFC017B
:10077000EC5EFD4F4095408341E0C41642E0D40654
:10078000C1F056014701D80112968D919C911397A3
:10079000F40161914F01DC01ED91FC910190F08138
:1007A000E02D1995C4018E199F098C159D055CF3E8
:1007B0001EC080E492E09A83898383E08B8381EE7C
:1007C00092E09D838C83D801ED91FC910190F081A2
:1007D000E02DAE014F5F5F4F67E070E0C8011995F3
:1007E000AA24AA94BB24BA9402C0A12CB12CC5019E
:1007F0000F900F900F900F900F90DF91CF911F915E
:100800000F91FF90EF90DF90CF90BF90AF909F90AF
:100810008F9008951092B2001092690410926804AB
:1008200021E030E03093010220930002FC0144817A
:100830005581668177814093600450936104609391
:1008400062047093630480859185A285B38580934B
:100850005C0490935D04A0935E04B0935F040895DC
:100860008AE193E008958BE393E00895AF92BF92FD
:10087000CF92DF92EF92FF920F931F93CF93DF936C
:100880005C01FB0181919191A191B1916C017D017C
:1008900024E0C20ED11CE11CF11C8F01061B170BBA
:1008A00020E030E00C151D052E053F0538F4419180
:1008B0009F0122503109E9014883EFCFFB01E80F86
:1008C000F91F13826D5F7F4FF50173836283049676
:1008D000DF91CF911F910F91FF90EF90DF90CF901C
:1008E000BF90AF9008958CEA92E008958DEC92E06D
:1008F00008958BE493E008958CE693E00895CF92F9
:10090000DF92EF92FF920F931F93DC01FB01438173
:10091000429546954770C42ED12CE12CF12C1296AD
:10092000CD92DD92ED92FC921597448150E060E00B
:1009300070E093E0440F551F661F771F9A95D1F71B
:100940004C295D296E297F2912964D935D936D93F5
:100950007C931597058110E020E030E08BE0000FDC
:10096000111F221F331F8A95D1F7402B512B622B69
:10097000732B12964D935D936D937C93159706811F
:100980000F7010E020E030E093E1000F111F221FF4
:10099000331F9A95D1F7042B152B262B372B129644
:1009A0000D931D932D933C931597868182958F709F
:1009B00047814F7750E060E070E094E0440F551FAE
:1009C000661F771F9A95D1F7482B41155105610590
:1009D0007105A9F0405853406109710987E1440F3E
:1009E000551F661F771F8A95D1F7402B512B622B1D
:1009F000732B12964D935D936D937C93159787811E
:100A000087FF07C0305812960D931D932D933C938A
:100A100015974385429546954770C42ED12CE12CFD
:100A2000F12C1696CD92DD92ED92FC9219974485A9
:100A300050E060E070E093E0440F551F661F771FA1
:100A40009A95D1F74C295D296E297F2916964D93E9
:100A50005D936D937C931997058510E020E030E05D
:100A60008BE0000F111F221F331F8A95D1F7402BF7
:100A7000512B622B732B16964D935D936D937C9344
:100A8000199706850F7010E020E030E093E1000F29
:100A9000111F221F331F9A95D1F7042B152B262BDC
:100AA000372B16960D931D932D933C93199786859E
:100AB00082958F7047854F7750E060E070E094E05A
:100AC000440F551F661F771F9A95D1F7482B411584
:100AD000510561057105A9F040585340610971093C
:100AE00087E1440F551F661F771F8A95D1F7402B6A
:100AF000512B622B732B16964D935D936D937C93C4
:100B00001997878587FF07C0305816960D931D9358
:100B10002D933C9319974389429546954770C42E6F
:100B2000D12CE12CF12C1A96CD92DD92ED92FC9213
:100B30001D97448950E060E070E093E0440F551F3A
:100B4000661F771F9A95D1F74C295D296E297F2959
:100B50001A964D935D936D937C931D97058910E0D4
:100B600020E030E08BE0000F111F221F331F8A9519
:100B7000D1F7402B512B622B732B1A964D935D931B
:100B80006D937C931D9706890F7010E020E030E094
:100B900093E1000F111F221F331F9A95D1F7042BE9
:100BA000152B262B372B1A960D931D932D933C93C3
:100BB0001D97868982958F7047894F7750E060E056
:100BC00070E094E0440F551F661F771F9A95D1F788
:100BD000482B4115510561057105A9F04058534056
:100BE0006109710987E1440F551F661F771F8A95B8
:100BF000D1F7402B512B622B732B1A964D935D939B
:100C00006D937C931D97878987FF07C030581A968C
:100C10000D931D932D933C931D9788E190E01F91B8
:100C20000F91FF90EF90DF90CF900895EF92FF9299
:100C30000F931F93CF93DF937C01EB0102960E94E9
:100C40007F048C01BE01680F791FC70140960E9486
:100C50007F04800F911FDF91CF911F910F91FF9023
:100C6000EF9008950F931F93CF93DF938C01EC01C6
:100C70002696CE010E941606D8019496ED91FC911D
:100C80009597CE01DF91CF911F910F911994CF923B
:100C9000DF92EF92FF920F931F93CF93DF938C011C
:100CA000EB01FC014281538164817581DB01CA0142
:100CB000E7E1B595A79597958795EA95D1F7992797
:100CC000AA27BB270097A105B10521F080589C4FAA
:100CD000AF4FBF4F188219821A826A017B0135E03B
:100CE000CC0CDD1CEE1CFF1C3A95D1F7CB826A01BF
:100CF0007B01E3E0F594E794D794C794EA95D1F7A4
:100D0000CC826A017B01FBE0F594E794D794C79409
:100D1000FA95D1F7CD826C017D0124E0CC0CDD1C6D
:100D2000EE1CFF1C2A95D1F733E175956795579511
:100D300047953A95D1F74F70C42ACE826C017D0158
:100D400044E0F594E794D794C7944A95D1F7CF82BD
:100D500020E030E0A901F8016281738184819581EE
:100D60000E94631687FF03C08C2D80688F83F80173
:100D70004681578160857185DB01CA0127E1B59500
:100D8000A795979587952A95D1F79927AA27BB27E5
:100D90000097A105B10521F080589C4FAF4FBF4F80
:100DA000188619861A866A017B01F5E0CC0CDD1CD9
:100DB000EE1CFF1CFA95D1F7CB866A017B0123E07C
:100DC000F594E794D794C7942A95D1F7CC866A0115
:100DD0007B013BE0F594E794D794C7943A95D1F71B
:100DE000CD866C017D01E4E0CC0CDD1CEE1CFF1C0B
:100DF000EA95D1F7F3E17595679557954795FA957B
:100E0000D1F74F70C42ACE866C017D01A4E0F59421
:100E1000E794D794C794AA95D1F7CF8620E030E025
:100E2000A901F80166817781808591850E9463160A
:100E300087FF03C08C2D80688F87F801828593859A
:100E4000A485B585AC01BD01E7E17595679557951A
:100E50004795EA95D1F7552766277727411551051C
:100E60006105710521F040585C4F6F4F7F4F188A24
:100E7000198A1A8A6C017D0125E0CC0CDD1CEE1C60
:100E8000FF1C2A95D1F7CB8A6C017D0133E0F594E4
:100E9000E794D794C7943A95D1F7CC8A6C017D0139
:100EA000EBE0F594E794D794C794EA95D1F7CD8A0F
:100EB0006A017B01F4E0CC0CDD1CEE1CFF1CFA95F2
:100EC000D1F723E1B595A795979587952A95D1F701
:100ED0008F70C82ACE8A6A017B0134E0F594E794CA
:100EE000D794C7943A95D1F7CF8A20E030E0A90192
:100EF000F80162857385848595850E94631687FF56
:100F000003C04C2D40684F8B88E190E0DF91CF917A
:100F10001F910F91FF90EF90DF90CF900895EF9287
:100F2000FF920F931F93CF93DF937C01EB01029607
:100F30000E9447068C01BE01680F791FC7014096C9
:100F40000E944706800F911FDF91CF911F910F9153
:100F5000FF90EF90089582E893E0089588E092E092
:100F6000089583EA93E0089584EC93E00895AF92A6
:100F7000BF92CF92DF92EF92FF920F931F93CF9386
:100F8000DF935C01EB018881F501828389819A817D
:100F9000AB81BC81FB0135966C017D0125E0C20E61
:100FA000D11CE11CF11C8F01061B170B20E030E067
:100FB0000C151D052E053F0538F441919F01225067
:100FC0003109E9014883EFCFFB01E80FF91F1482D3
:100FD0006C5F7F4FF501748363830596DF91CF913A
:100FE0001F910F91FF90EF90DF90CF90BF90AF9047
:100FF000089587ED93E0089588EF93E008956F9248
:101000007F928F929F92AF92BF92CF92DF92EF9298
:10101000FF920F931F93CF93DF93DC01FB0180813D
:1010200090E013969C938E9312972181922B1396A6
:101030009C938E93129702811381248135815B01E9
:1010400086E0A80EB11C68017901C6E0CC0ED11C67
:10105000E11CF11CA5014E1B5F0B60E070E04C151C
:101060005D056E057F0540F4E50149915E01CE0105
:101070000297EC014883EECFEF01C00FD11F1D8214
:10108000CF01059615969C938E931497EF01C00F90
:10109000D11F4E815F8168857985065F1F4F3F01B3
:1010A000600E711E6801012E000CEE08FF08C40ED0
:1010B000D51EE61EF71E43018E1A9F0AA12CB12CE5
:1010C0008C149D04AE04BF0440F4E30129913E0159
:1010D000CE010297EC012883EECF400F511F9F01F4
:1010E000240F351FC9010197EC011882C80101972F
:1010F0008E0F9F1F17969C938E931697E9018880F9
:101100009980AA80BB804C5F5F4F3F01640E751EC3
:101110008A01052E000C220B330B080D191D2A1D08
:101120003B1D6301CE1ADF0AE12CF12CC016D1065B
:10113000E206F30640F4E30169913E01CE01029715
:10114000EC016883EECFCA01880D991D8F01080F4D
:10115000191F980121503109E9011882BA01615023
:101160007109E60FF71F1996FC93EE931897F80193
:101170002181428150E060E070E0BA0155274427A8
:10118000522B2081422B2381722B1A964D935D9313
:101190006D937C931D970496DF91CF911F910F91D2
:1011A000FF90EF90DF90CF90BF90AF909F908F9087
:1011B0007F906F90089581E194E0089582E394E038
:1011C0000895FC01DB014C9150E060E070E0428347
:1011D00053836483758311968C911197582B4283A6
:1011E00053836483758312968C911297682B428384
:1011F00053836483758313968C911397782B428362
:1012000053836483758314964C91149750E060E087
:1012100070E0468357836087718715968C91159788
:10122000582B468357836087718716968C91169743
:10123000682B468357836087718717968C91782B2C
:10124000468357836087718788E090E00895DC01CA
:10125000FB0112968C911297808313968C911397B1
:10126000818314968C911497828315968C9115978F
:10127000838316968C911697848317968C91179773
:10128000858318968C911897868319968C918783FD
:1012900088E090E008950E94D4170F931F93CF9396
:1012A000DF93CDB7DEB72A970FB6F894DEBF0FBE37
:1012B000CDBF8C0184E392E09A8389831B821C82D8
:1012C0001D821E821F82188619861A86D801ED910A
:1012D000FC910190F081E02DAE014F5F5F4F6AE01D
:1012E00070E0C80119950E944E12F801608771875D
:1012F000828793872A960FB6F894DEBF0FBECDBFC4
:10130000DF91CF911F910F910895CF93DF93362FE7
:10131000272FDC011296ED91FC911397EF010990B4
:101320000020E9F72197CE1BDF0BAE0160E070E0F3
:10133000E32FF22F419351936193719312966D9124
:101340007C911397AE01CF010E94D917CE0104966C
:10135000DF91CF910895BF92CF92DF92EF92FF92EB
:101360000F931F93CF93DF93EC018B018A81FB01D5
:101370008083118212821382DB01179680E0E4E001
:10138000F0E09A819F012C5F3F4F8917B8F4EF81FD
:10139000F88594E0899FE00DF11D11247081518141
:1013A00042819381FD01339770833196508331964A
:1013B00040839C93F9018F5F1496E3CF8985E00FFA
:1013C000F11F808311821282138280E09985F801D7
:1013D000E20FF31F2C5F3F4F8917B0F4AE85BF8536
:1013E00094E0899FA00DB11D11246C9111965C9120
:1013F000119712964C91129713969C91608351838A
:10140000428393838F5FE2CF888980831182128227
:10141000C9011382B12C2889B21690F5EB2DF0E0AA
:10142000EE0FFF1FAB89BC89AE0FBF1F2D913C9102
:10143000D9010D900020E9F711976D01C21AD30A66
:10144000D801A80FB91FA60160E070E04D935D932D
:101450006D937C9313977C0124E0E20EF11C8B8941
:101460009C89E80FF91F60817181A601C8018E0D6A
:101470009F1D0E94D917C6018E0D9F1DB394CBCF1F
:10148000DF91CF911F910F91FF90EF90DF90CF9060
:10149000BF900895CF93DF93DC01FB0112968C91EE
:1014A0001297808313968D919C911497EC0109906B
:1014B0000020E9F72197C81BD90BAE0160E070E06E
:1014C000418352836383748313966D917C91149747
:1014D000AE01CF0105960E94D917CE010596DF9186
:1014E000CF910895CF92DF92EF92FF920F931F93C7
:1014F000CF93DF937C01EB01FC01828188838381A0
:101500008983A481B581FD0101900020E9F731971D
:101510006F01CA1ADB0AC601A0E0B0E08A839B8390
:10152000AC83BD83F70164817581A601CE01069667
:101530000E94D917F701A681B781FD010190002013
:10154000E9F731978F010A1B1B0BFE01EC0DFD1D06
:10155000C801A0E0B0E086839783A087B187FAE056
:10156000CF0ED11CF70166817781A801CE018C0DC9
:101570009D1D0E94D9170C0D1D1DF701A085B18579
:10158000FD0101900020E9F731976F01CA1ADB0ACB
:10159000FE01E00FF11FC601A0E0B0E0808391835F
:1015A000A283B3830C5F1F4FF70160857185A6018D
:1015B000CE01800F911F0E94D9170C0D1D1DF70140
:1015C0004285238594858585C00FD11F4883298353
:1015D0009A838B83C8010496DF91CF911F910F915D
:1015E000FF90EF90DF90CF9008954F925F926F92AF
:1015F0007F928F929F92AF92BF92CF92DF92EF92A3
:10160000FF920F931F93CF93DF93EC017B01DB01DC
:101610001C918A81811750F4B4E01B9FB001112402
:101620008F8198850E94EB1698878F831A83F70124
:10163000379680E024E030E06E0193E0C90ED11CC3
:101640009A8189010C5F1F4F891790F5408150E006
:1016500060E070E0742F6627552744279F012350D0
:101660003109D9019C91492B2F5F3F4FD9019C91A2
:10167000592B2F5F3F4FD9019C91692B4B835C8382
:101680006D837E8398014F815885B4E08B9F400D18
:10169000511D1124D6018D909D90AD90BC90DA0122
:1016A0008D929D92AD92BC9213978F5F3496C8CF66
:1016B000F701E20FF31FB08089858B1550F4B4E079
:1016C000BB9EB00111248E859F850E94EB169F87DB
:1016D0008E87B98640E0BE01665F7F4F8985F7013E
:1016E000E00FF11F0C5F1F4F481720F551818281D9
:1016F00090E0A0E0B0E0DC0199278827952B50818D
:10170000852B2381B22B8A879B87AC87BD87AE85CB
:10171000BF85E4E04E9FA00DB11D1124FB01808028
:101720009180A280B3808D929D92AD92BC921397CE
:101730004F5FD4CFB08088898B1550F46B2D70E04B
:10174000660F771F8B899C890E94EB169C8B8B8B75
:10175000B88A90E06E01F1E1CF0ED11C888998170C
:1017600008F045C0F701E00FF11F4081518162810F
:10177000738198012C5F3F4FF701E20FF31F49017E
:10178000032E000CAA08BB08840E951EA61EB71EC9
:101790008F010E191F092801612C712C481459045E
:1017A0006A047B0438F481918F0102501109D80139
:1017B0008C93EECF420F531FF701E40FF51F3197C3
:1017C0001082215031092E0D3F1D3A8B298B8A0141
:1017D0002B898C89E22FF82FE90FF11DE90FF11DFC
:1017E000D6012D913C91318320839F5FB7CFC801F3
:1017F000DF91CF911F910F91FF90EF90DF90CF90ED
:10180000BF90AF909F908F907F906F905F904F9020
:1018100008952F923F924F925F926F927F928F9294
:101820009F92AF92BF92CF92DF92EF92FF920F936F
:101830001F93CF93DF93CDB7DEB7A8970FB6F89479
:10184000DEBF0FBECDBF8C010E944E122B013C01AA
:10185000980129573B4F3C8B2B8BF901808191815B
:10186000A281B381A3019201281B390B4A0B5B0BA8
:10187000DA01C901893F9A42A105B10510F03597F7
:101880001082780148E8E41A4BEFF40AD7018D91F1
:101890009C91892B79F0F801E557FB4F808191816C
:1018A000A281B38184159505A605B70518F4F70143
:1018B00011821082980120583B4F388B2F87A80146
:1018C00044585B4F5A8B498BC80144969E8B8D8B35
:1018D000D801AE57BB4FBA8FA98FF801E057FB4F25
:1018E000F8A3EF8F215F3F4F3AA329A3180136E8F1
:1018F000231A3BEF330A4E5F5F4F588F4F8B895847
:101900009B4F9CA38BA3A30192012C5E3F4F4F4F93
:101910005F4F2DA33EA34FA358A7D80112968D91D8
:101920009C911397DC01ED91FC910284F385E02DED
:1019300019959C0197FD55C2EF85F88980819181A9
:10194000820F931F91838083D7014D915C91473023
:101950005105C9F4EF89F88D80819181AC014F5F09
:101960005F4F51834083F801E80FF91F248BD101A9
:101970008D919C91119701978D939C93892B69F67A
:1019800088E090E01FC041155105A1F42F3F3105BB
:1019900021F681E090E0D7018D939C932DA13EA18B
:1019A0004FA158A5ABA1BCA12D933D934D935C9342
:1019B0001397B3CF41305105A9F42E3F310531F4CF
:1019C00082E090E0F70191838083A7CFD7011D9239
:1019D0001C92E98DFA8D808181119FCFC8010E94F0
:1019E0004D099BCF4230510589F4D1012D933C9391
:1019F000EF89F88D1182108283E090E0D7018D93FA
:101A00009C93EF85F8893183208387CF433051053C
:101A100069F4322F2227D1018D919C911197280FC3
:101A2000391F2D933C9384E090E0CCCF4430510596
:101A300089F460E071E00E94F7158F3F910531F461
:101A400085E090E0D7018D939C9367CFF7011182D9
:101A5000108263CF4530510571F4A989BA892D935D
:101A60003C9386E090E0F70191838083AF85B8894D
:101A70002D933C9352CF4630510599F4322F2227B3
:101A8000E989FA8980819181280F391F3183208368
:101A900087E090E0D7018D939C93F1018081918143
:101AA0006DCF4830510509F038CFD7011D921C92F7
:101AB00060E071E00E94F7158F3F910509F02DCF8E
:101AC000E989FA8980819181009709F0B9C0C8013C
:101AD0000E944D0988E292E09A8389835801FCEEC6
:101AE000AF1AFBEFBF0A68012AEBC21A2BEFD20A2A
:101AF000D501ED91FC913097D9F1848195819C833A
:101B00008B83808191819E838D8382819381DC018F
:101B1000ED91FC910480F581E02D199598878F83D4
:101B2000D501ED91FC9182819381DC01ED91FC91D5
:101B30000680F781E02D19959A87898720E032E0A9
:101B400040E050E02B873C874D875E87D8018D9120
:101B50009C91F501A081B18118966D917C911997A6
:101B6000DC01ED91FC91AE014F5F5F4FC80119950B
:101B7000B2E0AB0EB11CAC14BD0409F0B9CF812C9E
:101B800092E0992EA12CB12CF601A081B181109781
:101B9000E1F112968D919C9113979C838B831496FF
:101BA0008D919C9115979E838D83ED91FC9111975A
:101BB0000480F581E02DCD01199598878F83D6019A
:101BC0008D919C91DC01ED91FC910680F781E02DD7
:101BD00019959A8789878B869C86AD86BE86D801A3
:101BE000ED91FC9120803180F60180819181DC01B2
:101BF000ED91FC910280F381E02D1995AE014F5FCC
:101C00005F4FBC01C801F1011995F2E0CF0ED11C64
:101C1000CE14DF0409F0B8CFF801EE57FB4F81E096
:101C2000808331964082518262827382AB89BC8903
:101C30004D925D926D927C9213978FEF9FEFF9C05A
:101C40008A30910509F0A2C084E392E09A838983E7
:101C50001B821C821D821E821F82188619861A868C
:101C60000E944E12F80180849184A284B3849B0167
:101C7000AC01281939094A095B0949015A016D89E2
:101C80007E89CE0101960E94E108C501B40128EECB
:101C900033E040E050E00E940B168B809C80AD80CA
:101CA000BE80820E931EA41EB51E8B829C82AD82C6
:101CB000BE829B01AC0160E472E48FE090E00E9480
:101CC000E7158F809884A984BA84DC01CB01880D44
:101CD000991DAA1DBB1D8F839887A987BA870E946B
:101CE0004E128F809884A984BA8436E3931A35E61D
:101CF000A30A34ECB30A28EE33E040E050E00E943F
:101D00000B162B8F3C8F4D8F5E8F9B01AC0160E4D7
:101D100072E48FE090E00E94E715A5019401261B74
:101D2000370B480B590BCA01B9018B809C80AD80E1
:101D3000BE8031E0831A9108A108B1082B8D3C8D3B
:101D40004D8D5E8D821A930AA40AB50A20E03AEC02
:101D50004AE95BE30E940B16820E931EA41EB51E79
:101D6000D8011C968D929D92AD92BC921F97F8015E
:101D7000608B718B828B938B0E944E12AB89BC89D6
:101D80006D937D938D939C931397C7CD863091056A
:101D900059F46D897E898F8D98A10E94F50A81E0A2
:101DA000E9A1FAA18083B9CD8B30910521F4A98DE9
:101DB000BA8D1C92B2CDFC01E154FE4FEE0FFF1F15
:101DC000E00FF11F80819181009709F4A6CDDC011D
:101DD000ED91FC910190F081E02D6D897E8919953E
:101DE0009CCDF801EE57FB4F8081882301F17801EB
:101DF000BDE7EB1ABBEFFB0AF70180819181A2815D
:101E0000B381A3019201281B390B4A0B5B0BDA014A
:101E1000C901853C9940A105B10548F0C8010E945F
:101E20004D09D7014D925D926D927C92139780E09F
:101E300090E0A8960FB6F894DEBF0FBECDBFDF913D
:101E4000CF911F910F91FF90EF90DF90CF90BF90B7
:101E5000AF909F908F907F906F905F904F903F904A
:101E60002F9008951F920F920FB60F9211240BB668
:101E70000F922F933F934F935F936F937F938F9323
:101E80009F93AF93BF93EF93FF9387E095E00E94FA
:101E90009102FF91EF91BF91AF919F918F917F91AF
:101EA0006F915F914F913F912F910F900BBE0F90CB
:101EB0000FBE0F901F9018951F920F920FB60F92A2
:101EC00011240BB60F922F933F934F935F936F9311
:101ED0007F938F939F93AF93BF93EF93FF9387E08D
:101EE00095E00E942302FF91EF91BF91AF919F91E6
:101EF0008F917F916F915F914F913F912F910F90B3
:101F00000BBE0F900FBE0F901F9018951F920F924F
:101F10000FB60F9211240BB60F922F933F934F934E
:101F20005F936F937F938F939F93AF93BF93EF9341
:101F3000FF938AE694E00E949102FF91EF91BF9196
:101F4000AF919F918F917F916F915F914F913F9151
:101F50002F910F900BBE0F900FBE0F901F901895F2
:101F60001F920F920FB60F9211240BB60F922F9360
:101F70003F934F935F936F937F938F939F93AF9311
:101F8000BF93EF93FF938AE694E00E942302FF91B0
:101F9000EF91BF91AF919F918F917F916F915F91E1
:101FA0004F913F912F910F900BBE0F900FBE0F904E
:101FB0001F9018951F920F920FB60F9211242F9316
:101FC0003F935F936F937F938F939F93AF93BF9351
:101FD0002091680430916904C90163E070E00E94B7
:101FE000F715892B31F081E090E09093670480939E
:101FF00066042E31310524F0109201021092000285
:102000002F5F3F4F3093690420936804BF91AF91D5
:102010009F918F917F916F915F913F912F910F9041
:102020000FBE0F901F901895CF92DF92EF92FF9204
:102030000F931F93CF93DF93EC016A017B01E88933
:10204000F98982E080834115514E61057105B1F037
:1020500060E079E08DE390E0A70196010E940B1605
:1020600089019A01015011092109310936952795F5
:1020700017950795980101151041A8F0E889F9898D
:10208000108260E874E88EE190E0A70196010E945A
:102090000B16DA01C9010197A109B109B695A795F7
:1020A000979587959C01EC85FD853083EE85FF85AE
:1020B0002083188EEC89FD8986E08083EA89FB897C
:1020C000808180618083EA89FB8980818860808348
:1020D000EA89FB89808180688083EA89FB89808125
:1020E0008F7D8083DF91CF911F910F91FF90EF90B3
:1020F000DF90CF9008958F929F92AF92BF920F93EF
:102100001F93CF93DF93CDB7DEB7A1970FB6F894A7
:10211000DEBF0FBECDBF19A2423008F44AE08E01E7
:102120000F5D1F4F842E912CA12CB12CA501940181
:102130000E940B16E62FB901CA0101501109EA30BD
:1021400014F4E05D01C0E95CD801EC93232B242B4F
:10215000252B61F70115110571F0F80101900020A0
:10216000E9F73197AF01401B510BB8018AE694E0C3
:102170000E94F80102C080E090E0A1960FB6F894AA
:10218000DEBF0FBECDBFDF91CF911F910F91BF90EA
:10219000AF909F908F900895362F90E0FC01EE5BFA
:1021A000FC4F4491FC01E450FD4F2491FC01EA54A2
:1021B000FD4F9491992309F46BC0442309F455C051
:1021C00050E0FA013197E231F10508F04EC088275E
:1021D000EE58FF4F8F4F0C942D16809180008F7713
:1021E00007C0809180008F7D03C080918000877F31
:1021F000809380003AC084B58F7702C084B58F7D0C
:1022000084BD33C08091B0008F7703C08091B0004F
:102210008F7D8093B00029C0809190008F7707C098
:10222000809190008F7D03C080919000877F809384
:1022300090001BC08091A0008F7707C08091A00004
:102240008F7D03C08091A000877F8093A0000DC088
:10225000809120018F7707C0809120018F7D03C07E
:1022600080912001877F80932001E92FF0E0EE0F1D
:10227000FF1FE456FD4FA591B4918FB7F894EC91F0
:10228000311103C020952E2301C02E2B2C938FBF1C
:102290000895CF93DF9390E0FC01E450FD4F24912B
:1022A000FC01EA54FD4F8491882361F190E0880F8E
:1022B000991FFC01EE57FD4FC591D491FC01E456E6
:1022C000FD4FA591B491611109C09FB7F894888121
:1022D000209582238883EC912E230BC0623061F419
:1022E0009FB7F8943881822F809583238883EC915F
:1022F0002E2B2C939FBF06C08FB7F894E8812E2B0E
:1023000028838FBFDF91CF9108951F93CF93DF93E1
:10231000182FEB0161E00E944911209711F460E051
:1023200004C0CF3FD10539F461E0812FDF91CF9117
:102330001F910C94CC10E12FF0E0EE5BFC4FE49188
:102340004E2F50E0FA013197E231F10508F09DC0BF
:102350008827EC57FF4F8F4F0C942D1684B580685B
:1023600084BDC7BD97C084B5806284BDC8BD92C01E
:1023700080918000806880938000D0938900C09312
:10238000880088C080918000806280938000D09314
:102390008B00C0938A007EC080918000886080930B
:1023A0008000D0938D00C0938C0074C08091B000E9
:1023B00080688093B000C093B3006CC08091B0007F
:1023C00080628093B000C093B40064C0809190009C
:1023D000806880939000D0939900C09398005AC071
:1023E00080919000806280939000D0939B00C09376
:1023F0009A0050C080919000886080939000D093A4
:102400009D00C0939C0046C08091A000806880938E
:10241000A0008091A0008F7B8093A000D093A900A2
:10242000C093A80037C08091A00080628093A00074
:10243000D093AB00C093AA002DC08091A00088600B
:102440008093A000D093AD00C093AC0023C08091D6
:102450002001806880932001D0932901C093280136
:1024600019C080912001806280932001D0932B01BC
:10247000C0932A010FC080912001886080932001C1
:10248000D0932D01C0932C0105C0C038D1050CF0AC
:102490004BCF45CFDF91CF911F9108952FB7F8947F
:1024A0006091800A7091810A8091820A9091830ADA
:1024B0002FBF08951F920F920FB60F9211242F93E2
:1024C0003F938F939F93AF93BF938091800A909196
:1024D000810AA091820AB091830A30917F0A23E099
:1024E000230F2D3720F40196A11DB11D05C026E84C
:1024F000230F0296A11DB11D20937F0A8093800AAD
:102500009093810AA093820AB093830A80917B0AF8
:1025100090917C0AA0917D0AB0917E0A0196A11D3E
:10252000B11D80937B0A90937C0AA0937D0AB0939F
:102530007E0ABF91AF919F918F913F912F910F9004
:102540000FBE0F901F901895CF92DF92EF92FF92DF
:102550000F931F93E82FF92F05C00150110921098E
:10256000310961F1908196239417B9F305C00150A8
:1025700011092109310911F1908196239413F7CFA4
:10258000C12CD12CE12CF12C0AC08FEFC81AD80A2B
:10259000E80AF80A0C151D052E053F0579F0808123
:1025A0008623841791F36C2D7D2D8E2D9F2D1F91E9
:1025B0000F91FF90EF90DF90CF90089560E070E072
:1025C00080E090E01F910F91FF90EF90DF90CF900F
:1025D0000895789484B5826084BD84B5816084BD9B
:1025E00085B5826085BD85B5816085BD80916E00B1
:1025F000816080936E0010928100809181008260E2
:10260000809381008091810081608093810080911E
:1026100080008160809380008091B100846080930D
:10262000B1008091B00081608093B00080919100F2
:1026300082608093910080919100816080939100ED
:10264000809190008160809390008091A1008260D1
:102650008093A1008091A10081608093A10080916E
:10266000A00081608093A00080912101826080930E
:1026700021018091210181608093210180912001BD
:1026800081608093200180917A00846080937A0039
:1026900080917A00826080937A0080917A008160D4
:1026A00080937A0080917A00806880937A001092FB
:1026B000C10040E855E260E070E08AE694E00E94E4
:1026C000141061E087E00E94491161E088E10E94F6
:1026D000491161E086E00E94491161E083E00E94B7
:1026E000491161E089E10E94491161E082E00E94A4
:1026F000491161E087E10E94491160E086E10E9492
:10270000491161E08DE00E94491161E088E10E9479
:10271000CC1061E089E10E94CC1060E086E00E946C
:10272000CC104091DA055091DB056091DC05709189
:10273000DD058091D8059091D9050E941410109262
:102740004F0A10924E0A1092510A1092500A10929B
:10275000550A1092540A1092530A1092520AECE150
:10276000FAE080E090E021913191232B81F4FC018B
:10277000EE0FFF1FE45EF54F2EEA35E03183208334
:102780008C599F4F9093B1058093B00504C001967A
:102790008931910541F7EAEEF9E080E090E021917E
:1027A0003191232BB1F4FC01EE0FFF1FE651F64FE0
:1027B00024EA35E03183208383589F4F9093A90505
:1027C0008093A80586ED95E09093AB058093AA05CC
:1027D00004C001968931910511F7F8941092B00068
:1027E0001092B1008091B00082608093B00080911F
:1027F000B10087608093B1008FEF8093B300809128
:1028000070008260809370007894C3E0D0E092E121
:10281000892E93E0992E2CEC222E22E0322E38EED7
:10282000432E33E0532E612C712CAA24A394B12C97
:1028300060916804709169046B01770FEE08FF08DE
:10284000F7FE14C0E0916A04F0916B040190F081EE
:10285000E02D6DE28AE694E0199566277727CB0193
:102860006C197D098E099F094AE003C04AE0C7013F
:10287000B6010E947B1042E050E060E474E08AE61A
:1028800094E00E94F8018091660490916704892B7E
:1028900009F461C060E087E10E94CC10CE0101978D
:1028A000F1F761E087E10E94CC1083E290E00197AC
:1028B000F1F760E087E10E94CC10F4016491F1012E
:1028C0008491E82FF0E0EE0FFF1FE859FD4F85914E
:1028D000949100E412E42FE030E0462F0E94A4120D
:1028E000611571058105910549F0DC01CB01019667
:1028F000A11DB11D9C01AD015F7003C020E030E05F
:10290000A901209358043093590440935A045093DA
:102910005B04A1E1B0E00E943516A30192010E9480
:102920000B1620935404309355044093560450934F
:1029300057042A3131054105510528F0B09265044C
:10294000A092640404C01092650410926404109272
:102950006704109266042091000230910102809178
:1029600064049091650482239323892BC1F06091C4
:1029700060047091610480916204909163040E94EC
:10298000681682E00E94851160915C0470915D047C
:1029900080915E0490915F040E94681607C060E019
:1029A00070E082E00E94851160E070E086E00E94A5
:1029B000851186ED95E00E94090C0E941B0338CF1B
:1029C00010920A051092090548EE53E060E070E0AD
:1029D00040930B0550930C0560930D0570930E0505
:1029E0008CE492E090930805809307052DEC30E08D
:1029F00030931405209313052CEC30E0309316052A
:102A00002093150528EC30E0309318052093170526
:102A100029EC30E030931A05209319052AEC30E0B8
:102A200030931C0520931B052EEC30E030931E05DF
:102A300020931D0510922005109221051092220569
:102A40001092230510926D0410926C0440936E0452
:102A500050936F04609370047093710490936B04AF
:102A600080936A0485EC90E09093770480937604D9
:102A700084EC90E0909379048093780480EC90E06B
:102A800090937B0480937A0481EC90E090937D0492
:102A900080937C0482EC90E090937F0480937E048A
:102AA00086EC90E0909381048093800410928304DC
:102AB00010928404109285041092860482E892E0B9
:102AC0009093D7058093D60587E095E09093D9053C
:102AD0008093D80580E091EEA0E0B0E08093DA0525
:102AE0009093DB05A093DC05B093DD051092580AA6
:102AF00086E792E09093670A8093660AEAEEF9E02F
:102B0000119211928AE0EC31F807D1F7ECE1FAE08A
:102B1000119211928AE0EE34F807D1F7EAEEF5E06F
:102B2000119287E0EA3EF807D9F7EAEEF7E0119252
:102B300089E0EA3EF807D9F71092680A10926E0A07
:102B400010926D0A10926F0A1092750A1092740A10
:102B500084EA92E09093AF058093AE058AE692E016
:102B60009093B5058093B4058EE592E09093B705F8
:102B70008093B6059093C5058093C4058AE094E0E0
:102B80009093D3058093D20581E090E09093D50592
:102B90008093D40583E494E09093B3058093B205C9
:102BA0008CE892E09093850A8093840A8BE494E009
:102BB0009093A5058093A40584E89AE09093A705D7
:102BC0008093A6051092AD051092AC050895DB0127
:102BD0008F939F930E943516BF91AF91A29F800D56
:102BE000911DA39F900DB29F900D1124089597FB06
:102BF000072E16F4009407D077FD09D00E944016E6
:102C000007FC05D03EF4909581959F4F08957095EF
:102C100061957F4F0895A1E21A2EAA1BBB1BFD01EF
:102C20000DC0AA1FBB1FEE1FFF1FA217B307E407AB
:102C3000F50720F0A21BB30BE40BF50B661F771F03
:102C4000881F991F1A9469F76095709580959095E3
:102C50009B01AC01BD01CF010895EE0FFF1F881F3E
:102C60008BBF0790F691E02D19940E945416A59FF2
:102C7000900DB49F900DA49F800D911D1124089577
:102C8000AA1BBB1B51E107C0AA1FBB1FA617B70792
:102C900010F0A61BB70B881F991F5A95A9F78095AE
:102CA0009095BC01CD010895A29FB001B39FC001D2
:102CB000A39F700D811D1124911DB29F700D811D68
:102CC0001124911D08950E949E1608F481E0089534
:102CD0000E946F166894B1110C94E51608950E9435
:102CE000CA1688F09F5798F0B92F9927B751B0F0BE
:102CF000E1F0660F771F881F991F1AF0BA95C9F780
:102D000014C0B13091F00E94E416B1E008950C9423
:102D1000E416672F782F8827B85F39F0B93FCCF3D6
:102D2000869577956795B395D9F73EF490958095FC
:102D3000709561957F4F8F4F9F4F0895990F0008B1
:102D4000550FAA0BE0E8FEEF16161706E807F9077D
:102D5000C0F012161306E407F50798F0621B730B18
:102D6000840B950B39F40A2661F0232B242B252B99
:102D700021F408950A2609F4A140A6958FEF811D3C
:102D8000811D089557FD9058440F551F59F05F3F1E
:102D900071F04795880F97FB991F61F09F3F79F07D
:102DA00087950895121613061406551FF2CF4695FF
:102DB000F1DF08C0161617061806991FF1CF869581
:102DC0007105610508940895E894BB276627772765
:102DD000CB0197F908956F927F928F929F92AF9255
:102DE000BF92CF92DF92EF92FF920F931F93CF93F8
:102DF000DF93EC01009789F4CB01DF91CF911F9114
:102E00000F91FF90EF90DF90CF90BF90AF909F9089
:102E10008F907F906F900C94E217FC01E60FF71FE4
:102E20009C0122503109E217F30708F4ACC0D90124
:102E30000D911C91119706171707B0F00530110579
:102E400008F49FC0C80104978617970708F499C033
:102E500002501109061B170B019311936D937C937C
:102E6000CF010E9477188DC05B01A01AB10A4C01F6
:102E7000800E911EA0918A0AB0918B0A40E050E02A
:102E8000E12CF12C109709F44AC0A815B905D1F529
:102E90006D907C901197630182E0C80ED11CCA141A
:102EA000DB0480F1A3014A195B096A0182E0C80EC4
:102EB000D11C1296BC9012971396AC91B5E0CB162C
:102EC000D10440F0B282A38351834083D9016D9332
:102ED0007C930AC00E5F1F4FC301800F911FF90141
:102EE00091838083EB2DFA2FE114F10431F0D701A7
:102EF0001396FC93EE93129744C0F0938B0AE093E1
:102F00008A0A3FC08D919C9111974817590708F480
:102F1000AC017D0112960D90BC91A02DB3CF809194
:102F2000880A9091890A88159905E1F44617570790
:102F3000C8F48091020290910302009741F48DB78A
:102F40009EB74091060250910702841B950BE8172B
:102F5000F907C8F4F093890AE093880AF9017183AC
:102F600060830FC0CB010E94E2177C01009759F0EB
:102F7000A801BE010E94D917CE010E947718C7018F
:102F800004C0CE0102C080E090E0DF91CF911F919C
:102F90000F91FF90EF90DF90CF90BF90AF909F90F8
:102FA0008F907F906F90089581E090E0F8940C945A
:102FB0000F19FB01DC0102C001900D9241505040FD
:102FC000D8F70895CF93DF938230910510F482E013
:102FD00090E0E0918A0AF0918B0A20E030E0C0E0B6
:102FE000D0E0309711F14081518148175907C0F066
:102FF0004817590761F482819381209719F09B83C8
:103000008A832BC090938B0A80938A0A26C021154D
:10301000310519F04217530718F49A01BE01DF0178
:10302000EF010280F381E02DDCCF2115310509F19C
:10303000281B390B2430310590F412968D919C9108
:1030400013976115710521F0FB019383828304C0FE
:1030500090938B0A80938A0AFD01329644C0FD0149
:10306000E20FF31F81939193225031092D933C93EA
:103070003AC02091880A3091890A232B41F420918B
:103080000402309105023093890A2093880A209126
:103090000202309103022115310541F42DB73EB7EC
:1030A0004091060250910702241B350BE091880ADB
:1030B000F091890AE217F307A0F42E1B3F0B2817A3
:1030C000390778F0AC014E5F5F4F2417350748F0A1
:1030D0004E0F5F1F5093890A4093880A8193919302
:1030E00002C0E0E0F0E0CF01DF91CF9108950F93AF
:1030F0001F93CF93DF93009709F48CC0FC013297A4
:103100001382128200918A0A10918B0A011511050F
:1031100081F420813181820F931F2091880A3091A0
:10312000890A2817390779F5F093890AE093880A04
:1031300071C0D80140E050E0AE17BF0750F41296BE
:103140002D913C911397AD012115310509F1D9015C
:10315000F3CF9D01DA013383228360817181860F71
:10316000971F8217930769F4EC0128813981260F94
:10317000371F2E5F3F4F318320838A819B8193834A
:103180008283452B29F4F0938B0AE0938A0A42C08C
:103190001396FC93EE931297ED01499159919E017C
:1031A000240F351FE217F30771F480819181840F9A
:1031B000951F029611969C938E938281938113960C
:1031C0009C938E931297E0E0F0E0D80112968D91D7
:1031D0009C911397009719F0F8018C01F6CF8D910F
:1031E0009C9198012E5F3F4F820F931F2091880A78
:1031F0003091890A2817390769F4309729F4109219
:103200008B0A10928A0A02C0138212821093890AD2
:103210000093880ADF91CF911F910F910895F89440
:02322000FFCFDE
:10322200010000008C0A8000726F7373657269611D
:103232006C5F6D7367732F5265717565737450613E
:1032420072616D0000000000720AFF07FC07F907B7
:10325200000000002709E108DE08DB08000000008A
:103262004A0AB707B407B10700000000B202F8012A
:103272004002F90271024F02630200000000470699
:103282007F047C047904000000008F071606760490
:10329200730400000000AB09F50AAE07AB0700009B
:1032A20000005F03090C500300000000850936048A
:1032B20033043004000000004B094B094B094B0951
:1032C2000000000032065B035803550339663139AA
:1032D20035663838313234366664666132373938A9
:1032E2006431643365656263613834610067656FB8
:1032F2006D657472795F6D7367732F547769737438
:10330200004D6573736167652066726F6D20646539
:10331200766963652064726F707065643A206D65CA
:103322007373616765206C6172676572207468618E
:103332006E206275666665722E00393932636538B1
:1033420061313638376365633863386264383833DD
:1033520065633733636134316431007374645F6D64
:103362007367732F537472696E6700346138343235
:103372006236356634313330383464633262313028
:1033820066623438346561376631370067656F6D60
:10339200657472795F6D7367732F566563746F72AC
:1033A200330039663065393862646136353938310F
:1033B2003938366464663533616661376134306545
:1033C2003439003131616264373331633235393334
:1033D20033323631636436313833626431326436C3
:1033E20032393500726F7373657269616C5F6D7328
:1033F20067732F4C6F670030616435316638386609
:1034020063343438393266386331303638343037E1
:103412003736343630303500726F737365726961D6
:103422006C5F6D7367732F546F706963496E666F5B
:10343200006364373136366337346335353263338C
:103442003131666263633266653561376263323891
:1034520039007374645F6D7367732F54696D65000F
:103462000D0A00636D645F76656C00636861747455
:04347200657200007F
:00000001FF
