:100000000C9462000C944A090C9423090C948A0005
:100010000C948A000C948A000C948A000C948A0038
:100020000C948A000C948A000C948A000C948A0028
:100030000C948A000C948A000C948A000C948A0018
:100040000C94D9080C948A000C9497090C947109AB
:100050000C948A000C948A000C948A000C948A00F8
:100060000C948A000C948A000000000024002700F1
:100070002A000000000023002600290000000000E4
:10008000250028002B0004040404040404040202D4
:100090000202020203030303030301020408102007
:1000A0004080010204081020010204081020000012
:1000B0000008000201000003040700000000000027
:1000C0000000C90911241FBECFEFD8E0DEBFCDBFAD
:1000D00012E0A0E0B1E0E2EEF7E102C005900D927F
:1000E000AC38B107D9F723E0ACE8B2E001C01D920B
:1000F000A538B207E1F710E0C2E6D0E004C02197CE
:10010000FE010E94940BC136D107C9F70E941C0A58
:100110000C94EF0B0C940000E8EDF2E0A089B1899B
:1001200082E08C93A485B5851C92A685B7858FEC5B
:100130008C93108EA489B58986E08C93A289B389AB
:100140008C9180618C93A289B3898C9188608C9307
:10015000A289B3898C9180688C930288F389E02D01
:1001600080818F7D80830895833081F028F48130F1
:1001700099F08230A1F008958730A9F08830B9F065
:100180008430D1F4809180008F7D03C08091800005
:100190008F7780938000089584B58F7702C084B5EF
:1001A0008F7D84BD08958091B0008F7703C08091CA
:1001B000B0008F7D8093B00008951F93CF93DF939D
:1001C000E7EBF0E09491E3EAF0E0D491EFE8F0E0BF
:1001D000C491CC23D9F0182F992319F0892F0E94AC
:1001E000B400EC2FF0E0EE0FFF1FE458FF4FA59195
:1001F000B4918FB7F894111105C09C91ED2FE09543
:10020000E92302C0EC91ED2BEC938FBFDF91CF91EE
:100210001F910895CF93DF93282F30E0F901E25525
:10022000FF4F8491F901E656FF4FD491F901EA5747
:10023000FF4FC491CC2391F081110E94B400EC2FA8
:10024000F0E0EE0FFF1FEE58FF4FA591B491EC9137
:10025000ED2381E090E021F480E002C080E090E0B6
:10026000DF91CF910895CF93DF9390E0FC01E656A4
:10027000FF4F2491FC01EA57FF4F8491882361F1DD
:1002800090E0880F991FFC01E859FF4FC591D49168
:10029000FC01E458FF4FA591B491611109C09FB7CB
:1002A000F8948881209582238883EC912E230BC0BB
:1002B000623061F49FB7F8943881822F8095832350
:1002C0008883EC912E2B2C939FBF06C08FB7F89498
:1002D000E8812E2B28838FBFDF91CF910895CF9394
:1002E000DF93EC0161E089E00E943301209711F473
:1002F00080E004C0CF3FD10529F481E0DF91CF91A8
:100300000C94DD00E7EBF0E0E491E330F9F048F421
:10031000E130B9F0E230A1F584B5806284BDC8BD9A
:1003200034C0E730E9F0E83019F1E43049F5809164
:100330008000806280938000D0938B00C0938A00FD
:1003400024C084B5806884BDC7BD1FC08091800073
:10035000806880938000D0938900C093880015C086
:100360008091B00080688093B000C093B3000DC04E
:100370008091B00080628093B000C093B40005C04B
:10038000C038D1050CF0B9CFB3CFDF91CF9108952C
:100390003FB7F89480919D0290919E02A0919F0298
:1003A000B091A00226B5A89B05C02F3F19F0019679
:1003B000A11DB11D3FBFBA2FA92F982F8827820FEB
:1003C000911DA11DB11DBC01CD0142E0660F771F3B
:1003D000881F991F4A95D1F708958F929F92AF92E7
:1003E000BF92CF92DF92EF92FF926B017C010E944D
:1003F000C8014B015C01C114D104E104F104F1F026
:100400000E94C801DC01CB0188199909AA09BB091E
:10041000883E9340A105B10570F321E0C21AD108CE
:10042000E108F10888EE880E83E0981EA11CB11C3B
:10043000C114D104E104F10419F7DDCFFF90EF906E
:10044000DF90CF90BF90AF909F908F9008952FB77F
:10045000F8946091990270919A0280919B02909118
:100460009C022FBF08950895CF92DF92EF92FF92E2
:100470000F931F93CF93DF936C017A018B01C0E040
:10048000D0E0CE15DF0589F0D8016D918D01D60140
:10049000ED91FC910190F081E02DC6010995892B29
:1004A00011F47E0102C02196ECCFC701DF91CF91FC
:1004B0001F910F91FF90EF90DF90CF9008950895D6
:1004C00080E090E00895FC01538D448D252F30E0AD
:1004D000842F90E0821B930B541710F0CF96089551
:1004E00001970895FC01918D828D981761F0828D9E
:1004F000DF01A80FB11D5D968C91928D9F5F9F7358
:10050000928F90E008958FEF9FEF0895FC01918DF9
:10051000828D981731F0828DE80FF11D858D90E066
:1005200008958FEF9FEF0895FC01918D228D892F03
:1005300090E0805C9F4F821B91098F7399270895EB
:1005400088ED92E00E94940221E0892B09F420E0DA
:10055000822F0895FC01848DDF01A80FB11DA35ADD
:10056000BF4F2C91848D90E001968F739927848FD3
:10057000A689B7892C93A089B1898C9180648C93CA
:10058000938D848D981306C00288F389E02D8081B5
:100590008F7D80830895EF92FF920F931F93CF93E7
:1005A000DF93EC0181E0888F9B8D8C8D981305C0C3
:1005B000E889F989808185FD24C0F62E0B8D10E035
:1005C0000F5F1F4F0F731127E02E8C8DE8120CC0A8
:1005D0000FB607FCFACFE889F989808185FFF5CF4E
:1005E000CE010E94AA02F1CF8B8DFE01E80FF11D12
:1005F000E35AFF4FF0820B8FEA89FB89808180628A
:1006000007C0EE89FF896083E889F9898081806469
:10061000808381E090E0DF91CF911F910F91FF9057
:10062000EF900895CF93DF93EC01888D8823C9F074
:10063000EA89FB89808185FD05C0A889B9898C91EB
:1006400086FD0FC00FB607FCF5CF808185FFF2CF86
:10065000A889B9898C9185FFEDCFCE010E94AA02AD
:10066000E7CFDF91CF91089580E090E0892B29F0CA
:100670000E94A00281110C9400000895CF92DF9295
:10068000EF92FF920E9427026B017C01609392021D
:1006900070939302809394029093950280918E02BE
:1006A00090918F02A0919002B0919102A7019601C2
:1006B000281B390B4A0B5B0B2B3F310541055105BC
:1006C00028F180919602909197020196909397025B
:1006D00080939602209175033091760381E090E03B
:1006E000232B11F080E090E09093760380937503C4
:1006F00080917503909176030E94DD00C0928E0276
:10070000D0928F02E0929002F0929102FF90EF90CF
:10071000DF90CF900895682F88ED92E00C94CB0283
:10072000CF92DF92EF92FF92CF936B017C01C42FA7
:1007300080E390E00E948B0388E790E00E948B03A7
:100740001C16F4F4C15024E0C29FC0011124A7017B
:10075000960104C056954795379527958A95D2F707
:10076000DA01C9018F709927AA27BB278A30910522
:10077000A105B10510F4805D01C0895C90E0DECF79
:10078000CF91FF90EF90DF90CF9008954F925F92BE
:100790006F927F928F929F92AF92BF92CF92DF9291
:1007A000EF92FF922B013C01C12CD12C7601C39416
:1007B000C301B201A70196010E94670B2A303105DF
:1007C0004105510548F0AAE0B0E0A70196010E945A
:1007D000890B6B017C01ECCF8AE0882E912CA12C37
:1007E000B12CC301B201A70196010E94670BCA0197
:1007F000B901A50194010E94670B80E3860F90E088
:100800000E948B03C701B601A50194010E94670BEA
:1008100069017A01232B242B252B19F7FF90EF90E8
:10082000DF90CF90BF90AF909F908F907F906F9010
:100830005F904F900895CF92DF92EF92FF926B01FD
:100840007C0197FF0CC08DE290E00E948B03F09436
:10085000E094D094C094C11CD11CE11CF11CC701D0
:10086000B601FF90EF90DF90CF900C94C603CF932A
:10087000DF93EC01892B71F19881992359F180EE76
:10088000890F8F3520F4892F990F990B08C09D305F
:1008900049F48CE590E00E948B0382E790E00E948F
:1008A0008B0316C09A3039F48CE590E00E948B03DC
:1008B0008EE690E0F4CF8CE590E00E948B03688197
:1008C000062E000C770B880B990B42E00E949003D8
:1008D0002196D2CFDF91CF910895CF93DF9300D0AF
:1008E00000D0CDB7DEB749835A836B837C830E94E7
:1008F00037048AE390E00E948B0349815A816B811F
:100900007C81CB01BA010E941B048AE390E00E9423
:100910008B038091A3029091A4020E9437048AE382
:1009200090E00F900F900F900F90DF91CF910C946B
:100930008B030F931F930091B9021091BA0220917B
:10094000BB023091BC02012B022B032B09F057C0D4
:100950000091BD021091BE022091BF023091C002F1
:10096000012B022B032B09F04AC0AB01BC01809183
:10097000A1029091A2020E946D0481E491E00E9484
:1009800037048AE390E00E948B038091A502909146
:10099000A602892BF1F081E591E00E943704809155
:1009A000A5029091A6020E9437048091A70290911F
:1009B000A802892B51F086E491E00E9437048091CF
:1009C000A7029091A8020E9437048BE591E00E9453
:1009D000370481E891E00E94370481E090E0A0E0D4
:1009E000B0E08093B9029093BA02A093BB02B09397
:1009F000BC0261E070E081EC92E00E94CE0B1F919E
:100A00000F9108954F925F926F927F928F929F9273
:100A1000AF92BF92CF92DF92EF92FF920F931F930C
:100A20008090B9029090BA02A090BB02B090BC0234
:100A300089288A288B2809F049C08090BD029090AF
:100A4000BE02A090BF02B090C00289288A288B28DD
:100A5000E9F56217730784079507C1F1270138018B
:100A600069017A014B015C01B301A2018091A102ED
:100A70009091A2020E946D0481E491E00E943704EB
:100A80008AE390E00E948B0384E691E00E943704A1
:100A9000C501B4010E941B048EE591E00E94370459
:100AA000C701B6010E941B0481E090E0A0E0B0E025
:100AB0008093B9029093BA02A093BB02B093BC0298
:100AC00061E070E081EC92E00E94CE0B1F910F91EB
:100AD000FF90EF90DF90CF90BF90AF909F908F905E
:100AE0007F906F905F904F900895EF92FF920F93D9
:100AF0001F9381E00E94DD006EE170E080E090E0F5
:100B00000E94ED0189E00E940A01BC01990F880B47
:100B1000990B14E1E12EF12C00E010E021E030E02F
:100B200040E050E00E9402051F910F91FF90EF906E
:100B30000895EF92FF920F931F9380E00E94DD00D3
:100B40006EE170E080E090E00E94ED0189E00E949B
:100B50000A01BC01990F880B990B1AE1E12EF12CC7
:100B600000E010E020E030E0A9010E9402051F91A2
:100B70000F91FF90EF900895CF92DF92EF92FF9246
:100B80000F931F93CF93DF930E9427026B017C0189
:100B9000C0E0D0E0CE010E946F016EE170E080E025
:100BA00090E00E94ED012596C43021E0D20791F734
:100BB000CE010E946F016EE170E080E090E00E9443
:100BC000ED012597CB3F8FEFD80791F70E942702C1
:100BD000CB018C199D09843F9B4034F463E370E0A2
:100BE00080E090E00E94990480E00E94DD0089E0AE
:100BF0000E940A01BC01990F880B990B15E3E12EA5
:100C0000F12C00E010E020E030E0A9010E94020594
:100C1000DF91CF911F910F91FF90EF90DF90CF90D8
:100C20000895009769F0FC0101900020E9F73197E1
:100C3000AF01481B590BBC0188ED92E00C943402C3
:100C400080E090E00895CF93DF930E941106EC01BD
:100C50008AE991E00E9411068C0F9D1FDF91CF91D0
:100C600008950F931F93CF93DF9383E00E940A01AF
:100C7000EC018091830390918403C817D90751F048
:100C80000E94270260937B0370937C0380937D0313
:100C900090937E0360917F03709180038091810324
:100CA000909182030E94ED018091830390918403CF
:100CB000C817D90709F08E010130110531F48DE90B
:100CC00091E00E94230681E001C080E0D09384037C
:100CD000C0938303DF91CF911F910F910895CF921D
:100CE000DF92EF92FF928FEA91E00E9423060E942A
:100CF00027026B010E9431060D2C000CEE08FF0844
:100D0000811116C00E942702DC01CB018C199D09BC
:100D1000AE09BF09893B9B40A105B10518F40E94AB
:100D20003106EECF64E270E080E090E00E9499042A
:100D30008FEA91E00E9423060E9427026B010E9425
:100D400031060D2C000CEE08FF0881111AC00E941C
:100D50002702DC01CB018C199D09AE09BF09893B33
:100D60009B40A105B10518F40E943106EECF6CE25C
:100D700070E080E090E0FF90EF90DF90CF900C94D7
:100D80009904FF90EF90DF90CF9008958F929F92FB
:100D9000AF92BF92CF92DF92EF92FF920F931F9389
:100DA000CF93DF93CDB7DEB7A1970FB6F894DEBF30
:100DB0000FBECDBF6C01990FEE08FF08F7FE31C0E2
:100DC000E091D802F091D9020190F081E02D6DE21E
:100DD00088ED92E009958C0122273327A9012C196F
:100DE0003D094E095F0919A2CE0181967C019AE066
:100DF000892E912CA12CB12CCA01B901A501940115
:100E00000E94670B605DF70162937F012115310538
:100E10004105510589F7CF010E941106080F191FDE
:100E20001EC0A701960119A28E010F5D1F4F8AE017
:100E3000C82ED12CE12CF12CCA01B901A7019601D1
:100E40000E94670B605DF80162938F0121153105E7
:100E50004105510589F7CF010E9411068C018AE9ED
:100E600091E00E941106800F911FA1960FB6F89491
:100E7000DEBF0FBECDBFDF91CF911F910F91FF90CD
:100E8000EF90DF90CF90BF90AF909F908F9008959C
:100E9000CF92DF92EF92FF920F931F938091960271
:100EA000909197020E94C6068EE393E0909303010F
:100EB00080930201809169008C6080936900E99AB7
:100EC00080919602909197020E94C60680E00E944F
:100ED000DD00109276031092750380919602909136
:100EE00097020E94C60685EC91E00E9423060E94AC
:100EF00027026B010E9431060D2C000CEE08FF0842
:100F0000811116C00E942702DC01CB018C199D09BA
:100F1000AE09BF09893B9B40A105B10518F40E94A9
:100F20003106EECF63E570E080E090E00E94990426
:100F30006091750370917603072E000C880B990B56
:100F400014E5E12EF12C00E010E021E030E040E07B
:100F500050E00E94020589E00E940A01BC01990F3D
:100F6000880B990B15E5E12EF12C00E010E021E053
:100F700030E040E050E00E94020583EE91E00E94E4
:100F800023060E9427026B010E9431060D2C000CE3
:100F9000EE08FF08811116C00E942702DC01CB0178
:100FA0008C199D09AE09BF09893B9B40A105B1057C
:100FB00018F40E943106EECF6EE570E080E090E01C
:100FC0000E9499046091750370917603072E000CBE
:100FD000880B990B1FE5E12EF12C00E010E020E0DA
:100FE00030E0A9010E94020589E00E940A01BC01CB
:100FF000990F880B990B10E6E12EF12C00E010E020
:1010000020E030E0A9010E940205E99883E392E024
:10101000909303018093020182E092E00E942306F4
:101020000E9427026B010E9431060D2C000CEE0875
:10103000FF08811116C00E942702DC01CB018C1928
:101040009D09AE09BF09893B9B40A105B10518F474
:101050000E943106EECF6AE670E080E090E00E94E8
:1010600099046091750370917603072E000C880B2C
:10107000990B1BE6E12EF12C00E010E020E030E0BF
:10108000A9010E94020589E00E940A01BC01990F92
:10109000880B990B1CE6E12EF12C00E010E020E01B
:1010A00030E0A9010E9402051F910F91FF90EF907F
:1010B000DF90CF9008950E94A90BCF93DF9300D0CB
:1010C000CDB7DEB79A838983E1EAF2E07383628366
:1010D000052E000C660B770B40875187628773875C
:1010E00084859585A685B7850196A11DB11D848748
:1010F0009587A687B787158214821782168281EC9E
:1011000092E00E94AE0B892B19F4E981FA810995CE
:1011100081EC92E00E94AE0BE1EAF2E0848D958DC5
:10112000A68DB78D892B8A2B8B2B61F084899589AD
:10113000A689B7890196A11DB11D848B958BA68BBD
:10114000B78B20C0808D918DA28DB38D892B8A2B7A
:101150008B2B69F4408551856285738580819181EF
:101160000E946D0484E091E00E9437040BC08089E6
:101170009189A289B3890196A11DB11D808B918BA4
:10118000A28BB38BE1EAF2E0108E118E128E138ED9
:10119000148E158E168E178E8AE090E00E948B03B7
:1011A00088ED92E00E9412030F900F90DF91CF9193
:1011B00008951F920F920FB60F9211242F933F9311
:1011C0008F939F93AF93BF938091990290919A02CE
:1011D000A0919B02B0919C023091980223E0230FD2
:1011E0002D3720F40196A11DB11D05C026E8230F5F
:1011F0000296A11DB11D20939802809399029093AD
:101200009A02A0939B02B0939C0280919D029091C0
:101210009E02A0919F02B091A0020196A11DB11D56
:1012200080939D0290939E02A0939F02B093A00290
:10123000BF91AF919F918F913F912F910F900FBED2
:101240000F901F9018951F920F920FB60F921124B6
:101250002F933F934F935F936F937F938F939F93BE
:10126000AF93BF93EF93FF93E0910201F0910301DD
:101270000995FF91EF91BF91AF919F918F917F91D0
:101280006F915F914F913F912F910F900FBE0F90F3
:101290001F9018951F920F920FB60F9211242F9343
:1012A0003F934F935F936F937F938F939F93AF93EE
:1012B000BF93EF93FF93E0910001F0910101099535
:1012C000FF91EF91BF91AF919F918F917F916F911E
:1012D0005F914F913F912F910F900FBE0F901F90F4
:1012E00018951F920F920FB60F9211242F933F93D0
:1012F0004F935F936F937F938F939F93AF93BF931E
:10130000EF93FF9388ED92E00E94AA02FF91EF9184
:10131000BF91AF919F918F917F916F915F914F910D
:101320003F912F910F900FBE0F901F9018951F9215
:101330000F920FB60F9211242F938F939F93EF93D9
:10134000FF93E091E802F091E9028081E091EE02E2
:10135000F091EF0282FD12C090818091F1028F5FC7
:101360008F732091F202821751F0E091F102F0E0C8
:10137000E852FD4F958F8093F10201C08081FF916B
:10138000EF919F918F912F910F900FBE0F901F9013
:101390001895E8EDF2E01382128288EE93E0A0E067
:1013A000B0E084839583A683B78383E791E091833C
:1013B000808385EC90E09587848784EC90E0978724
:1013C000868780EC90E0918B808B81EC90E0938B12
:1013D000828B82EC90E0958B848B86EC90E0978BEF
:1013E000868B118E128E138E148EE5E7F3E083E068
:1013F00090E09383828389E090E0958384831182D7
:10140000108217861686168217821086118682E34E
:1014100090E0A0E0B0E082879387A487B58762E080
:1014200083E00E94330161E089E00E94330180E0A3
:101430000E94DD000C948C00789484B5826084BD99
:1014400084B5816084BD85B5826085BD85B58160C8
:1014500085BD80916E00816080936E001092810046
:101460008091810082608093810080918100816001
:1014700080938100809180008160809380008091C2
:10148000B10084608093B1008091B000816080934E
:10149000B00080917A00846080937A0080917A0015
:1014A000826080937A0080917A00816080937A00D4
:1014B00080917A00806880937A001092C10088E25F
:1014C00092E09093A2028093A1021092A402109243
:1014D000A3021092A9021092AA021092AB021092DB
:1014E000AC021092AD021092AE021092AF021092B6
:1014F000B0021092B1021092B2021092B302109296
:10150000B4021092B5021092B6021092B702109275
:10151000B8021092B9021092BA021092BB02109255
:10152000BC021092BD021092BE021092BF02109235
:10153000C0021092A6021092A5021092A802109268
:10154000A7020E948C000E948C0044E750E061E4F6
:1015500072E085E795E00E945D0864EF71E080E04D
:1015600090E00E94ED0146E750E06DE472E089E909
:1015700095E00E945D0864EF71E080E090E00E94D9
:10158000ED0148E750E06AE572E08FE696E00E94E0
:101590005D0864EF71E080E090E00E94ED014AE7B1
:1015A00050E06CE672E08CEB95E00E945D0864EF21
:1015B00071E080E090E00E94ED014CE750E06CE7C4
:1015C00072E088E497E00E945D0864EF71E080E0DB
:1015D00090E00E94ED018AE090E00E948B0389E296
:1015E00091E00E9437048AE090E00E948B036091B2
:1015F000AD027091AE028091AF029091B0020E9454
:101600001B0481E291E00E9437046091B102709165
:10161000B2028091B3029091B4020E941B0486E151
:1016200091E00E9437046091B5027091B6028091FA
:10163000B7029091B8020E941B048CE091E00E94D6
:1016400037048AE090E00E948B038091B102909170
:10165000B202A091B302B091B402892B8A2B8B2BDA
:1016600019F489E091E002C081E491E00E9437041E
:101670008AE090E00E948B0388ED92E00E941203C2
:1016800088ED92E00E941203E091EA02F091EB02F1
:1016900080818F7E8083E091EA02F091EB0280816D
:1016A000877F8083E091EA02F091EB0280818F775F
:1016B0008083E091EA02F091EB0280818F7D80834C
:1016C0008091F2028093F1020E9434033ECFA1E2A6
:1016D0001A2EAA1BBB1BFD010DC0AA1FBB1FEE1FAC
:1016E000FF1FA217B307E407F50720F0A21BB30BF7
:1016F000E40BF50B661F771F881F991F1A9469F773
:1017000060957095809590959B01AC01BD01CF01CE
:1017100008950E949A0BA59F900DB49F900DA49FD1
:10172000800D911D11240895EE0FFF1F0590F49177
:10173000E02D0994A29FB001B39FC001A39F700D3B
:10174000811D1124911DB29F700D811D1124911DC9
:10175000089581E090E0F8940C94EF0BDC012D9259
:101760003D924D925D926D927D928D929D92AD9241
:10177000BD92CD92DD92ED92FD920D931D93CD938E
:10178000DD93FF91EF918DB78D938EB78D938FB7CA
:101790008D93ED93FD93882799270994DC01CB0164
:1017A00081309105811D2D903D904D905D906D9003
:1017B0007D908D909D90AD90BD90CD90DD90ED9001
:1017C000FD900D911D91CD91DD91ED91FD910D90CB
:1017D000F894FEBF0FBEEDBFED91FD910994F89412
:0217E000FFCF39
:1017E2003302330250415353004F4B002049676E7E
:1017F2006F7265642000204661696C7572657320A2
:101802000020546573747320002D2D2D2D2D2D2D48
:101812002D2D2D2D2D2D2D2D2D2D2D2D2D2D2D2DF6
:10182200004641494C0020417267756D656E742017
:101832000046756E6374696F6E20002E200020577B
:101842006173200020457870656374656420000030
:10185200000000CB02340263021203940272028679
:1018620002204578706563746564205452554520A2
:101872005761732046414C5345000D0A006275744E
:10188200746F6E20697320636C69636B65640070AA
:101892007265737320627574746F6E2C20706C6540
:1018A2006173652100707265737320627574746F61
:1018B2006E20746F207475726E206F6E204C4544DA
:1018C2002E2E00707265737320627574746F6E20B1
:1018D200746F207475726E206F6666204C45442EBC
:1018E2002E00707265737320627574746F6E2C2093
:1018F200627574206E6F206368616E676520746F15
:10190200204C45442E2E2E00746573742F7465731B
:10191200745F6272656174685F6C69622E63707075
:1019220000746573745F6C65645F6F6E00746573D9
:10193200745F6C65645F6F666600746573745F6381
:101942006C69636B5F627574746F6E007465737437
:101952005F6C65645F62726561746800746573745C
:0C1962005F696E7465727275707400002D
:00000001FF
